:020000040800F2
:10000000C807002025030008873B00088D39000839
:10001000853B0008631D00085D44000800000000E7
:10002000000000000000000000000000E13D0008AA
:10003000131E000800000000893B0008E33D000893
:100040003F0300083F0300083F0300083F03000888
:100050003F0300083F0300083F0300083F03000878
:100060003F0300083F0300083F030008651D000828
:100070003F0300083F0300083F0300083F03000858
:100080003F030008000000003F0300083F03000892
:100090003F0300083F0300083F0300083F03000838
:1000A0003F0300083F0300083F0300083F03000828
:1000B0003F0300083F0300083F0300083F03000818
:1000C0003F0300083F0300083F0300083F03000808
:1000D0003F030008514400083F0300083F030008A5
:1000E0003F0300083F0300083F0300083F030008E8
:1000F0003F0300083F0300083F0300080000000022
:10010000000000003F030008000000003F0300085B
:100110003F030008000000003F0300083F03000801
:100120003F0300083F0300083F0300083F030008A7
:100130003F03000800000000000000003F0300082B
:100140003F0300083F03000800000000000000001B
:10015000000000000000000000000000000000009F
:100160000000000000000000000000003F03000845
:100170003F03000800000000000000000000000035
:10018000000000003F030008000000000000000025
:10019000000000000000000000000000000000005F
:1001A00000000000000000003F0300083F030008BB
:1001B0003F0300083F0300083F0300080000000061
:1001C000000000003F0300080000000000000000E5
:1001D0003F0300083F03000800F002F800F092F827
:1001E0000AA090E8000C82448344AAF10107DA4592
:1001F00001D100F087F8AFF2090EBAE80F0013F052
:10020000010F18BFFB1A43F001031847D045000047
:10021000F0450000103A24BF78C878C1FAD85207D8
:1002200024BF30C830C144BF04680C607047000070
:100230000023002400250026103A28BF78C1FBD8EF
:10024000520728BF30C148BF0B6070476E2900F0CD
:10025000FB81702900F03D83662904F01D82652929
:1002600004F01A82672904F01782612904F01682CB
:1002700003681B0A28BF41F08001692900F0A881AA
:10028000642900F0A581752900F0A2816F2900F092
:10029000CA82782900F00983E92900F06582E429FF
:1002A00000F06282F52900F05F82EF2900F0C7823A
:1002B000F82900F008830368DB0928BF41F08001BA
:1002C000632901F00B80732901F01080E32901F00C
:1002D0001B80F32901F02080002070471FB504F037
:1002E000D6F901F06BF804000020002104F042F977
:1002F000401C60600020002104F026F9E0601FBD72
:1003000010B510BD01F02CF81146FFF7E7FF04F01F
:10031000EFF801F009F903B4FFF7F2FF03BC01F0B5
:1003200051F900000948804709480047FEE7FEE709
:10033000FEE7FEE7FEE7FEE7FEE7FEE7FEE7FEE795
:1003400004480549054A064B704700004D3E000829
:10035000D9010008C8010020C8070020C8030020F8
:10036000C803002053EA020C00F069802DE9F04B2D
:100370004FF00006002B1FBFB3FA83F503FA05F414
:1003800024FA05F65E4012BF1643B2FA82F502FA6D
:1003900005F4C5F120051EBF22FA05FC44EA0C0451
:1003A000203556EA044C4FEA144418BF641C4FF041
:1003B00000084FF00009904271EB030C39D300297B
:1003C00019BFB1FA81F701FA07F6B0FA80F700FA1F
:1003D00007F6C7F120071EBF20FA07FC46EA0C0605
:1003E0002037B6FBF4FCA7EB0507103F07F01F0B07
:1003F000CBF120060CFA0BFB2CFA06F644BFB346F1
:100400000026202FA4BF5E464FF0000B5BEA060CCF
:1004100008BF4FF0010B19EB0B09ABFB027C48EB5B
:100420000608C01B06FB02CC0BFB03CC71EB0C01D6
:10043000C1E70B46024641464846BDE8F08B13B57E
:100440004FF000004FF00001AFF30080BDE81C400A
:10045000704700001CB50C46064B7B446946009073
:10046000204600F00AF904460020694600F018F919
:1004700020461CBD4302000010B5431C02E010F8EA
:10048000011B71B18107FAD14FF0013202C88C1AF9
:100490008C4314EAC211F9D0C01A0A0603D0C01E58
:1004A00010BDC01A10BD0A0401D0801E10BD090283
:1004B000FCD0401E10BD4FF0000200B5134694461C
:1004C0009646203922BFA0E80C50A0E80C50B1F1AC
:1004D0002001BFF4F7AF090728BFA0E80C5048BFC0
:1004E0000CC05DF804EB890028BF40F8042B08BF5E
:1004F000704748BF20F8022B11F0804F18BF00F85A
:10050000012B704770477047704770B50446856986
:100510000068C10601D5302600E02026C00707D0BC
:1005200070BDD4E9012130469047206A401C20620A
:100530006D1EF6D570BD70B5044685690078C0079C
:1005400007D170BDD4E9012120209047206A401CCA
:1005500020626D1EF6D570BD09684A0501D540B20E
:100560007047C905FCD500B2704709684A0501D536
:10057000C0B27047C905FCD580B2704770B50C4653
:100580000546012A05D02878800600D5EA690023AF
:1005900002E0012305E05B1C934202D2E05C0028EC
:1005A000F9D1A869E618C01AA861286A1844286217
:1005B0002846FFF7AAFF04E0D5E9012114F8010B52
:1005C0009047B442F8D32846FFF7B5FF70BD00004E
:1005D0002DE9F0410646002410687529314616A51C
:1005E00010D0FFF7B9FF002802DA404213A507E058
:1005F00031688A0701D512A502E0490704D511A583
:10060000012401E0FFF7B1FF00210A2206F12407CF
:1006100009E0B0FBF2FCB0FBF2F302FB1C0030304F
:1006200078541846491C0028F3D123462A46304600
:10063000BDE8F04100F061BA000000002D000000AC
:100640002B0000002000000011680268006A5305BA
:1006500001D508700AE0D30501D5088006E013062D
:1006600003D5C217C1E9000200E00860012070470D
:1006700001694A1C02610878704700B58FB0CDE966
:1006800001310021059105497944CDE90310114656
:10069000684600F029F90FB000BD0000E5FFFFFF3C
:1006A0000A6802F8010B0A60704700002DE9FF5F3D
:1006B00015468A460446DFF8AC80F8440027D8E99E
:1006C00000103E46CDE9001010E03AF816106A46D8
:1006D00002A800F025FE411C07D02178890603D529
:1006E000E269391891420DD80744761C20788006BB
:1006F00002D5E069B84205DDAE42E6DB3AF8160005
:100700000028E2D1A069C01BA0612046FFF7FDFED2
:10071000D8E90010CDE90010002017E03AF81810D1
:100720006A4602A800F0FCFDB0F1FF3F81460BD005
:1007300000250DF1080B05E0D4E901211BF80500A7
:1007400090476D1C4D45F7D308F10100B04280463B
:10075000E4DB206A384420622046FFF7ECFEBDE867
:10076000FF9F0000224000002DE9F0418046D21D8D
:1007700022F007020025D2E90002F52915A614D0BF
:10078000011E72F1000106DA0023D0EB030063EBD7
:10079000020211A608E0D8F800108B0701D50FA6B9
:1007A00002E0490701D50EA601251146002408F1F3
:1007B000240704E000F05CF930323A55641C50EA3A
:1007C0000102F7D12B46324621464046BDE8F041B2
:1007D00000F093B9000000002D0000002B00000085
:1007E0002000000030B4002100F1240408E002F0F1
:1007F0000705D208303542EA4372DB086554491CCC
:1008000052EA0305F3D10468002310A2250707D597
:10081000A40600D421B1C46901230DA2641EC461E1
:1008200030BC00F06AB910B5044621461068FFF7E5
:100830009CFE02462046BDE810400023D2E7D21DB0
:1008400022F00701D1E90023CCE7000000000000FE
:1008500030000000F0B40D460188090502D5214C96
:100860007C4402E01F4C7C440E34002100F124063D
:1008700008E002F00F071209E75D42EA03721B0964
:100880007754491C52EA0307F3D102780023120778
:1008900004D5702D06D009B1022311342246F0BCD4
:1008A00000F02BB901231034F8E770B504460D466B
:1008B00021461068FFF759FE024629462046BDE84A
:1008C00070400023C6E7D21D22F00703D3E90023BE
:1008D000C0E70368126843F0200303600823C36184
:1008E0000023B7E7843E00002DE9F05F8946044607
:1008F0004FF0000ADFF874B1FB44C0F820A0204696
:10090000E1688847002874D0252806D0D4E9012161
:100910009047206A401C2062F1E700265F4620468F
:10092000E16888472028054607DB312D05D2781974
:1009300010F8200C08B10643F1E7B00701D526F006
:100940000406C4F81CA00027C4F818A02A2D09D05A
:10095000284603F0ACFD38B304EB8708303DC8F8F7
:10096000185019E059F8041B204604EB87029161E6
:10097000E1688847012F054618D1E069002820DA90
:1009800026F020061DE0D8F8180000EB800005EBEB
:1009900040003038C8F818002046E168884705460E
:1009A00003F085FD0028EED1012F0AD02E2D08D1AD
:1009B0002046E16888477F1C0546022F46F0200646
:1009C000C4DBA069002803DA404246F00106A061BA
:1009D000F00701D026F010066C2D0BD0682D09D041
:1009E0004C2D39D06A2D35D0742D35D07A2D33D099
:1009F00016E038E0E1682F4620468847B8420546B1
:100A000009D16C2F26D04FF48060E1680643204660
:100A10008847054604E06C2F1AD04FF480700643D7
:100A20000DB3A5F14100192802D8203546F400661F
:100A30004A462946204626604E46FFF707FC80B10D
:100A400001280BD0F61D26F0070000F1080956E733
:100A50004020E4E78020D8E70020D6E706F104092B
:100A60004DE7284652E7206ABDE8F09F143E00009B
:100A700030B5B0F10A024FEA900E71F100034EEA70
:100A8000817EB0EB0E0061EB91014FEA101E4EEA41
:100A9000017E10EB0E0041EB11114FEA102E4EEAD1
:100AA000016E10EB0E0041EB11214FEA104E4EEAA1
:100AB000014E10EB0E0041EB1141401841F10001D5
:100AC0004FEAD00040EA41704FEAD10110EB8005B7
:100AD0004FEA810444EA907444EB01046D1944EB3D
:100AE0000404521BA3414FF0000348BF0A3200D553
:100AF00030BD401C41F1000130BD2DE9F0470D46ED
:100B000099469246044600F124080168880604D5F7
:100B1000E06921F01001216000E00120A84201DD20
:100B2000471B00E00027A1697A1902EB0900081AA7
:100B3000A0612078C00602D42046FFF7E6FC00261C
:100B400008E0D4E901211AF806009047206A401C09
:100B5000761C20624E45F4DB2078C0060AD520467C
:100B6000FFF7D3FC06E0D4E9012130209047206A4A
:100B7000401C2062381EA7F10107F4DC07E0D4E92D
:100B8000012118F805009047206A401C2062281EA9
:100B9000A5F10105F3DC2046FFF7CDFC2078000627
:100BA00002D50220BDE8F0870120FBE770472DE960
:100BB000FF4F0C461E464FF0FF378BB0D2E90001C5
:100BC000DDF860800A908A46C1F30A5505B93D46B2
:100BD000002108464FF00000BAF1000F00F4400079
:100BE00005DA00EB80004FF4400101EA50004FEAC3
:100BF0009059B9F1010F00DDB9460A9850EA4A0050
:100C00000ED044F61050A5F2FF3545432F14B8F12D
:100C1000000F1ED07542291E1EDDC9F100021CE026
:100C2000B8F1010F4FF0000001D0302103E0F24392
:100C300005E02154401CB042FBDB3046002200217D
:100C400021540B99C1F80880C1E900200FB0BDE81C
:100C5000F08FBD1B6D1CDEE74A4600DA694206A82C
:100C600000F0F0FB06AB93E8070003AB83E8070056
:100C700050460A9900F0ADFC8DE80700A0F5005041
:100C80001F3800900398002D0ADD42F21F014A46EA
:100C90000844002303A90390684600F016FF09E00A
:100CA000A0F500504A461F38002303A90390684668
:100CB00000F020FF8DE807000004000C03D04FF087
:100CC000FF30410800E01046B8F1000F03D00022C9
:100CD000009215461EE0751E05D4FFF7C9FE30329E
:100CE00062556D1EF9D5B3460122084302D0002299
:100CF0007F1C04E02078302801D100227F1E002ACA
:100D0000099784D01DE0112D07DAFFF7B1FE3032CC
:100D100062556D1C50EA0102F5D1084302D00098DB
:100D2000C8B10EE00021681E05E0235C625C6354DC
:100D30002254401E491C8142F7DBAB46A81B401ED3
:100D40000990002004F80B000B98099AC0F808805D
:100D5000C0E9002B7AE711264FF0000857E72DE98C
:100D6000F04F88460446D21D22F0070191B0D1E928
:100D70000001CDE90A0103F072FB02460B98C00F97
:100D800001D02D2007E02068810701D52B2002E04B
:100D9000202101EAC000032A099001D0072A05DBBF
:100DA00003464146204600F00DFB0BE1207880060B
:100DB00001D5E06900E00620B8F1650F814606D054
:100DC000B8F1660F18D0B8F1670F70D131E000208C
:100DD000B9F1110F009001DB112301E009F10103CA
:100DE0000AAA01A90CA8FFF7E2FEDDE90C700026B3
:100DF00009F10105834647E001204B4600904FF082
:100E000000470AAA01A90CA8FFF7D1FEDDE90DB041
:100E10000C995D46002610B909F101000D18B9EBD7
:100E2000050003D4C0F1FF3609F10105A5EB090067
:100E30002BE0B9F1010F01DA4FF001090020B9F1FF
:100E4000110F0090484601DD112300E003460AAA75
:100E500001A90CA8FFF7ABFEDDE90C704D4600269A
:100E60008346207800070AD4AB4500DA5D4601A826
:100E7000012D04DD411911F8011C302907D04F451F
:100E800002DA17F1040F04DA012082460FE06D1E2A
:100E9000EEE7002F02DCED1B3E4403E0781CA84285
:100EA00000DD7D1CB81B00F1010A4FF000472078DF
:100EB000000703D4AA4501DB4FF0FF3A0021B7F148
:100EC000004F0DF143088DF8431024D002202B234E
:100ED000002F01DA7F422D230A21021EA0F101001A
:100EE00000DC5FB197FBF1FC97FBF1F201FB1C7C8E
:100EF00017460CF1300C08F801CDEEE7A8F101001F
:100F000003702188090501D5452100E06521A0F184
:100F1000010800F8011C09980FA9A1EB0807FF1DA3
:100F200000B10120411901EBEA70A1693844081AA7
:100F3000401EA0612078C00602D42046FFF7E5FAE3
:100F4000099828B1D4E901219047206A401C206209
:100F50002078C00622D52046FFF7D7FA1EE0002EE3
:100F600004DBB34502DD01A8805D00E03020D4E958
:100F700001219047206A401C2062761CAAF10100E2
:100F80005FEA000A0AD100F019FAC0680168405C03
:100F9000D4E901219047206A401C2062281EA5F157
:100FA0000105DCDC07E0D4E9012118F8010B9047CA
:100FB000206A401C2062381EA7F10107F3DC20469E
:100FC000FFF7B9FA032011B041E600002DE9F04F18
:100FD00004460D46D21D22F0070089B0D0E90097E3
:100FE0004846394603F03BFA0246F80F01D02D235C
:100FF00007E02068810701D52B2302E0202101EAC8
:10100000C0038DF820300BB1012000E00020032A3E
:10101000824601D0072A04DB2946204600F0D2F997
:101020003FE12078800601D40D2500E0E569C7F393
:101030000A560D2D49DA00214FEA175B08464FF09A
:101040000000002F00F4400007DA00EB80004FF4AE
:10105000400100EBD07001EA60008115012901DD3B
:101060004FF0FF3100224FEA850CBCF1180F06D378
:101070001346ACF118004FF08052C24003E04FF429
:10108000801323FA0CF30CF10C0CBCF1200F04D3E9
:10109000ACF1200C09FA0CF001E007FA0CF0002981
:1010A0004FF0004801DD18B90FE00ED140450CD3D8
:1010B00019EB02095F4121B9404502D19F4329EA5A
:1010C0000209BBEB175F00D0761C2088000502D513
:1010D0007B48784402E07A487844193808AA3023DB
:1010E00002F80A30037C0AF10101002E0AF1020A1B
:1010F00053546A4602DC4FF0300101E04FF03101F9
:101100004FF001088DF8001002D0A6F2FF3603E080
:1011100059EA470100D06B4E002D02DC2178090707
:1011200004D54FF002082E218DF80110C44600218D
:101130000BE0C7F303433F01C35C491C6D1E02F87B
:101140000830052908F1010801DA002DF1DC002141
:101150000CE000EB1973491C1B786D1E082902F87E
:1011600008304FEA091908F1010801DA002DF0DC16
:1011700021688B0602D516E0A8F10108E04505DDDF
:1011800002EB080313F8013C302BF5D0B8F1000F47
:1011900009DD02EB080313F8013C2E2B03D10907EC
:1011A00001D4A8F10108002D05DD3E2102F8081048
:1011B0006D1E08F10108407C002E02F8080008F1BD
:1011C000010804DA2D20764202F8080002E02B2004
:1011D00002F808000A214FF47A70864208F10108EB
:1011E0000BDB96FBF0F3303302F8083096FBF0F39C
:1011F00008F1010800FB136601E0642E0CDB64209B
:1012000096FBF0F3303302F8083096FBF0F308F168
:10121000010800FB136601E00A2E06DB96FBF1F0E5
:10122000303002F8080008F1010896FBF1F001FBEC
:101230001060303002F80800A16908F1010808EBDD
:10124000050202EB0A00081AA0612078C00602D449
:101250002046FFF75AF9216A08AE01EB0A00206226
:1012600004E0D4E9012116F8010B9047BAF1010A14
:10127000F7D22078C00602D52046FFF746F96E4621
:1012800009E016F8010B3E280FD0D4E90121904760
:10129000206A401C2062B8F10108F2D22046FFF714
:1012A0004AF909B00320BDE8F08F206A2844206283
:1012B00003E0D4E90121302090476D1EEBD3F8E71D
:1012C0005E36000002FCFFFF10B5436913B1AFF3B7
:1012D000008001E0FFF752F9012010BD127800F103
:1012E00024010A7000224A700122EDE711684FF0D4
:1012F000FF32E9E710B5436913B1AFF3008001E0B5
:10130000FFF7D4F9012010BD128800F12401828476
:101310000022C2840122EDE711684FF0FF32E9E7B5
:1013200070B516460C46054600F040F8036893F881
:101330000101012806D0FF2C0FD8185D68B10120EB
:101340002C7070BDD3F807013246214603F2071313
:1013500003442846BDE8704018474FF0FF3070BD89
:10136000754600F0EBF8AE4605006946534620F09E
:101370000700854618B020B5FEF7E2FFBDE8204023
:101380004FF000064FF000074FF000084FF0000B41
:1013900021F00701AC46ACE8C009ACE8C009ACE8F4
:1013A000C009ACE8C0098D467047000010B500F0D8
:1013B00005F8001D10BD00BFBD310000004870479A
:1013C000880100202DE9F0411F46044603260168EC
:1013D000072A01F4006004DB08B116A505E016A594
:1013E00003E008B115A500E015A521F0100020606C
:1013F000A069C01EA0610FB1401EA0612046FFF78A
:1014000084F84FB1D4E9012138469047206A401C46
:101410002062C01C206206E0206AFAE7D4E90121BC
:1014200015F8010B9047761EF8D22046FFF783F897
:10143000BDE8F0814E414E006E616E00494E46009F
:10144000696E66002DE9F047814616468AB0354838
:1014500078440DC88DE80D0032487844801C03ACF8
:101460000DC884E80D0041F69B300844372190FBFD
:10147000F1F290FBF1F5A5F1800501FB12041B3C94
:1014800002D56442012000E00020DFF898A08046E9
:101490000027FA44AAF1BE0A0EE0E0070AD032465D
:1014A000684607EB470101230AEB810100F022FBAC
:1014B0008DE8070064107F1C002CEED1194F7F448B
:1014C000AE3F19E0E80715D007EB04100DF1180A3C
:1014D00090E80E008AE80E00C068F04201D1981929
:1014E00008903246012306A903A800F003FB03ABD2
:1014F00083E807006D10641C002DE3D14FF0010359
:1015000032466946B8F1000F03A802D000F0DDFAB8
:1015100001E000F0EFFAC9E90001C9F808200AB0BB
:10152000BDE8F0877033000010B50446AFF30080CB
:101530002046BDE81040FEF7EEBE000000487047B0
:10154000680100204FF0013C50F8042B51F8043B97
:101550009A4221D1A2EB0C03934313EACC1317D187
:1015600050F8042B51F8043B9A4215D1A2EB0C031E
:10157000934313EACC130BD150F8042B51F8043BDE
:101580009A4209D1A2EB0C03934313EACC13DBD0AC
:101590004FF00000704700BFD01A01BAB1FA81F1D4
:1015A00001F0180122FA01F0CB40C1F12001DBB2B9
:1015B000C0B2C01A2CFA01F3D11A914311EAC31137
:1015C000E6D1704701491820ABBEFEE726000200B5
:1015D00070475FEA400C08BF91F0000F4FEA8C2380
:1015E0004FEAC12243EA51514FEA1C5018BF00F59F
:1015F000F0404FEA300018BF41F000415FEA6C5CF8
:1016000000F02980BCF1FF3F08BF40F080407047E8
:10161000130C06BF12044FF0100C4FF0000C130E09
:1016200004BF12020CF1080C130F04BF12010CF1DD
:10163000040C930F04BF92000CF1020CD30F04BFF3
:1016400052000CF1010C11464FF00002A0F11F00F6
:10165000A0EB0C00704711F0004F08BF704731F04D
:1016600000413FF4D5AF0B0C06BF09044FF0100C3E
:101670004FF0000C0B0E04BF09020CF1080C0B0F0D
:1016800004BF09010CF1040C8B0F04BF89000CF19D
:10169000020CCB0F04BF49000CF1010CCCF120036C
:1016A000A0EB0C0022FA03F302FA0CF241EA030168
:1016B00000F10100704720F07F4C80EA030023F026
:1016C0007F47ACEB070303F57C5300F0004003F1C8
:1016D000FF032DE980494FEA154B09B44FEA144343
:1016E00025EA0B4E24EA03480FF2042606EB1327E3
:1016F00049083E785FEA320203FB0667C7F5000738
:1017000007FB06F64FEA54374FEAD64606F10206C3
:1017100007FB066CCCF1005C4FEA1C472CEA074C37
:1017200007FB06F40CFB06F504EB15464FEA96168C
:1017300034BF00204FF000404FEAD13706FB07FCD2
:101740004FEA1C4C0CFB0BF7D21B03FB0CF761EBB5
:1017500007010CFB0EF7B0EB074072EB17420CFBD6
:1017600008F734BFA2EB0742B2EB074261EB174127
:101770004FEA0C444FEA910706FB07FC4FEA1C4C6A
:101780000CFB0BF7B0EBC74072EB573203FB0CF7C7
:1017900034BFA2EBC742B2EBC74261EB57310CFB3F
:1017A0000EF7B0EBC70072EB57720CFB08F734BFB3
:1017B000A2EBC702B2EBC70261EB5771039F4FEA7E
:1017C000816141EA921104EBCC044FEAD1374FEA30
:1017D000826206FB07FC42EA90124FEA80604FEA01
:1017E0001C4C0CFB0BF7D21B03FB0CF761EB070146
:1017F0000CFB0EF7B0EB074072EB17420CFB08F73F
:1018000034BFA2EB0742B2EB074261EB17414FEA4C
:101810008C554FEA910704EB9C2406FB07FC4FEA2A
:101820001C4C0CFB0BF7B0EBC74072EB573203FBC1
:101830000CF734BFA2EBC742B2EBC74261EB5731A2
:101840000CFB0EF7B0EBC70072EB57720CFB08F7FE
:1018500034BFA2EBC702B2EBC70261EB577115EBC5
:101860004C254FEA816141EA92114FEA82624FEAC8
:10187000D13742EA901206FB07FC44F100044FEA1C
:1018800080604FEA1C4C0CFB0BF7D21B03FB0CF7E0
:1018900061EB07010CFB0EF7B0EB074072EB174250
:1018A0000CFB08F734BFA2EB0742B2EB074261EB37
:1018B000174115EB1C154FEA813141EA92414FEA7D
:1018C000823242EA90424FEA80304FEA0C7644F18D
:1018D000000448EA03434EEA0B484FF0000EB2EB17
:1018E000080C71EB030724BF624639464EEB0E0E1F
:1018F0004FF0000B0018524149414BEB0B0BB2EB80
:10190000080C71EB03077BF1000B24BF62463946DC
:101910004EEB0E0E4FF0000B0018524149414BEBBD
:101920000B0BB2EB080C71EB03077BF1000B24BF30
:10193000624639464EEB0E0E51EA020718BF46F0DA
:10194000010616EB0E7655F1000254F1000103D5A5
:10195000BDE88901BDE80088BDE88901BDE800480F
:10196000B619524141EB0101A3F101037047808098
:101970007F7E7D7C7B7A79787776767574737271E9
:1019800071706F6E6E6D6C6C6B6A6A6968686766A1
:1019900066656464636362616160605F5F5E5E5D33
:1019A0005D5C5C5B5B5A5A595958585757565655A7
:1019B00055555454535352525251515050504F4F09
:1019C0004F4E4E4D4D4D4C4C4C4B4B4B4A4A4A4959
:1019D000494948484847474747464646454545449C
:1019E0004444444343434342424242414141002B29
:1019F0009C4630D477002BD01CB54FEA370703B490
:101A00004FF010004FF01001BAF1000F06D0BCF1FA
:101A1000000FDCBF40F0080040F008014FF000006C
:101A20000FBCBDE810400BF1010BBBF1010F08BF6B
:101A30005FEA170722BF12F1010211F101014FF015
:101A4000004143F1000300F0004043EA000070470A
:101A5000F9D35708D0E746EA064613F1400F4FEA9C
:101A600016461FDD13F1200FDFBF16430A46002183
:101A700020335B42BED0C3F1200746EA064602FA95
:101A800007F74FEA164646EA0706C3F1200722FA8F
:101A900003F201FA07F721FA03F14FF0000342EADB
:101AA0000702A7E746EA020646EA06464FEA164656
:101AB00046EA0106BCBF46EA0646360C4FF0000374
:101AC0004FF000024FF0000194E72DE9804C9A4658
:101AD000934670B491E8380007C831EA400C48BF1B
:101AE00034EA430C03D5FFF7E6FDFFF780FFF0BCB7
:101AF000BDE8008C2DE9804C9A46934670B491E87D
:101B0000380007C810F0804F08BF13F0804F03D192
:101B100000F005F8FFF76BFFF0BCBDE8008C20F08B
:101B20007F4780EA030023F07F4C07EB0C03A3F50B
:101B30007C5300F00040A3F1FE0392F0000F00F090
:101B4000B38095F0000F00F077802DE901494FEA4E
:101B500011404FEA144621EA004800FB06FC24EA43
:101B6000064708FB06F607FB08F800FB07F718EB2B
:101B700006484CEB164C4FEA124B18EB07484FEA5D
:101B800015464CEB174022EA0B4E0BFB06FC25EAF0
:101B900006470EFB06F607FB0EFE0BFB07F71EEBD8
:101BA000064E4CEB164C4FF000061EEB074E4CEB6E
:101BB000174B18EB0B0840F1000018EB0E0B58EB1D
:101BC000000840F100008F1A4FF000013CBFC943EC
:101BD000661B14BFB5EB040C00213CBFC943F61BC8
:101BE0004FEA17444EEA8E0E27EA04454FEA1C4797
:101BF00004FB07622CEA074C05FB07F70CFB05F614
:101C000004FB0CFC16EB074642EB174216EB0C46A6
:101C100042EB1C421BEB060658EB0202414146EA2E
:101C20009E0601D5BDE80189B619524141EB01017B
:101C3000A3F10103BDE801894FEA14454FEA1147BA
:101C400024EA054621EA074C05FB07F406FB07F7E3
:101C50000CFB06F105FB0CFC11EB074144EB1744B0
:101C60004FEA124711EB0C4144EB1C4422EA074CAB
:101C700005FB07F206FB07F70CFB06F605FB0CFC61
:101C800016EB074642EB174216EB0C4642EB1C459F
:101C90006A1854F1000148BF7047B619524141EB30
:101CA0000101A3F10103704795F0000F37D04FEA0F
:101CB00011424FEA144721EA024624EA074C02FB8C
:101CC00007F106FB07F70CFB06F402FB0CFC14EB18
:101CD000074441EB17414FEA154714EB0C4441EB25
:101CE0001C4125EA074C02FB07F506FB07F70CFB36
:101CF00006F602FB0CFC16EB074645EB174516EB08
:101D00000C4645EB1C42121951F1000148BF7047C7
:101D1000B619524141EB0101A3F1010370474FEAAB
:101D200014454FEA114724EA054621EA074C05FB12
:101D300007F106FB07F70CFB06F24FF0000605FB68
:101D40000CFC12EB074241EB174112EB0C4251EB3A
:101D50001C4148BF7047921841EB0101A3F10103F8
:101D60007047FEE7014800F0C8B8000008010020F5
:101D70000D4902688A4201D20C4901E00B49203129
:101D8000D2B21423083AB2FBF3F2436C02F01F0202
:101D900023F003031944816404498031C1640121A3
:101DA00091400165704700000804024000080240AD
:101DB0000179074A02EB81024265054A4432491E15
:101DC000826501F01F0201219140C165704700004A
:101DD000FC08024030B5D0E913456560446D14B18C
:101DE000D0E91645656090F8444004F01F050124D1
:101DF000AC40056C6C60046863608368102B0368FA
:101E000003D099600068C26030BD9A600068C1600C
:101E100030BD704772B6FEE710B590F8253000214E
:101E20000122022B03D00421C163012122E00368B7
:101E30001C6824F00E041C60836C1C6824F48074FD
:101E40001C6003681C6824F001041C6090F8443096
:101E5000046C03F01F0302FA03F36360D0E9133448
:101E60005C60436D33B11C6824F480741C60D0E95D
:101E700016345C6080F82520002280F82420084673
:101E800010BD70B590F82520002401212346022AB8
:101E900007D00422C26380F8251080F82430012482
:101EA00029E00268156825F00E05156002681568BE
:101EB00025F001051560826C156825F480751560A4
:101EC00090F84420056C02F01F0201FA02F26A60E9
:101ED000D0E913255560426D32B1156825F480753F
:101EE0001560D0E91625556080F8251080F824305B
:101EF000816B01B18847204670BDF0B4016C0C685D
:101F000001680D6890F8442002F01F06042202FACE
:101F100006F3234211D06B070FD50B689B0603D441
:101F20000B6823F004030B6090F8441001F01F01CC
:101F30008A40016C4A60016B1DE0022303FA06F738
:101F400027424FF0000C4FF0010218D0AF0716D512
:101F50000C68A40605D40C6824F00A040C6080F810
:101F6000252090F8441001F01F018B40016C4B605C
:101F700080F824C0C16A00291AD0F0BC08470823A1
:101F8000B340234214D02B0712D50B6823F00E0365
:101F90000B6090F84410036C01F01F0102FA01F18C
:101FA0005960C26380F8252080F824C0416BE2E7C5
:101FB000F0BC704770B504000CD02B4A2168142087
:101FC000914209D2294A0A44B2FBF0F080006064D1
:101FD00027480AE0012070BD234A52420A44B2FB5E
:101FE000F0F080006064204808382064022084F803
:101FF00025000A6847F6F0708243D4E902031843CB
:10200000D4E904352B431843A3691843E369184303
:10201000236A1843104308602046FFF7A9FEA06812
:102020000025B0F5804F00D16560A16C2079086073
:10203000D4E9130141606068401E032808D8204697
:10204000FFF7B6FE606D0560D4E91601416002E05D
:102050006565A565E565E563012084F8250084F8DC
:102060002450002070BD000008040240F8FFFDBFAE
:102070000000024070B5044690F8240000250128B5
:102080000CD0012084F8240094F825600020012E53
:1020900006D084F824000225284670BD022070BDB9
:1020A000022684F82560E0632068066826F00106B1
:1020B00006602046FFF78EFE206B0028206801682E
:1020C00002D041F00E0106E021F004010160206819
:1020D000016841F00A010160A06C0168C90303D5E1
:1020E000016841F480710160606D18B1016841F4CC
:1020F000807101602068016841F001010160CBE757
:102100002DE9F04FDFF82092002301260324A9F1E6
:10211000040B85B00F2709F1040AABF1040EFAE0B5
:1021200006FA03F52A407CD091F804C00CF0030CA9
:10213000BCF1010F02D0BCF1020F26D1D0F808C0CB
:10214000CDF800C04FEA430C04FA0CF8CDF810C0EB
:10215000DDF800C02CEA080CCDF800C0D1F80C80E6
:10216000DDF810C008FA0CF8DDF800C048EA0C08E9
:10217000C0F80880D0F804C02CEA050C0D79C5F32E
:1021800000159D4045EA0C0545600D79ED43AD070E
:102190000ED0C5684FEA430804FA08FC25EA0C058E
:1021A000D1F808C00CFA08FC4CEA050CC0F80CC0C9
:1021B0000D7905F00305022D16D1DD0800EB850C25
:1021C000CDF808C0DCF820805D074FEAD56C07FA2F
:1021D0000CF528EA05080D6905FA0CF5DDF808C0CC
:1021E00045EA0805CCF8205005684FEA430CCDF8C5
:1021F00008C004FA0CFC25EA0C0591F804C00CF0A8
:102200000308DDF808C008FA0CF848EA0508C0F829
:1022100000804D6815F4403F7CD0444DD5F860C037
:1022200000E077E04CF0010CC5F860C02D6E23F0A3
:10223000030C05F0010500953D4D65440295AD6820
:102240004FEA837C4FEA1C7807FA08FC25EA0C0564
:10225000B0F1904F06D0DFF8DCC0604505D14FF0FB
:10226000010C20E04FF0000C1DE0DFF8CCC0604511
:1022700002D14FF0020C16E0DFF8C0C0604502D179
:102280004FF0030C0FE0DFF8B8C0604502D14FF00B
:10229000040C08E0DFF8ACC0604502D14FF0050C3B
:1022A00001E04FF0060C0CFA08FC4CEA050C029D0C
:1022B000C5F808C0D9F80050CC46D1F80480954341
:1022C0005FEAC82800D51543CCF80050DAF8005072
:1022D000D446D1F8048095435FEA882800D5154399
:1022E000CCF80050DBF80050DC46D1F80480954370
:1022F0005FEA883800D51543CCF80050DEF800506E
:10230000F446D1F8048095435FEAC83800D51543F8
:10231000CCF800505B1C0A6832FA03F57FF400AF7A
:1023200005B0BDE8F08F0000080401400010024035
:10233000000001400004004800080048000C00486C
:1023400000100048001400480AB1816170478162A2
:1023500070470000014880687047000000000020BE
:102360000248816842681144816070470000002083
:1023700010B50024032000F073F80F2000F008F8D7
:1023800008B1012401E000F025F8204610BD00004E
:1023900070B50E4E05460024706898B14FF47A71FE
:1023A000B1FBF0F00A490968B1FBF0F000F0FDFF65
:1023B00040B9102D06D200222946501E00F030F8F8
:1023C000356000E00124204670BD000000000020C0
:1023D0000C0000200A4882B0016E41F00101016644
:1023E000016E01F001010091816D41F08051816524
:1023F000806D00F08050009002B000F0A1B80000A5
:1024000000100240002809DB00F01F02012191406A
:102410004009800000F1E020C0F800117047000082
:10242000F0B40E4B1B680C46C3F30223C3F107053F
:10243000042D00D90425191D072901D2002300E02D
:10244000DB1E012606FA05F1491E214099409E40F7
:10245000761E16403143F0BC02F019B80CED00E0D6
:10246000064900F0070208684FF6FF03184040EAEB
:102470000220034A10430860704700000CED00E0A2
:102480000000FA052B492C4B0A6832214A432B499C
:1024900040B1B0F5007F086829D020F4C06040F456
:1024A00080602CE00868C0F34120022804D051F875
:1024B000800F20F4807022E0D1F8800020F480703A
:1024C000C1F88000086820F4C06040F40070086023
:1024D000B2FBF3F0401C00E0401E4A69520501D5F2
:1024E0000028F9D1486940050AD503207047C0F398
:1024F0004120022806D051F8800F40F48070086017
:1025000000207047D1F8800040F48070C1F880004E
:10251000086820F4C06040F400700860B2FBF3F07B
:10252000401C00E0401E4A695205DBD50028F9D165
:10253000D8E700000C00002040420F00007000406F
:102540000248816841F4804181607047007000401A
:102550002DE9F8430446006800269D4D00035ED532
:10256000A86D0027C00008D4A86D40F08050A86571
:10257000A86D012700F080500090DFF85892D9F83C
:10258000001041F48071C9F80010FFF7E3FE8046A7
:1025900006E000BFFFF7DEFEA0EB080002282BD804
:1025A000D9F80000C005F5D5D5F8900010F44070BA
:1025B00014D0216C814211D0D5F89000D5F890103C
:1025C00020F4407041F48031C5F89010D5F8901097
:1025D00021F48031C5F89010C5F89000C00711D0E3
:1025E000FFF7B8FE804641F2883907E0FFF7B2FEF8
:1025F000A0EB0801494501D903260BE0D5F890006E
:102600008007F3D5D5F89000216C20F44070084382
:10261000C5F890001FB1A86D20F08050A865207803
:10262000C00707D0D5F88800616820F00300084390
:10263000C5F888002078800707D5D5F88800A168FC
:1026400020F00C000843C5F888002078400707D523
:10265000D5F88800E16820F030000843C5F888000C
:102660002078000707D5D5F88800216920F0C00040
:102670000843C5F888002078800607D5D5F888007B
:10268000616920F440600843C5F88800207840065E
:1026900007D5D5F88800A16920F440500843C5F853
:1026A00088002078000607D5D5F88800E16920F475
:1026B00040400843C5F888002088C00507D5D5F8F4
:1026C0008800216A20F440300843C5F8880020883B
:1026D000800507D5D5F88800616A20F440200843BA
:1026E000C5F88800208840050FD5D5F88800A16A74
:1026F00020F440100843C5F88800A06AB0F5801F98
:1027000003D1E86840F48010E860208800050FD508
:10271000D5F88800E16A20F440000843C5F8880035
:10272000E06AB0F5800F03D1E86840F48010E860FB
:102730002088C0040FD5D5F88800216B20F04070A8
:102740000843C5F88800206BB0F1807F03D1E868AA
:1027500040F48010E86020884FF0006180040ED5BE
:10276000D5F88800626B20F040601043C5F88800FF
:10277000606B884203D1E86840F48010E8602088EC
:1027800040040ED5D5F88800A26B20F040601043BD
:10279000C5F88800A06B884203D1E86840F4801037
:1027A000E860208800040FD5D5F88800E16B20F0A0
:1027B00040500843C5F88800E06BB0F1805F03D15A
:1027C000E86840F48030E8603046BDE8F8830000F7
:1027D00000100240007000402DE9F0470E46050051
:1027E0004FF0000725D0DFF8AC81D8F8000000F0EA
:1027F0000F00B0420CD2D8F8001021F00F01314385
:10280000C8F80010D8F8000000F00F00B04210D156
:102810002968614CC80741F2883A5AD06868DFF8E5
:102820007C91032808D0022820682DD0400500287C
:102830002CDB0120BDE8F08720688001F9D5E06835
:1028400000F00302E068C0F30310401C032A19D013
:10285000534A00BFB2FBF0F0E268C2F306225043D5
:10286000E268C2F34162521C5200B0FBF2F04845EC
:1028700017D9A06810F0F00F0CD0880711D5A86800
:1028800040B10EE0474AE5E78003D0E700F0B6F834
:10289000484506D9A06820F0F00040F08000A06014
:1028A0008027A068696820F003000843A060FFF754
:1028B00051FD814606E000BFFFF74CFDA0EB09018A
:1028C00051453AD8A068696800F00C00B0EB810F60
:1028D000F2D12868810714D5400703D5A06840F4D9
:1028E000E060A0602878000705D5A06820F460505B
:1028F00040F4E060A060A068A96820F0F000084300
:1029000004E0802F03D1A06820F0F000A060D8F888
:102910000010404601F00F01B14216D9016821F0C4
:102920000F0131430160FFF715FD074607E000BFC7
:10293000FFF710FDC11B514501D903207AE7D8F8F4
:10294000000000F00F00B042F2D12878400705D512
:10295000A068E96820F4E0600843A06028780007D8
:1029600006D5A068296920F4605040EAC100A06043
:1029700000F044F8A1680C4AC1F30311515C01F066
:102980001F01C8400949086009480068BDE8F047D0
:10299000FFF7FEBC002002400010024000B4C40457
:1029A0000024F40000366E01C84600080C00002028
:1029B000000000200548064900688968054AC1F3FF
:1029C0000221515C01F01F01C84070470C0000203B
:1029D00000100240D846000805480649006889688A
:1029E000054AC1F3C221515C01F01F01C840704784
:1029F0000C00002000100240D8460008184910B50D
:102A00008868C0F381021748012A0BD08A68164BE8
:102A1000C2F38102022A06D08A68C2F38102032A25
:102A200003D0002010BD184610BDCA6802F0030490
:102A3000CA68C2F30312521C032C02D0B0FBF2F09E
:102A400001E0B3FBF2F0CA68C968C2F30622504342
:102A5000C1F34161491C4900B0FBF1F010BD000019
:102A6000001002400024F40000366E012DE9F84306
:102A700004007AD02078F84DC00747D0A868E968EC
:102A800000F00C0001F003010C2802D0082817D038
:102A900001E0032914D06068B0F5803F17D0B0F58D
:102AA000A02F286817D020F480302860286820F4F0
:102AB000802028606068E0B1FFF74CFC064614E017
:102AC0002868800322D560680028D2D01EE02868DC
:102AD00040F48030EDE740F480202860F7E700BF45
:102AE000FFF738FC801B642870D828688003F7D56E
:102AF0000CE0FFF72FFC064605E000BFFFF72AFCBD
:102B0000801B6428F0D828688003F7D420788007D9
:102B10004CD5A868E96800F00C0001F003010C280E
:102B200002D004280DD001E002290AD0E068002874
:102B300028682BD040F480702860FFF70BFC064615
:102B400019E02868400502D5E068002891D068683F
:102B5000217C20F0FE4040EA01606860BF480068C8
:102B6000FFF716FC002800D120E072E1FFF7F2FB2E
:102B7000801B0228B8D828684005F7D56868217CF2
:102B800020F0FE4040EA016068600FE020F48070B1
:102B90002860FFF7DFFB064605E000BFFFF7DAFB22
:102BA000801B0228A0D828684005F7D420780007A9
:102BB00029D560690028D5F8940013D040F00100B1
:102BC000C5F89400FFF7C6FB064606E090E000BF9C
:102BD000FFF7C0FB801B022886D8D5F89400800739
:102BE000F6D510E020F00100C5F89400FFF7B2FB25
:102BF000064604E0FFF7AEFB801B022878D8D5F824
:102C000094008007F6D42078400761D5A86D00268F
:102C1000C00008D4A86D40F08050A865A86D0126BA
:102C200000F0805000908E480168C90511D40168F9
:102C3000804641F480710160FFF78CFB074604E099
:102C4000FFF788FBC01B022852D8D8F80000C00547
:102C5000F6D5A068012815D00528D5F8900016D023
:102C600020F00100C5F89000D5F8900020F0040095
:102C7000C5F89000A06841F28838B8B1FFF76AFB48
:102C800007460EE0D5F8900040F00100F0E740F074
:102C90000400C5F89000F5E7FFF75CFBC11B414558
:102CA00026D8D5F890008007F6D50CE0FFF752FB48
:102CB000074604E0FFF74EFBC11B414518D8D5F885
:102CC00090008007F6D41EB1A86D20F08050A86552
:102CD0002078800629D5A0690028D5F8980013D05F
:102CE00040F00100C5F89800FFF734FB064606E007
:102CF00075E000BFFFF72EFB801B02286FD8D5F8C8
:102D000098008007F6D510E020F00100C5F8980083
:102D1000FFF720FB064604E0FFF71CFB801B0228A0
:102D20005DD8D5F898008007F6D4E069F0B3A968BB
:102D3000C1F3810103295DD00228286820F080704A
:102D4000286003D0FFF706FB04464BE0FFF702FBC9
:102D5000064604E0FFF7FEFA801B02283FD82868E9
:102D60008001F7D4F4E908016FF00F0202EB0111C2
:102D70000843218A5204490802EB4151A26841EA02
:102D800002210843217D4FF07E42490802EB416158
:102D90000843217B40EAC160E968324A1140084398
:102DA000E860286840F08070286000E05EE0E86835
:102DB00040F08070E860FFF7CDFA044605E000BF00
:102DC000FFF7C8FA001B022809D828688001F7D548
:102DD0004CE000BFFFF7BEFA001B022802D9032017
:102DE000BDE8F88328688001F4D4E8681E490840EB
:102DF000E8603BE00128F3D0E868226A00F00301B4
:102E0000914226D1616A00F0F00209011039914225
:102E10001FD1A26A00F4FE41B1EB022F19D194F840
:102E20002C2000F07841B1EBC26F12D1218E00F45A
:102E3000C00249084905A1F50011914209D194F851
:102E4000341000F0C06049084906A1F100718142C8
:102E50000CD00120C4E70000001002400000002058
:102E6000007000400C809F01FCFFEEFE0020B7E7E1
:102E700070B5040009D0606A002540B12561656124
:102E8000A56294F85D0040B10CE0012070BD60685F
:102E9000B0F5827FF4D0E561F2E784F85C5020461B
:102EA00000F05CF8022084F85D002068016821F0E1
:102EB00040010160E1684FF4E062914201D90020D5
:102EC00001E04FF48050B1F5706F02D0914200D014
:102ED000A562A188228901F4827102F4044211439F
:102EE000227C02F002021143227D02F00102114312
:102EF000228B02F400721143227F02F03802114348
:102F000094F8202002F080021143228D02F4005236
:102F1000114322681160A169042202EA114194F868
:102F2000242000F4805002F01002114394F8342061
:102F300002F008021143A28902F4706211430143B6
:102F4000206841602068C16921F40061C161256683
:102F5000012084F85D00002070BD000010B586B02F
:102F6000044614216846FDF7A6FA124920688842F3
:102F70001DD11148016E41F480510166016E01F4CA
:102F800080510591C16C41F00201C164C06C694679
:102F900000F002000590182000900220019000200F
:102FA00002900390052004900448FFF7A9F806B0AA
:102FB00010BD000000300140001002400004004835
:102FC0002DE9F84F044690F85D00984616460F46E6
:102FD0000025012801D00225ACE060684FF0040B09
:102FE000B0F5827F01D1A06830B394F85C0001286D
:102FF0002DD04FF0010984F85C90FFF7ABF98246C1
:10300000002F77D0002E75D084F85DB000202066A8
:103010002764A4F84460A4F84660A063A087E08712
:10302000E0642065E0684FF4E0618842206842680F
:103030000FD922F480520EE084F85DB013460A46A0
:103040002046CDF8008000F07AF8BDE8F88F022025
:10305000FBE742F480524260A068B0F5004F09D10E
:103060002068026822F0400202602068026822F4B0
:103070008042026020680268520603D4026842F06F
:1030800040020260E06888421DD941E02068816802
:10309000C9070BD0007B216C0870206C401C206499
:1030A000B4F84600401EA4F846000CE0FFF752F9C1
:1030B000A0EB0A01414503D3B8F1FF3F03D007E07D
:1030C000B8F1000F04D0B4F846000028DED123E0A8
:1030D00003252DE020688168C9070CD0C068216CE9
:1030E0000880206C801C2064B4F84600401EA4F8C0
:1030F00046000DE01AE0FFF72DF9A0EB0A0141456B
:1031000003D3B8F1FF3F03D0E2E7B8F1000FDFD0FF
:10311000B4F846000028DDD152464146204600F072
:1031200034FD08B120202066206E08B1012501E0A1
:1031300084F85D90002084F85C00284685E72DE93E
:10314000FF5F044690F85C0000260E9F1D469346E4
:103150004FF0010901280FD04FF0010A84F85CA05C
:10316000FFF7F8F8804694F85D00616801280DD0FB
:10317000B1F5827F08D103E0022004B0BDE8F09FE2
:10318000A16809B9042801D0022609E101980028A4
:1031900076D0BBF1000FFBD0002DF9D094F85D0084
:1031A000042802D0052084F85D0000202066C4F8C1
:1031B00040B0A4F84650A4F844500199A163E587B3
:1031C000A587E0642065E0684FF4E061884201D89B
:1031D000012D04D92068426822F4805203E020685F
:1031E000426842F48052426020680268520603D46A
:1031F000026842F040020260E0688842606848D994
:1032000008B1012D3DD1A06B21680088C860A06B7A
:10321000801CA063E08F401EE08732E02068816858
:1032200089070FD5E18F69B1B9F1010F0AD1A16BFF
:103230000988C160A06B801CA063E08F401EE087FE
:103240004FF0000920688168C9070FD0B4F8461014
:1032500061B1C068216C0880206C801C2064B4F8C7
:103260004600401EA4F846004FF00109FFF772F82F
:10327000A0EB0800B84204D3781C02D003268DE0EE
:103280008AE0E08F0028C9D1B4F846000028C5D1F3
:1032900077E008B1012D6DD1E08F0128A06B08D92E
:1032A00021680088C860A06B801CA063E08F801E2E
:1032B00007E0216800780873A06B401CA063E08FD2
:1032C000401EE08756E02068816889071AD5E18FA3
:1032D000C1B1B9F1010F15D1E18F0129A16B07D956
:1032E0000988C160A06B801CA063E08F801E06E08F
:1032F00009780173A06B401CA063E08F401EE0873B
:103300004FF0000920688168C90728D0B4F846103A
:1033100029B3B4F84610012914D9C068216C08807B
:10332000206C801C2064B4F84600801EA4F846007F
:10333000B4F84600012810D82068416841F4805153
:1033400041600AE0007B216C0870206C401C206406
:10335000B4F84600401EA4F846004FF00109FEF7FD
:10336000F9FFA0EB0800B84202D3781C02D085E731
:10337000002F83D0E08F0028A5D1B4F846000028A4
:10338000A1D142463946204600F039FC10B1012651
:1033900020202066206E08B1012601E084F85DA09F
:1033A000002084F85C003046E7E610B5401EB0F11E
:1033B000807F01D3012010BD4FF0E02460610F2118
:1033C000601701F064F80020A06107202061002050
:1033D00010BD90F88410012918D0012180F88410C4
:1033E0002421C0F8881001680A680B6823F00103E3
:1033F0000B6022F000510022426603681960202110
:10340000C0F8881080F8842010467047022070476A
:103410007047704770B5044690F8840001281DD0AD
:10342000012084F884002420C4F8880020680568FE
:10343000026822F0010202602068826822F0606265
:103440000A438260204600F009FD206805602020C4
:10345000C4F88800002084F8840070BD022070BD8C
:1034600070B5044690F8840001281DD0012084F82E
:1034700084002420C4F8880020680568026822F0CF
:10348000010202602068826822F060420A43826082
:10349000204600F0E3FC206805602020C4F8880086
:1034A000002084F8840070BD022070BD7047704712
:1034B0007047014651F8880F49680843704700007B
:1034C0002DE9F04103680446D86919689A6840F606
:1034D0000F0528424FF000054FF002060AD187067B
:1034E0007ED501F0200702F0805C57EA0C0777D008
:1034F000616F3AE1B24FDFF8CCC2174001EA0C0C21
:1035000057EA0C0C6CD05FEAC07C0CD05FEAC15C5F
:1035100009D54FF0010CC3F820C0D4F8903043F027
:103520000103C4F89030830709D5D30707D0236877
:103530001E62D4F8903043F00403C4F8903043077F
:103540000AD5D30708D0266804233362D4F8903014
:1035500043F00203C4F8903003070CD501F02003B8
:103560003B4308D0266808233362D4F8903043F0F8
:103570000803C4F8903003050BD54B0109D5266824
:103580004FF400633362D4F8903043F02003C4F862
:103590009030D4F89030002B3DD0800609D501F052
:1035A000200002F08051084303D0616F09B120462A
:1035B0008847D4F8900021688968490602D410F041
:1035C000280F2AD0204600F07DFD20688068400644
:1035D0001ED52068083050E8001F21F0400100E0AF
:1035E00021E040E80012002AF3D1D4F8800078B13D
:1035F00075498163D4F88000FEF743FC00280AD0A7
:10360000D4F88000816B00E02046BDE8F041084717
:103610002046FFF74DFFBDE8F0812046FFF748FF49
:10362000C4F89050F7E7D4F86CC02027BCF1010F24
:103630007ED15FEAC06C7BD55FEAC16C78D5102083
:10364000186220688068400645D5D4F88010086864
:1036500040680004000CDED0B4F85C208242DAD965
:10366000A4F85E000868006880062CD4216851E840
:10367000000F20F4807041E80002002AF6D1206893
:10368000083050E8001F21F0010140E80012002A34
:10369000F5D12068083050E8001F21F0400140E8D3
:1036A0000012002AF5D1C4F88C70E566206850E855
:1036B000001F21F0100140E80012002AF6D1D4F8D2
:1036C0008000FEF7A9FB2667B4F85C00B4F85E1032
:1036D000401A81B230E0B4F85C00B4F85E10401AD1
:1036E00081B2B4F85E00002895D0002993D02268FA
:1036F00052E8000F20F4907042E80003002BF6D14E
:103700002F4BDB432068083050E8002F1A4040E878
:10371000002CBCF1000FF5D1C4F88C70E56665672C
:10372000226852E8000F20F0100042E8000300E099
:1037300006E0002BF4D126672046FFF769FE6AE712
:10374000C60209D5560207D54FF4801018622046EC
:10375000BDE8F041FFF7ABBE03060AD501F08003D8
:1037600002F40002134304D0A16F00297FF44CAF90
:1037700051E7420611D54A060FD52046026852E8A5
:10378000001F21F0400142E80013002BF6D1C0F8E1
:103790008870856700F0F8F83DE7020206D54A0018
:1037A00004D52046BDE8F041FFF780BEC001C6D574
:1037B0000029C4DA2046BDE8F041FFF72ABE000028
:1037C00001000010200100041540000810B504009D
:1037D00003D0D4F8880010B107E0012010BD00200C
:1037E00084F88400204600F027F82420C4F88800DC
:1037F0002068016821F001010160A06A10B1204633
:1038000000F04EFB204600F09FFC0128E6D0206827
:10381000416821F4904141602068816821F02A01CB
:1038200081602068016841F0010101602046BDE827
:10383000104000F099BB000070B598B00646142106
:1038400011A8FCF738FE44216846FCF734FE2549F0
:103850003068884244D101200025CDE90005684642
:10386000FEF776FE08B1FEF7D5FA1F49086E40F460
:1038700080400866086E00F480401690C86C40F0E6
:103880000200C864C86C11A900F002001690C020A4
:1038900011900220CDE912050720CDE914501348FC
:1038A000FEF72EFC134C1248206019206060102097
:1038B000C4E902058020C4E90405A561E56120464C
:1038C0002562FEF777FB08B1FEF7A4FAF467002241
:1038D00011462520A662FEF7A3FD2520FEF792FDE6
:1038E00018B070BD003801400010024000040048CC
:1038F000080002400801002070B50446D0F8880096
:10390000202801D0022070BD39B332B32165A4F85C
:103910005420A4F856200021C4F890102120C4F8A7
:103920008800E06FD8B1154BC362E36F1448186389
:10393000E36F14485863E06F134681632068E56FB6
:1039400000F128022846216DFEF794FB38B11020C3
:10395000C4F890002020C4F88800012070BD2168C0
:10396000402008622068083050E8001F41F08001C4
:1039700040E80012002AF5D1002070BD794000080F
:10398000BB4000082940000870477047FEE7000070
:1039900038B5174D4FF40074002221462846FEF733
:1039A000D3FC4FF0FF33012269461248FFF708FBB2
:1039B00000284FF001022146284607D0FEF7C4FC3C
:1039C0000DA000F07BFD9FED130A38BDFEF7BCFC97
:1039D000BDF80000DFED100A800800EE100AB8EE16
:1039E000400A20EE200ADFED0D0A20EE200A38BD45
:1039F00000040048100000204D543637303120724A
:103A00006561642064617461206572726F72210D5A
:103A10000A0000000000000000008038DB0FC940F1
:103A20000D4808B5816C41F004018164816C01F09E
:103A300004010091816C41F001018164806C0022DD
:103A400000F00100009011460B20FEF7E9FCBDE8F4
:103A500008400B20FEF7D6BC0010024030B587B0FE
:103A600014216846FCF727FD1548C16C41F0200180
:103A7000C164C16C01F020010591C16C41F00101EC
:103A8000C164C16C01F001010591C16C41F00201FA
:103A9000C164C06C012200F002000A4D540205907E
:103AA00021462846FEF750FC012100200094CDE974
:103AB0000110039169462846FEF722FB07B030BD8E
:103AC0000010024000040048134810B5114901607D
:103AD0004FF4827141604FF4806181604FF47061F6
:103AE000C16000210122C0E9041252028261182241
:103AF000C0E9072107224162C0E90A12016341635C
:103B0000FFF7B6F9002803D0BDE81040FEF782B9F0
:103B100010BD00000030014010000020184810B512
:103B2000164901604FF461214160002181600C223F
:103B3000C160C0E904128161C161016241628162B8
:103B4000FFF744FE08B1FEF765F900210C48FFF7C6
:103B500087FC08B1FEF75EF900210948FFF75AFC1F
:103B600008B1FEF757F90648FFF733FC002803D0E9
:103B7000BDE81040FEF74EB910BD0000003801400E
:103B800074000020FEE7FEE770472DE9F843044685
:103B900040684FF48276154689464FF400474FF44B
:103BA0008068B04209D1A068B84201D0404504D134
:103BB0002068016821F0400101604B46002280210D
:103BC0002046009500F0B0F880B96068B04214D18A
:103BD000A068B84201D040450FD14B4600224FF4B7
:103BE000C0612046009500F02FF830B1206E40F003
:103BF000200020660320BDE8F8830020FBE7F8B52D
:103C000015460E460B460092044600224FF4C05162
:103C100000F01AF888B9334600228021204600952A
:103C200000F082F848B9334600224FF4C0612046C4
:103C3000009500F009F8002804D0206E40F0200024
:103C400020660320F8BD00002DE9FE4F4FF0000A6A
:103C5000984617460E4604460C9D8DF804A0FEF7C4
:103C600079FB411BA8EB0105FEF774FB8146206838
:103C70004FF4C06B0C3002902A480068C0EBC000C3
:103C800000EB8000000D6843009043E05E4506D1E4
:103C90002FB9029800788DF804009DF80400B8F15F
:103CA000FF3F37D0FEF756FBA0EB0900A84203D236
:103CB00015B1009858B32BE02068416821F0E0016D
:103CC00041606068B0F5827F0BD1A068B0F5004F0D
:103CD00002D0B0F5806F04D12068016821F0400166
:103CE0000160A06AB0F5005F09D12068016821F485
:103CF000005101602068016841F400510160012019
:103D000084F85D0084F85CA00320BDE8FE8F0025E8
:103D1000401E0090206880683040B842B6D1002034
:103D2000F3E700000C0000202DE9F8431E46914601
:103D300088460446089DFEF70DFB401B351AFEF72A
:103D400009FB074625480068C0F3CB30684338E0DC
:103D5000701C37D0FEF7FEFAC01BA84203D215B183
:103D6000009860B32CE02068416821F0E0014160D8
:103D70006068B0F5827F0BD1A068B0F5004F02D02B
:103D8000B0F5806F04D12068016821F04001016026
:103D9000A06AB0F5005F09D12068016821F40051E4
:103DA00001602068016841F400510160012084F83D
:103DB0005D00002084F85C000320BDE8F883002546
:103DC000401E00902068816838EA010004D000217C
:103DD0004945BDD10020F0E70121F9E70C000020A2
:103DE0007047FEF7BDBA10B594B038216846FCF7AD
:103DF00062FB14210EA8FCF75EFB0020FEF742FBDD
:103E0000012000900004032406210190CDE908411F
:103E100002205521CDE90A1007900C900D906846BC
:103E2000FEF724FE08B172B6FEE70F20CDE90E04BE
:103E3000002010901190129004210EA8FEF7CCFCE7
:103E4000002801D072B6FEE714B010BD0248016828
:103E500041F470010160704788ED00E030B5416EBB
:103E6000B9B1026891689268C1F342610B4B520F7D
:103E70009C5CE50003F10804A25CB5FBF2F2A0F83B
:103E80006A205A5C615CD200B2FBF1F1A0F86810C4
:103E900030BD0121A0F86A10F8E70000B84600081C
:103EA00090F82810090706D501684A68836B22F448
:103EB00000421A434A6090F82810C90706D00168EA
:103EC0004A68C36A22F400321A434A6090F8281004
:103ED000890706D501684A68036B22F480321A43C9
:103EE0004A6090F82810490706D501684A68436B74
:103EF00022F480221A434A6090F82810C90606D599
:103F000001688A68C36B22F480521A438A6090F871
:103F10002810890606D501688A68036C22F40052CD
:103F20001A438A6090F82810490611D501684A683A
:103F3000436C22F480121A434A60416CB1F5801F31
:103F400006D101684A68836C22F4C0021A434A60B1
:103F500090F82810090606D501684A68C06C22F45A
:103F6000002202434A6070472DE9F84300260446C8
:103F7000C0F89060FEF7EEF98046206800684FF0C8
:103F8000200500076FF07E4713D543460022290421
:103F90002046009700F012FA58B1216851E8000F4E
:103FA00020F0800041E80002002AF6D1C4F88850D1
:103FB00021E020680068400722D5434600224FF4E4
:103FC00080012046009700F0F9F9C8B1216851E856
:103FD000000F20F4907041E80002002AF6D120681A
:103FE000083050E8001F21F0010140E80012002ACB
:103FF000F5D1C4F88C5084F884600320BDE8F883C0
:10400000C4F88850C4F88C5044F86C6F666026760B
:104010000020F3E710B5806A0021A0F85E10A0F838
:104020005610FFF745FA10BD70B5846AD4F88800C1
:10403000D4F88C50216889684FF00006090606D52F
:10404000212804D1A4F85660204600F065F82068C5
:104050008068400606D5222D04D1A4F85E60204673
:1040600000F030F8D4F8900040F01000C4F8900050
:104070002046FFF71DFA70BD10B50146806A096839
:104080000968890616D40021A0F856100168083185
:1040900051E8002F22F0800241E80023002BF5D1E7
:1040A000026852E8001F41F0400142E80013002B73
:1040B000F6D110BDFFF768FC10BD10B5806AFFF7A0
:1040C00064FC10BD10B5026852E8001F21F4907125
:1040D00042E80013002BF6D10E4B0268083252E87A
:1040E000001F194042E80014002CF6D1C16E0129CE
:1040F00008D1016851E8002F22F0100241E80023A6
:10410000002BF6D12021C0F88C100021C166416738
:1041100010BD0000FEFFFFEF026852E8001F21F013
:10412000C00142E80013002BF6D10168083151E8C4
:10413000002F22F4000241E80023002BF5D12021BA
:10414000C0F88810704700002DE9F041044601686E
:1041500080682269E3691043626900251A431043AD
:10416000DFF82CC20A688B4B1A4002430A602068B1
:104170004168E26821F44051114341602168A0691F
:10418000614501D0226A10438A68834B1A4002437A
:104190008A602068C16A626A21F00F011143C1621E
:1041A0007E4923687E488B420DD1D0F8880010F0FC
:1041B000030006D0012855D0022842D003283FD161
:1041C00052E001203DE077498B420BD1D0F88800C6
:1041D00010F00C0035D0042833D0082840D00C282B
:1041E0002ED141E070498B420BD1D0F8880010F0FD
:1041F000300026D0102835D0202831D030281FD1CB
:1042000032E06A498B420BD1D0F8880010F0C00030
:1042100017D0402826D0802822D0C02810D123E0F3
:1042200063450DD1D0F8880010F4406009D0B0F596
:10423000806F17D0B0F5006F12D0B0F5406F13D07B
:1042400010205B495B4F00264FF4004263453BD191
:1042500060B1022813D004280BD0082872D10DE0D9
:104260000220EEE70420ECE70820EAE7FEF7A2FBD5
:1042700001E0FEF7C3FB010001D17CE01146606A5A
:1042800037F810206768B1FBF2F007EB4703834271
:1042900070D8B0EB073F6DD8002308461946FCF7ED
:1042A00061F8090241EA10610202780810187141B0
:1042B0003A460023FCF756F83F4AA0F54071914278
:1042C00058D82168C86056E0E3694FF6EF7893420A
:1042D0002CD109284ED2DFE800F00508114D0D4D14
:1042E0004D4D1000FEF766FB01E0FEF775FB010087
:1042F00004D140E0FEF782FBF9E71146606A37F827
:104300001000B1FBF0F04100606801EB5001B1FB1F
:10431000F0F0A0F1100141452CD84FF6F0710140AA
:10432000C0F3420001432068C16024E0092821D283
:10433000DFE800F0050912200E2020201100FEF712
:1043400039FB02E016E0FEF747FB010004D112E062
:10435000FEF754FBF9E71146606A37F81000B1FB2D
:10436000F0F1606801EB5001B1FBF0F0A0F1100139
:1043700041450AD901250120A4F86A0024F8680FF4
:104380002846E6602661BDE8F08180B299E700002A
:1043900000800040F369FFCFFFF4FF1100380140B7
:1043A000001002400044004000480040004C004023
:1043B0000024F400A0460008FFFC0F002DE9F047A0
:1043C000994617460D4604464FF00008089E33E014
:1043D000701C31D0FDF7BEFFA0EB0900B04218D829
:1043E000BEB120680168490726D5802D24D0402D14
:1043F00022D0C169C94309070DD4082505622046AA
:10440000FFF760FEC4F8905084F884800120BDE876
:10441000F0870320FBE7C069C04300050CD4216886
:104420004FF4006008622046FFF74CFE2020C4F8DD
:10443000900084F88480ECE72068C06935EA0000C9
:1044400004D00020B842C3D00020E0E70120F9E703
:104450000148FFF735B8000074000020FEE703B400
:1044600001984100009850EAC12018BF04204A0D6D
:1044700018BF40F0010040F2FF72B2EB515F08BF7D
:1044800040F00200012808BF052002B0704709076C
:10449000090E002804DB00F1E02080F800147047CA
:1044A00000F00F0000F1E02080F8141D7047303854
:1044B0000A2801D201207047002070470FB400B5D0
:1044C000C1B043AA68464299FBF7C4FF0748FEF70C
:1044D000F0FF2128FAD06846FBF7CEFF82B269468A
:1044E0000248FFF709FA41B05DF814FB74000020A0
:1044F000FDF73EFFFFF777FCFFF7B0FAFFF790FA02
:10450000FFF70CFBFFF7E0FA08A0FFF7D7FF00BFAB
:10451000FFF73EFA10EE100A00F048F841EC100BDD
:1045200006A053EC102BFFF7C9FFF1E74D543637C7
:10453000303120544553540D0A000000616E676C01
:10454000653A25660D0A000010B500290AD00878E2
:10455000002807D005487844FCF7F4FF002801D074
:10456000002010BD0248784410BD0000A6020000E3
:104570009E02000010B500290AD00878002807D054
:1045800005487844FCF7DEFF002801D0002010BD6C
:104590000248784410BD0000960200008E02000020
:1045A0000808A0F500114FEA3101704743004FEAB7
:1045B000D30C4FEA3C0C43401FBF40070CF1605145
:1045C00013F0FE4F70471CF0006F03D100200CF079
:1045D000004170470CF0004343EA507010B540EAC8
:1045E000CC0000F00EF800BF000000924FEA00017E
:1045F000FFF7D6BF4FF000414FF00000A1F50021BA
:1046000070470EF1020E2EF0030E5EF8044B2442AA
:1046100004D44FEA4102B2F17F4F11D84FEA400370
:10462000B3F17F4F0CD80ED14FEAD07CB2F17F4F5F
:104630000CEB4C0C0CF1020C08BF4CEBD17C04E0F1
:104640004FF0080C01E04FEAD17C0CEB4C0324FA4C
:1046500003F404F00704B4F1040C06D20EEB840C4E
:10466000BDE810404CF0010C6047DFE80CF0070893
:1046700002024FF00040A0F5800010BD0846420045
:1046800018BFD2F1807288BF00F0004010BD4FF01B
:104690004070E1EE100A7047FCF761BBFCF796BC76
:1046A000010002000400060008000A000C001000CF
:1046B000200040008000000101010103070100000B
:1046C00008040204080101010000000000000000CD
:1046D00001020304060708090000000001020304A8
:1046E000000000000000000030313233343536372E
:1046F0003839414243444546403058003031323326
:104700003435363738396162636465664030780025
:10471000040000080000000000000002000100008A
:10472000103031323334353637383961626364657D
:10473000667870003031323334353637383941429B
:10474000434445465850000002400000000000A0CD
:104750000000000005400000000000C8000000004C
:104760000C4000000000409C0000000019400000C8
:104770000020BCBE0000000034400000BFC91B8EFA
:1047800000000004B5400000504BCFD06607E2CFD8
:10479000010000006C4100003E8251AADFEEA73408
:1047A00001000000D9420000DCB5A0E23A301F97BA
:1047B000FFFFFFFFB4450000FD25A0C8E9A3C14FDE
:1047C000FFFFFFFFFF3F000000000080000000002F
:1047D000FF3F0000000000800000000028490008A2
:1047E00000000020100000001402000838490008F2
:1047F00010000020B8070000300200081C00000074
:1048000043000000F8FFFFFF0C0000000E00000056
:104810000F0000002E000000100100004300000007
:10482000F8FFFFFF004040404040404040404141D1
:104830004141414040404040404040404040404075
:10484000404040404005020202020202020202020F
:10485000020202020220202020202020202020020C
:10486000020202020202909090909090101010109C
:104870001010101010101010101010101010101038
:1048800002020202020288888888888808080808CC
:104890000808080808080808080808080808080898
:1048A00002020202400000000000000000000000C0
:1048B00000000000000000000000000000000000F8
:1048C00000000000000000000000000000000000E8
:1048D00000000000000000000000000000000000D8
:1048E00000000000000000000000000000000000C8
:1048F00000000000000000000000000000000000B8
:1049000000000000000000000000000000000000A7
:104910000000000000000000000000000000000097
:104920000000000000000000100000000100000076
:08493000000000000024F40067
:04000005080001D915
:00000001FF
