:020000040800F2
:100000006806002025030008B32200089F1C000892
:10001000B1220008731C0008A92400080000000099
:100020000000000000000000000000007D23000828
:100030009D1C000800000000B52200087F23000876
:100040003F0300083F0300083F0300083F03000888
:100050003F0300083F0300083F0300083F03000878
:100060003F0300083F0300083F030008751C000819
:100070003F0300083F0300083F0300083F03000858
:100080003F030008000000003F0300083F03000892
:100090003F0300083F0300083F0300083F03000838
:1000A0003F0300083F0300083F0300083F03000828
:1000B0003F0300083F0300083F0300083F03000818
:1000C0003F0300083F0300083F0300083F03000808
:1000D0003F030008852400083F0300083F03000891
:1000E0003F0300083F0300083F0300083F030008E8
:1000F0003F0300083F0300083F0300080000000022
:10010000000000003F030008000000003F0300085B
:100110003F030008000000003F0300083F03000801
:100120003F0300083F0300083F0300083F030008A7
:100130003F03000800000000000000003F0300082B
:100140003F0300083F03000800000000000000001B
:10015000000000000000000000000000000000009F
:100160000000000000000000000000003F03000845
:100170003F03000800000000000000000000000035
:10018000000000003F030008000000000000000025
:10019000000000000000000000000000000000005F
:1001A00000000000000000003F0300083F030008BB
:1001B0003F0300083F0300083F0300080000000061
:1001C000000000003F0300080000000000000000E5
:1001D0003F0300083F03000800F002F800F092F827
:1001E0000AA090E8000C82448344AAF10107DA4592
:1001F00001D100F087F8AFF2090EBAE80F0013F052
:10020000010F18BFFB1A43F001031847BC2500007B
:10021000DC250000103A24BF78C878C1FAD852070C
:1002200024BF30C830C144BF04680C607047000070
:100230000023002400250026103A28BF78C1FBD8EF
:10024000520728BF30C148BF0B6070476E2900F0CD
:100250008381702900F0C582662902F00482652935
:1002600002F00182672902F0FE81612902F0FD811E
:1002700003681B0A28BF41F08001692900F0308122
:10028000642900F02D81752900F02A816F2900F082
:100290005282782900F09182E92900F0ED81E42969
:1002A00000F0EA81F52900F0E781EF2900F04F82A4
:1002B000F82900F090820368DB0928BF41F0800133
:1002C000632900F09387732900F09887E32900F0F1
:1002D000A387F32900F0A887002070471FB502F01C
:1002E000BDF900F0F3FF04000020002102F0A0F9A6
:1002F000401C60600020002102F084F9E0601FBD16
:1003000010B510BD00F0B4FF1146FFF7E7FF02F093
:1003100021F901F091F803B4FFF7F2FF03BC01F0FB
:10032000D9F800000948804709480047FEE7FEE782
:10033000FEE7FEE7FEE7FEE7FEE7FEE7FEE7FEE795
:1003400004480549054A064B70470000412400084F
:10035000D90100086800002068060020680200201B
:10036000680200201CB50C46064B7B446946009091
:10037000204600F00AF904460020694600F018F90A
:1003800020461CBD4302000010B5431C02E010F8DB
:10039000011B71B18107FAD14FF0013202C88C1AEA
:1003A0008C4314EAC211F9D0C01A0A0603D0C01E49
:1003B00010BDC01A10BD0A0401D0801E10BD090274
:1003C000FCD0401E10BD4FF0000200B5134694460D
:1003D0009646203922BFA0E80C50A0E80C50B1F19D
:1003E0002001BFF4F7AF090728BFA0E80C5048BFB1
:1003F0000CC05DF804EB890028BF40F8042B08BF4F
:10040000704748BF20F8022B11F0804F18BF00F84A
:10041000012B704770477047704770B50446856977
:100420000068C10601D5302600E02026C00707D0AD
:1004300070BDD4E9012130469047206A401C2062FB
:100440006D1EF6D570BD70B5044685690078C0078D
:1004500007D170BDD4E9012120209047206A401CBB
:1004600020626D1EF6D570BD09684A0501D540B2FF
:100470007047C905FCD500B2704709684A0501D527
:10048000C0B27047C905FCD580B2704770B50C4644
:100490000546012A05D02878800600D5EA690023A0
:1004A00002E0012305E05B1C934202D2E05C0028DD
:1004B000F9D1A869E618C01AA861286A1844286208
:1004C0002846FFF7AAFF04E0D5E9012114F8010B43
:1004D0009047B442F8D32846FFF7B5FF70BD00003F
:1004E0002DE9F0410646002410687529314616A50D
:1004F00010D0FFF7B9FF002802DA404213A507E049
:1005000031688A0701D512A502E0490704D511A573
:10051000012401E0FFF7B1FF00210A2206F12407C0
:1005200009E0B0FBF2FCB0FBF2F302FB1C00303040
:1005300078541846491C0028F3D123462A463046F1
:10054000BDE8F04100F061BA000000002D0000009D
:100550002B0000002000000011680268006A5305AB
:1005600001D508700AE0D30501D5088006E013061E
:1005700003D5C217C1E9000200E0086001207047FE
:1005800001694A1C02610878704700B58FB0CDE957
:1005900001310021059105497944CDE90310114647
:1005A000684600F029F90FB000BD0000E5FFFFFF2D
:1005B0000A6802F8010B0A60704700002DE9FF5F2E
:1005C00015468A460446DFF8AC80F8440027D8E98F
:1005D00000103E46CDE9001010E03AF816106A46C9
:1005E00002A800F025FE411C07D02178890603D51A
:1005F000E269391891420DD80744761C20788006AC
:1006000002D5E069B84205DDAE42E6DB3AF81600F5
:100610000028E2D1A069C01BA0612046FFF7FDFEC3
:10062000D8E90010CDE90010002017E03AF81810C2
:100630006A4602A800F0FCFDB0F1FF3F81460BD0F6
:1006400000250DF1080B05E0D4E901211BF8050098
:1006500090476D1C4D45F7D308F10100B04280462C
:10066000E4DB206A384420622046FFF7ECFEBDE858
:10067000FF9F0000FE2000002DE9F0418046D21DC2
:1006800022F007020025D2E90002F52915A614D0B0
:10069000011E72F1000106DA0023D0EB030063EBC8
:1006A000020211A608E0D8F800108B0701D50FA6AA
:1006B00002E0490701D50EA601251146002408F1E4
:1006C000240704E000F05CF930323A55641C50EA2B
:1006D0000102F7D12B46324621464046BDE8F041A3
:1006E00000F093B9000000002D0000002B00000076
:1006F0002000000030B4002100F1240408E002F0E2
:100700000705D208303542EA4372DB086554491CBC
:1007100052EA0305F3D10468002310A2250707D588
:10072000A40600D421B1C46901230DA2641EC461D2
:1007300030BC00F06AB910B5044621461068FFF7D6
:100740009CFE02462046BDE810400023D2E7D21DA1
:1007500022F00701D1E90023CCE7000000000000EF
:1007600030000000F0B40D460188090502D5214C87
:100770007C4402E01F4C7C440E34002100F124062E
:1007800008E002F00F071209E75D42EA03721B0955
:100790007754491C52EA0307F3D102780023120769
:1007A00004D5702D06D009B1022311342246F0BCC5
:1007B00000F02BB901231034F8E770B504460D465C
:1007C00021461068FFF759FE024629462046BDE83B
:1007D00070400023C6E7D21D22F00703D3E90023AF
:1007E000C0E70368126843F0200303600823C36175
:1007F0000023B7E7601F00002DE9F05F894604463B
:100800004FF0000ADFF874B1FB44C0F820A0204686
:10081000E1688847002874D0252806D0D4E9012152
:100820009047206A401C2062F1E700265F46204680
:10083000E16888472028054607DB312D05D2781965
:1008400010F8200C08B10643F1E7B00701D526F0F7
:100850000406C4F81CA00027C4F818A02A2D09D04B
:10086000284601F03AFE38B304EB8708303DC8F85B
:10087000185019E059F8041B204604EB87029161D7
:10088000E1688847012F054618D1E069002820DA81
:1008900026F020061DE0D8F8180000EB800005EBDC
:1008A00040003038C8F818002046E16888470546FF
:1008B00001F013FE0028EED1012F0AD02E2D08D111
:1008C0002046E16888477F1C0546022F46F0200637
:1008D000C4DBA069002803DA404246F00106A061AB
:1008E000F00701D026F010066C2D0BD0682D09D032
:1008F0004C2D39D06A2D35D0742D35D07A2D33D08A
:1009000016E038E0E1682F4620468847B8420546A1
:1009100009D16C2F26D04FF48060E1680643204651
:100920008847054604E06C2F1AD04FF480700643C8
:100930000DB3A5F14100192802D8203546F4006610
:100940004A462946204626604E46FFF77FFC80B186
:1009500001280BD0F61D26F0070000F1080956E724
:100960004020E4E78020D8E70020D6E706F104091C
:100970004DE7284652E7206ABDE8F09FF01E0000D0
:1009800030B5B0F10A024FEA900E71F100034EEA61
:10099000817EB0EB0E0061EB91014FEA101E4EEA32
:1009A000017E10EB0E0041EB11114FEA102E4EEAC2
:1009B000016E10EB0E0041EB11214FEA104E4EEA92
:1009C000014E10EB0E0041EB1141401841F10001C6
:1009D0004FEAD00040EA41704FEAD10110EB8005A8
:1009E0004FEA810444EA907444EB01046D1944EB2E
:1009F0000404521BA3414FF0000348BF0A3200D544
:100A000030BD401C41F1000130BD2DE9F0470D46DD
:100A100099469246044600F124080168880604D5E8
:100A2000E06921F01001216000E00120A84201DD11
:100A3000471B00E00027A1697A1902EB0900081A98
:100A4000A0612078C00602D42046FFF7E6FC00260D
:100A500008E0D4E901211AF806009047206A401CFA
:100A6000761C20624E45F4DB2078C0060AD520466D
:100A7000FFF7D3FC06E0D4E9012130209047206A3B
:100A8000401C2062381EA7F10107F4DC07E0D4E91E
:100A9000012118F805009047206A401C2062281E9A
:100AA000A5F10105F3DC2046FFF7CDFC2078000618
:100AB00002D50220BDE8F0870120FBE770472DE951
:100AC000FF4F0C461E464FF0FF378BB0D2E90001B6
:100AD000DDF860800A908A46C1F30A5505B93D46A3
:100AE000002108464FF00000BAF1000F00F440006A
:100AF00005DA00EB80004FF4400101EA50004FEAB4
:100B00009059B9F1010F00DDB9460A9850EA4A0040
:100B10000ED044F61050A5F2FF3545432F14B8F11E
:100B2000000F1ED07542291E1EDDC9F100021CE017
:100B3000B8F1010F4FF0000001D0302103E0F24383
:100B400005E02154401CB042FBDB3046002200216E
:100B500021540B99C1F80880C1E900200FB0BDE80D
:100B6000F08FBD1B6D1CDEE74A4600DA694206A81D
:100B700000F0F0FB06AB93E8070003AB83E8070047
:100B800050460A9900F0ADFC8DE80700A0F5005032
:100B90001F3800900398002D0ADD42F21F014A46DB
:100BA0000844002303A90390684600F016FF09E0FB
:100BB000A0F500504A461F38002303A90390684659
:100BC00000F020FF8DE807000004000C03D04FF078
:100BD000FF30410800E01046B8F1000F03D00022BA
:100BE000009215461EE0751E05D4FFF7C9FE30328F
:100BF00062556D1EF9D5B3460122084302D000228A
:100C00007F1C04E02078302801D100227F1E002ABA
:100C1000099784D01DE0112D07DAFFF7B1FE3032BD
:100C200062556D1C50EA0102F5D1084302D00098CC
:100C3000C8B10EE00021681E05E0235C625C6354CD
:100C40002254401E491C8142F7DBAB46A81B401EC4
:100C50000990002004F80B000B98099AC0F808804E
:100C6000C0E9002B7AE711264FF0000857E72DE97D
:100C7000F04F88460446D21D22F0070191B0D1E919
:100C80000001CDE90A0101F010FC02460B98C00FEB
:100C900001D02D2007E02068810701D52B2002E03C
:100CA000202101EAC000032A099001D0072A05DBB0
:100CB00003464146204600F00DFB0BE120788006FC
:100CC00001D5E06900E00620B8F1650F814606D045
:100CD000B8F1660F18D0B8F1670F70D131E000207D
:100CE000B9F1110F009001DB112301E009F10103BB
:100CF0000AAA01A90CA8FFF7E2FEDDE90C700026A4
:100D000009F10105834647E001204B4600904FF072
:100D100000470AAA01A90CA8FFF7D1FEDDE90DB032
:100D20000C995D46002610B909F101000D18B9EBC8
:100D3000050003D4C0F1FF3609F10105A5EB090058
:100D40002BE0B9F1010F01DA4FF001090020B9F1F0
:100D5000110F0090484601DD112300E003460AAA66
:100D600001A90CA8FFF7ABFEDDE90C704D4600268B
:100D70008346207800070AD4AB4500DA5D4601A817
:100D8000012D04DD411911F8011C302907D04F4510
:100D900002DA17F1040F04DA012082460FE06D1E1B
:100DA000EEE7002F02DCED1B3E4403E0781CA84276
:100DB00000DD7D1CB81B00F1010A4FF000472078D0
:100DC000000703D4AA4501DB4FF0FF3A0021B7F139
:100DD000004F0DF143088DF8431024D002202B233F
:100DE000002F01DA7F422D230A21021EA0F101000B
:100DF00000DC5FB197FBF1FC97FBF1F201FB1C7C7F
:100E000017460CF1300C08F801CDEEE7A8F101000F
:100E100003702188090501D5452100E06521A0F175
:100E2000010800F8011C09980FA9A1EB0807FF1D94
:100E300000B10120411901EBEA70A1693844081A98
:100E4000401EA0612078C00602D42046FFF7E5FAD4
:100E5000099828B1D4E901219047206A401C2062FA
:100E60002078C00622D52046FFF7D7FA1EE0002ED4
:100E700004DBB34502DD01A8805D00E03020D4E949
:100E800001219047206A401C2062761CAAF10100D3
:100E90005FEA000A0AD100F019FAC0680168405CF4
:100EA000D4E901219047206A401C2062281EA5F148
:100EB0000105DCDC07E0D4E9012118F8010B9047BB
:100EC000206A401C2062381EA7F10107F3DC20468F
:100ED000FFF7B9FA032011B041E600002DE9F04F09
:100EE00004460D46D21D22F0070089B0D0E90097D4
:100EF0004846394601F0D9FA0246F80F01D02D23B1
:100F000007E02068810701D52B2302E0202101EAB8
:100F1000C0038DF820300BB1012000E00020032A2F
:100F2000824601D0072A04DB2946204600F0D2F988
:100F30003FE12078800601D40D2500E0E569C7F384
:100F40000A560D2D49DA00214FEA175B08464FF08B
:100F50000000002F00F4400007DA00EB80004FF49F
:100F6000400100EBD07001EA60008115012901DD2C
:100F70004FF0FF3100224FEA850CBCF1180F06D369
:100F80001346ACF118004FF08052C24003E04FF41A
:100F9000801323FA0CF30CF10C0CBCF1200F04D3DA
:100FA000ACF1200C09FA0CF001E007FA0CF0002972
:100FB0004FF0004801DD18B90FE00ED140450CD3C9
:100FC00019EB02095F4121B9404502D19F4329EA4B
:100FD0000209BBEB175F00D0761C2088000502D504
:100FE0007B48784402E07A487844193808AA3023CC
:100FF00002F80A30037C0AF10101002E0AF1020A0C
:1010000053546A4602DC4FF0300101E04FF03101E9
:101010004FF001088DF8001002D0A6F2FF3603E071
:1010200059EA470100D06B4E002D02DC21780907F8
:1010300004D54FF002082E218DF80110C44600217E
:101040000BE0C7F303433F01C35C491C6D1E02F86C
:101050000830052908F1010801DA002DF1DC002132
:101060000CE000EB1973491C1B786D1E082902F86F
:1010700008304FEA091908F1010801DA002DF0DC07
:1010800021688B0602D516E0A8F10108E04505DDD0
:1010900002EB080313F8013C302BF5D0B8F1000F38
:1010A00009DD02EB080313F8013C2E2B03D10907DD
:1010B00001D4A8F10108002D05DD3E2102F8081039
:1010C0006D1E08F10108407C002E02F8080008F1AE
:1010D000010804DA2D20764202F8080002E02B20F5
:1010E00002F808000A214FF47A70864208F10108DC
:1010F0000BDB96FBF0F3303302F8083096FBF0F38D
:1011000008F1010800FB136601E0642E0CDB64208B
:1011100096FBF0F3303302F8083096FBF0F308F159
:10112000010800FB136601E00A2E06DB96FBF1F0D6
:10113000303002F8080008F1010896FBF1F001FBDD
:101140001060303002F80800A16908F1010808EBCE
:10115000050202EB0A00081AA0612078C00602D43A
:101160002046FFF75AF9216A08AE01EB0A00206217
:1011700004E0D4E9012116F8010B9047BAF1010A05
:10118000F7D22078C00602D52046FFF746F96E4612
:1011900009E016F8010B3E280FD0D4E90121904751
:1011A000206A401C2062B8F10108F2D22046FFF705
:1011B0004AF909B00320BDE8F08F206A2844206274
:1011C00003E0D4E90121302090476D1EEBD3F8E70E
:1011D0003A17000002FCFFFF10B5436913B1AFF3EB
:1011E000008001E0FFF752F9012010BD127800F1F4
:1011F00024010A7000224A700122EDE711684FF0C5
:10120000FF32E9E710B5436913B1AFF3008001E0A5
:10121000FFF7D4F9012010BD128800F12401828467
:101220000022C2840122EDE711684FF0FF32E9E7A6
:1012300070B516460C46054600F040F8036893F872
:101240000101012806D0FF2C0FD8185D68B10120DC
:101250002C7070BDD3F807013246214603F2071304
:1012600003442846BDE8704018474FF0FF3070BD7A
:10127000754600F0EBF8AE4605006946534620F08F
:101280000700854618B020B5FFF75AF8BDE82040A2
:101290004FF000064FF000074FF000084FF0000B32
:1012A00021F00701AC46ACE8C009ACE8C009ACE8E5
:1012B000C009ACE8C0098D467047000010B500F0C9
:1012C00005F8001D10BD00BF6913000000487047FD
:1012D000240000202DE9F0411F4604460326016842
:1012E000072A01F4006004DB08B116A505E016A585
:1012F00003E008B115A500E015A521F0100020605D
:10130000A069C01EA0610FB1401EA0612046FFF77A
:1013100084F84FB1D4E9012138469047206A401C37
:101320002062C01C206206E0206AFAE7D4E90121AD
:1013300015F8010B9047761EF8D22046FFF783F888
:10134000BDE8F0814E414E006E616E00494E460090
:10135000696E66002DE9F047814616468AB0354829
:1013600078440DC88DE80D0032487844801C03ACE9
:101370000DC884E80D0041F69B300844372190FBEE
:10138000F1F290FBF1F5A5F1800501FB12041B3C85
:1013900002D56442012000E00020DFF898A08046DA
:1013A0000027FA44AAF1BE0A0EE0E0070AD032464E
:1013B000684607EB470101230AEB810100F022FB9D
:1013C0008DE8070064107F1C002CEED1194F7F447C
:1013D000AE3F19E0E80715D007EB04100DF1180A2D
:1013E00090E80E008AE80E00C068F04201D198191A
:1013F00008903246012306A903A800F003FB03ABC3
:1014000083E807006D10641C002DE3D14FF0010349
:1014100032466946B8F1000F03A802D000F0DDFAA9
:1014200001E000F0EFFAC9E90001C9F808200AB0AC
:10143000BDE8F0874C14000010B50446AFF30080FF
:101440002046BDE81040FEF766BF00000048704728
:10145000040000204FF0013C50F8042B51F8043BED
:101460009A4221D1A2EB0C03934313EACC1317D178
:1014700050F8042B51F8043B9A4215D1A2EB0C030F
:10148000934313EACC130BD150F8042B51F8043BCF
:101490009A4209D1A2EB0C03934313EACC13DBD09D
:1014A0004FF00000704700BFD01A01BAB1FA81F1C5
:1014B00001F0180122FA01F0CB40C1F12001DBB2AA
:1014C000C0B2C01A2CFA01F3D11A914311EAC31128
:1014D000E6D1704701491820ABBEFEE726000200A6
:1014E00070475FEA400C08BF91F0000F4FEA8C2371
:1014F0004FEAC12243EA51514FEA1C5018BF00F590
:10150000F0404FEA300018BF41F000415FEA6C5CE8
:1015100000F02980BCF1FF3F08BF40F080407047D9
:10152000130C06BF12044FF0100C4FF0000C130EFA
:1015300004BF12020CF1080C130F04BF12010CF1CE
:10154000040C930F04BF92000CF1020CD30F04BFE4
:1015500052000CF1010C11464FF00002A0F11F00E7
:10156000A0EB0C00704711F0004F08BF704731F03E
:1015700000413FF4D5AF0B0C06BF09044FF0100C2F
:101580004FF0000C0B0E04BF09020CF1080C0B0FFE
:1015900004BF09010CF1040C8B0F04BF89000CF18E
:1015A000020CCB0F04BF49000CF1010CCCF120035D
:1015B000A0EB0C0022FA03F302FA0CF241EA030159
:1015C00000F10100704720F07F4C80EA030023F017
:1015D0007F47ACEB070303F57C5300F0004003F1B9
:1015E000FF032DE980494FEA154B09B44FEA144334
:1015F00025EA0B4E24EA03480FF2042606EB1327D4
:1016000049083E785FEA320203FB0667C7F5000728
:1016100007FB06F64FEA54374FEAD64606F10206B4
:1016200007FB066CCCF1005C4FEA1C472CEA074C28
:1016300007FB06F40CFB06F504EB15464FEA96167D
:1016400034BF00204FF000404FEAD13706FB07FCC3
:101650004FEA1C4C0CFB0BF7D21B03FB0CF761EBA6
:1016600007010CFB0EF7B0EB074072EB17420CFBC7
:1016700008F734BFA2EB0742B2EB074261EB174118
:101680004FEA0C444FEA910706FB07FC4FEA1C4C5B
:101690000CFB0BF7B0EBC74072EB573203FB0CF7B8
:1016A00034BFA2EBC742B2EBC74261EB57310CFB30
:1016B0000EF7B0EBC70072EB57720CFB08F734BFA4
:1016C000A2EBC702B2EBC70261EB5771039F4FEA6F
:1016D000816141EA921104EBCC044FEAD1374FEA21
:1016E000826206FB07FC42EA90124FEA80604FEAF2
:1016F0001C4C0CFB0BF7D21B03FB0CF761EB070137
:101700000CFB0EF7B0EB074072EB17420CFB08F72F
:1017100034BFA2EB0742B2EB074261EB17414FEA3D
:101720008C554FEA910704EB9C2406FB07FC4FEA1B
:101730001C4C0CFB0BF7B0EBC74072EB573203FBB2
:101740000CF734BFA2EBC742B2EBC74261EB573193
:101750000CFB0EF7B0EBC70072EB57720CFB08F7EF
:1017600034BFA2EBC702B2EBC70261EB577115EBB6
:101770004C254FEA816141EA92114FEA82624FEAB9
:10178000D13742EA901206FB07FC44F100044FEA0D
:1017900080604FEA1C4C0CFB0BF7D21B03FB0CF7D1
:1017A00061EB07010CFB0EF7B0EB074072EB174241
:1017B0000CFB08F734BFA2EB0742B2EB074261EB28
:1017C000174115EB1C154FEA813141EA92414FEA6E
:1017D000823242EA90424FEA80304FEA0C7644F17E
:1017E000000448EA03434EEA0B484FF0000EB2EB08
:1017F000080C71EB030724BF624639464EEB0E0E10
:101800004FF0000B0018524149414BEB0B0BB2EB70
:10181000080C71EB03077BF1000B24BF62463946CD
:101820004EEB0E0E4FF0000B0018524149414BEBAE
:101830000B0BB2EB080C71EB03077BF1000B24BF21
:10184000624639464EEB0E0E51EA020718BF46F0CB
:10185000010616EB0E7655F1000254F1000103D596
:10186000BDE88901BDE80088BDE88901BDE8004800
:10187000B619524141EB0101A3F101037047808089
:101880007F7E7D7C7B7A79787776767574737271DA
:1018900071706F6E6E6D6C6C6B6A6A696868676692
:1018A00066656464636362616160605F5F5E5E5D24
:1018B0005D5C5C5B5B5A5A59595858575756565598
:1018C00055555454535352525251515050504F4FFA
:1018D0004F4E4E4D4D4D4C4C4C4B4B4B4A4A4A494A
:1018E000494948484847474747464646454545448D
:1018F0004444444343434342424242414141002B1A
:101900009C4630D477002BD01CB54FEA370703B480
:101910004FF010004FF01001BAF1000F06D0BCF1EB
:10192000000FDCBF40F0080040F008014FF000005D
:101930000FBCBDE810400BF1010BBBF1010F08BF5C
:101940005FEA170722BF12F1010211F101014FF006
:10195000004143F1000300F0004043EA00007047FB
:10196000F9D35708D0E746EA064613F1400F4FEA8D
:1019700016461FDD13F1200FDFBF16430A46002174
:1019800020335B42BED0C3F1200746EA064602FA86
:1019900007F74FEA164646EA0706C3F1200722FA80
:1019A00003F201FA07F721FA03F14FF0000342EACC
:1019B0000702A7E746EA020646EA06464FEA164647
:1019C00046EA0106BCBF46EA0646360C4FF0000365
:1019D0004FF000024FF0000194E72DE9804C9A4649
:1019E000934670B491E8380007C831EA400C48BF0C
:1019F00034EA430C03D5FFF7E6FDFFF780FFF0BCA8
:101A0000BDE8008C2DE9804C9A46934670B491E86D
:101A1000380007C810F0804F08BF13F0804F03D183
:101A200000F005F8FFF76BFFF0BCBDE8008C20F07C
:101A30007F4780EA030023F07F4C07EB0C03A3F5FC
:101A40007C5300F00040A3F1FE0392F0000F00F081
:101A5000B38095F0000F00F077802DE901494FEA3F
:101A600011404FEA144621EA004800FB06FC24EA34
:101A7000064708FB06F607FB08F800FB07F718EB1C
:101A800006484CEB164C4FEA124B18EB07484FEA4E
:101A900015464CEB174022EA0B4E0BFB06FC25EAE1
:101AA00006470EFB06F607FB0EFE0BFB07F71EEBC9
:101AB000064E4CEB164C4FF000061EEB074E4CEB5F
:101AC000174B18EB0B0840F1000018EB0E0B58EB0E
:101AD000000840F100008F1A4FF000013CBFC943DD
:101AE000661B14BFB5EB040C00213CBFC943F61BB9
:101AF0004FEA17444EEA8E0E27EA04454FEA1C4788
:101B000004FB07622CEA074C05FB07F70CFB05F604
:101B100004FB0CFC16EB074642EB174216EB0C4697
:101B200042EB1C421BEB060658EB0202414146EA1F
:101B30009E0601D5BDE80189B619524141EB01016C
:101B4000A3F10103BDE801894FEA14454FEA1147AB
:101B500024EA054621EA074C05FB07F406FB07F7D4
:101B60000CFB06F105FB0CFC11EB074144EB1744A1
:101B70004FEA124711EB0C4144EB1C4422EA074C9C
:101B800005FB07F206FB07F70CFB06F605FB0CFC52
:101B900016EB074642EB174216EB0C4642EB1C4590
:101BA0006A1854F1000148BF7047B619524141EB21
:101BB0000101A3F10103704795F0000F37D04FEA00
:101BC00011424FEA144721EA024624EA074C02FB7D
:101BD00007F106FB07F70CFB06F402FB0CFC14EB09
:101BE000074441EB17414FEA154714EB0C4441EB16
:101BF0001C4125EA074C02FB07F506FB07F70CFB27
:101C000006F602FB0CFC16EB074645EB174516EBF8
:101C10000C4645EB1C42121951F1000148BF7047B8
:101C2000B619524141EB0101A3F1010370474FEA9C
:101C300014454FEA114724EA054621EA074C05FB03
:101C400007F106FB07F70CFB06F24FF0000605FB59
:101C50000CFC12EB074241EB174112EB0C4251EB2B
:101C60001C4148BF7047921841EB0101A3F10103E9
:101C70007047FEE707480168C1F34001002908D01A
:101C80000221416004490A788258097822F0010251
:101C90004250704700000240742600087047FEE77B
:101CA000044908B58A6C02438A64896C014000913A
:101CB00008BD000000100240044908B5CA6C024388
:101CC000CA64C96C0140009108BD000000100240C8
:101CD000F0B50A680F2692FAA2F2B2FA82F3032450
:101CE0008AE001259D402A407ED04D68012D01D01B
:101CF000022D20D18D68876892FAA2FCBCFA8CFC78
:101D00004FEA4C0E04FA0EFC27EA0C0792FAA2FCEA
:101D1000BCFA8CFC4FEA4C0C05FA0CF52F4387609B
:101D2000CF680D68D0F804C02CEA050C7D434CEA5E
:101D3000050CC0F804C00F69D0F80CC092FAA2F5E7
:101D4000B5FA85F54FEA450E04FA0EF52CEA050CB6
:101D500092FAA2F5B5FA85F56D00AF404CEA070C92
:101D6000C0F80CC04D68022D2FD1FF2A15D8D1F82C
:101D700014C0056A92FAA2F7B7FA87F7BF0006FA0D
:101D800007F7BD4392FAA2F7B7FA87F7BF000CFA3C
:101D900007FC45EA0C05056217E0D1F814E0476A34
:101DA000150A95FAA5FCBCFA8CFC4FEA8C0C06FAD5
:101DB0000CFC95FAA5F5B5FA85F5AD0027EA0C07F8
:101DC0000EFA05FE47EA0E0747624D68076892FA69
:101DD000A2FCBCFA8CFC4FEA4C0C04FA0CFE27EA7D
:101DE0000E0792FAA2F200E005E0B2FA82F2520087
:101DF00095402F4307605B1C0A6832FA03F57FF4B5
:101E000070AF0020F0BD4FF47A71B0FBF1F14FF0EC
:101E1000E020491E41610021816105210161704777
:101E200010B50024C02823D11248D0F8880000F053
:101E3000C00040F440004038B0F540000AD04028CF
:101E40000CD080280FD000F067FA00F035FA00F0CF
:101E500043FA01E000F060FA044609E000F068F897
:101E600030B1054C04E000F06BF808B14FF40044C9
:101E7000204610BD001002400024F40070B500247C
:101E800029492A4D4FF40046032804D00C281AD0C3
:101E900030282FD040E0D1F888006FF4403100F0B6
:101EA000030040F4403040180AD0012836D0022800
:101EB0002ED000F031FA00F0FFF900F01DFA17E023
:101EC00000F02AFA14E0D1F8880000F00C0040F489
:101ED0004020001FB0F54020F2D004281ED0082872
:101EE00016D000BF00F018FA00F0E6F900F0F4F99F
:101EF000044611E0D1F8880000F0300040F44010B2
:101F00001038B0F54010DBD0102807D02028E9D1D8
:101F100000F016F800B13446204670BD00F008F815
:101F20000028F9D02C46F7E7001002400024F40006
:101F300002480068C0F38020704700000010024093
:101F40000248D0F89000C0F34000704700100240F3
:101F500003498A6822F0F00202438A607047000059
:101F60000010024001490860704700000000002096
:101F70002DE9F041044600680D46012610F0010FDE
:101F80004CD12969A868EA69084369691143084383
:101F900021682B4A114008432060E868616821F4F9
:101FA000405101436160A869A16821F44071014377
:101FB000A1602448844201D1032008E022488442E1
:101FC00001D10C2003E02148844203D13020FFF7E7
:101FD00055FF05E01E48844219D1C020FFF720FFBD
:101FE000A8B1696899B12A680026EB690B2A0ED856
:101FF000184FD2B2B3F5004F57F82220B0FBF2F0E1
:102000000FD000EB5100B0FBF1F080B2E060288807
:10201000E16A80B221F00F010143E1623046BDE880
:10202000F081400000EB5100B0FBF1F081B24FF6BF
:10203000F07201EA0200C1F342010843E6E7000042
:10204000F369FFEF003801400044004000480040C1
:10205000004C00409426000810B50420FFF720FE35
:102060000120FFF71DFE0B480068C0F30220011D90
:10207000072901D2002000E0C01E00218140080194
:10208000054981F800044FF0E0214FF40060C1F8E9
:10209000000110BD0CED00E00BE000E0F0B587B0F2
:1020A00018216846FEF78FF90420FFF705FE20206F
:1020B000FFF702FE0120FFF7FFFD0220FFF7FCFD06
:1020C0000D4D4FF48040A8614600AE61009001279D
:1020D0000024CDE901740394694628460494FFF76F
:1020E000F7FD0096CDE901740394694628460494EF
:1020F000FFF7EEFD07B0F0BD00080048F0B58FB067
:10210000202106A8FEF75FF918216846FEF75BF963
:10211000604850F8881F002421F0030140F83C1962
:10212000416941F480414161416901F480410E916E
:10213000016841F0020101600068022500F0020020
:102140000E9040200090CDE901540726524FCDE972
:102150000446694638460394FFF7BAFD8020009094
:10216000CDE90154CDE90446694638460394FFF7AA
:10217000AFFD4A49D1F8000820F0FF0040F01900F7
:10218000C1F80008464802788A5844F210039A437E
:10219000037842F01002CA5002788A58037822F479
:1021A0004052CA5002788A58037822F02002CA505E
:1021B00002788A58037822F04002CA5002788A587E
:1021C000037842F08002CA5002788A58037822F4D9
:1021D0004072CA5002788A58007822F440620A504D
:1021E00030480068C0F30220011D072901D20020F9
:1021F00000E0C01E04FA00F108012B4981F8000438
:10220000294920202139C1F800014FF46120CDE98E
:1022100006400C20CDE90A40089409940C940D94D2
:10222000224C06A92046FFF7A3FE002204F1080075
:1022300050E8001F62F35F7140E80013002BF7D1F4
:10224000002104F1080000BF50E8002F22F0606276
:1022500042EA416240E80023002BF5D1206820F0DB
:1022600000502060606820F490406060A06820F01A
:102270002A00A060206840F001002060E069C0F3FF
:1022800040500028FAD0E069C0F380500028F5D013
:102290000FB0F0BD001002400004004800000240F2
:1022A0006E2600080CED00E025E000E0003801405B
:1022B000FEE7FEE77047000005498968054A01F01E
:1022C000F0010909515C01F01F01C840704700008E
:1022D000001002407A26000805498968054A01F481
:1022E000E06102EB1121097801F01F01C84070473D
:1022F000001002408A26000805498968054A01F451
:10230000605102EBD121097801F01F01C8407047EC
:10231000001002408A2600081549886800F00C0366
:102320001448042B0DD0144A082B09D00C2B08D1CB
:10233000CB6803F00303022B05D0032B03D101E08C
:10234000104670471046CA68C2F306224243C86866
:10235000C96800F0F003012000EB1313B2FBF3F2A5
:1023600001F0C06100EB51604000B2FBF0F070473B
:10237000001002400024F40000366E0170477047E0
:1023800038B52A48016821F00F0141F004010160CD
:10239000016801F00F010429FAD1254850F8801F87
:1023A00021F480710160234C206840F4803020606B
:1023B0002068C0F340400028FAD0E16845F253504D
:1023C0001D4A11400843E060E06840F08070E06022
:1023D000206840F0807020602068C0F340600028D2
:1023E000FAD0A06840F00300A0608020FFF7B0FDA5
:1023F000A06800F00C000C28FAD155200090401E77
:102400000090FCD1FFF7A4FDA06820F4E060A0607C
:10241000A06820F46050A060084C2046FFF7F3FC51
:102420002046BDE83840FFF79DBD00000020024077
:1024300000700040001002400C80FFF980FE210A6D
:102440000248016841F470010160704788ED00E0C6
:1024500030B50B48094D094B04780C3561510478AF
:10246000191D64586FF30F04144302785450017817
:102470005958007841F00101195030BD0000024068
:10248000C42600080749C869C0F34010002807D0D7
:10249000C869C0F3C0100028FAD0486AC0B2886288
:1024A0007047000000380140FEE703B40198410086
:1024B000009850EAC12018BF04204A0D18BF40F010
:1024C000010040F2FF72B2EB515F08BF40F0020022
:1024D000012808BF052002B0704730380A2801D211
:1024E000012070470020704710B50E4A0B4C0B4975
:1024F000137808340A4818510948203850E8003F3A
:1025000043F0800340E80034002CF7D110780858DD
:10251000127840F00200885010BD00000000024018
:1025200028380140C42600080FB400B5C1B043AA42
:1025300068464299FDF716FF6846FDF725FF82B20F
:1025400069460348FFF784FF41B05DF814FB0000C3
:1025500000380140224808B5016E41F001010166D2
:10256000016E01F001010091816D41F080518165A2
:10257000806D1C4900F08050009008684FF6FF0203
:102580001040194A40F44070104308600868C0F3D6
:102590000220C0F10702042A00D90422011D0729E4
:1025A00001D2002000E0C01E01219140491E81405F
:1025B00008010E4981F8140D0D48816841F48041ED
:1025C0008160FFF7DDFEFFF769FDFFF745FDFFF7CF
:1025D00095FDFFF789FF07A0FFF7A6FFFBE70000C7
:1025E000001002400CED00E00000FA050FE000E0F2
:1025F000007000404C4C20444D4120746573740DB4
:102600000A00000010B500290AD00878002807D079
:1026100005487844FEF71EFF002801D0002010BDB9
:102620000248784410BD0000D6010000CE01000031
:1026300010B500290AD00878002807D0054878444A
:10264000FEF708FF002801D0002010BD02487844A2
:1026500010BD0000C6010000BE0100004FF0407038
:10266000E1EE100A7047FEF702BBFEF737BC081C0C
:102670003044586C081C3044586C000000000000C6
:10268000000001020304060708090000000001021F
:10269000030400000100000002000000040000002C
:1026A00006000000080000000A0000000C00000006
:1026B000100000002000000040000000800000002A
:1026C00000010000081C3044586C000000000000AD
:1026D000000000003031323334353637383941426A
:1026E0004344454640305800303132333435363774
:1026F0003839616263646566403078000400000820
:102700000000000000000002000100001030313223
:102710003334353637383961626364656678700002
:102720003031323334353637383941424344454607
:102730005850000002400000000000A0000000000F
:1027400005400000000000C8000000000C40000030
:102750000000409C00000000194000000020BCBEAA
:102760000000000034400000BFC91B8E00000004C0
:10277000B5400000504BCFD06607E2CF010000000B
:102780006C4100003E8251AADFEEA7340100000038
:10279000D9420000DCB5A0E23A301F97FFFFFFFFEF
:1027A000B4450000FD25A0C8E9A3C14FFFFFFFFF0E
:1027B000FF3F00000000008000000000FF3F00001D
:1027C0000000008000000000142900080000002024
:1027D000040000001402000818290008040000206A
:1027E00064060000300200081C00000043000000E6
:1027F000F8FFFFFF0C0000000E0000000F000000BB
:102800002E0000001001000043000000F8FFFFFF51
:1028100000404040404040404040414141414140F3
:1028200040404040404040404040404040404040A8
:102830004005020202020202020202020202020237
:10284000022020202020202020202002020202023C
:102850000202909090909090101010101010101094
:1028600010101010101010101010101002020202A0
:1028700002028888888888880808080808080808E4
:1028800008080808080808080808080802020202E0
:1028900040000000000000000000000000000000F8
:1028A0000000000000000000000000000000000028
:1028B0000000000000000000000000000000000018
:1028C0000000000000000000000000000000000008
:1028D00000000000000000000000000000000000F8
:1028E00000000000000000000000000000000000E8
:1028F00000000000000000000000000000000000D8
:1029000000000000000000000000000000000000C7
:08291000000000000024F400A7
:04000005080001D915
:00000001FF
