:020000040800F2
:10000000008000200D250008DD220008DF22000806
:10001000E1220008E3220008E522000800000000B9
:10002000000000000000000000000000E7220008BF
:10003000E922000800000000EB220008ED22000881
:100040005D2500085D2500085D2500085D25000888
:100050005D2500085D2500085D2500085D25000878
:100060005D2500085D2500085D250008F5220008D3
:100070005D2500085D2500085D2500085D25000858
:100080005D250008000000005D2500085D250008D2
:100090005D2500085D2500085D2500085D25000838
:1000A0005D2500085D2500085D2500085D25000828
:1000B0005D2500085D2500085D2500085D25000818
:1000C0005D2500085D2500085D2500085D25000808
:1000D0005D250008052300085D2500085D25000852
:1000E0005D2500085D2500085D2500085D250008E8
:1000F0005D2500085D2500085D2500080000000062
:10010000000000005D250008000000005D250008DB
:100110005D250008000000005D2500085D25000841
:100120005D2500085D2500085D2500085D250008A7
:100130005D25000800000000000000005D250008AB
:100140005D2500085D25000800000000000000009B
:10015000000000000000000000000000000000009F
:100160000000000000000000000000005D25000805
:100170005D250008000000000000000000000000F5
:10018000000000005D2500080000000000000000E5
:10019000000000000000000000000000000000005F
:1001A00000000000000000005D2500085D2500083B
:1001B0005D2500085D2500085D25000800000000A1
:1001C000000000005D2500080000000000000000A5
:0801D0005D2500085D25000813
:1002000010B5054C237833B9044B13B10448AFF350
:1002100000800123237010BDB809002000000000F9
:1002200028A5000808B5034B1BB103490348AFF3E9
:10023000008008BD00000000BC09002028A50008BF
:1002400053B94AB9002908BF00281CBF4FF0FF313D
:100250004FF0FF3001F0DEB8ADF1080C6DE904CECF
:1002600000F006F8DDF804E0DDE9022304B0704791
:100270002DE9F047089E0D4604468846002B4DD1D7
:100280008A42944668D9B2FA82F252B101FA02F374
:10029000C2F1200120FA01F10CFA02FC41EA030844
:1002A00094404FEA1C45210CB8FBF5FE1FFA8CF771
:1002B00005FB1E8341EA03430EFB07F199420BD96C
:1002C0001CEB03030EF1FF3080F01E81994240F2D7
:1002D0001B81AEF1020E63445B1AA4B2B3FBF5F0CE
:1002E00005FB103344EA034400FB07F7A7420AD991
:1002F0001CEB040400F1FF3380F00881A74240F2B8
:10030000058164440238E41B40EA0E4000211EB11E
:10031000D4400023C6E90043BDE8F0878B4208D9EA
:10032000002E00F0EE800021C6E900050846BDE879
:10033000F087B3FA83F100294AD1AB4202D382425B
:1003400000F2F980841A65EB030301209846002E21
:10035000E2D0C6E90048DFE702B9FFDEB2FA82F276
:10036000002A40F09180A1EB0C054FEA1C471FFAD0
:100370008CFE0121B5FBF7F307FB1350250C45EA72
:1003800000450EFB03F0A84208D91CEB050503F15C
:10039000FF3802D2A84200F2CB8043462D1AA4B205
:1003A000B5FBF7F007FB105544EA05440EFB00FED1
:1003B000A64508D91CEB040400F1FF3502D2A6457E
:1003C00000F2BB802846A4EB0E0440EA03409EE7FF
:1003D000C1F120078B4022FA07FC4CEA030C20FAFB
:1003E00007F405FA01F31C43FD404FEA1C4900FAEB
:1003F00001F3B5FBF9F8200C1FFA8CFE09FB185528
:1004000040EA054508FB0EF0A84202FA01F20BD9BA
:100410001CEB050508F1FF3A80F08880A84240F205
:100420008580A8F1020865442D1AA4B2B5FBF9F045
:1004300009FB105544EA054500FB0EFEAE4508D900
:100440001CEB050500F1FF346CD2AE456AD90238C9
:10045000654440EA0840A0FB0294A5EB0E05A542C6
:10046000C846A64656D353D05EB1B3EB080265EB3F
:100470000E0505FA07F722FA01F3CD401F43C6E93E
:1004800000750021BDE8F087C2F1200320FA03F1D6
:100490000CFA02FC25FA03F395400D434FEA1C4782
:1004A0001FFA8CFEB3FBF7F107FB11302B0C43EA6C
:1004B000004301FB0EF0984204FA02F408D91CEB49
:1004C000030301F1FF382FD298422DD9023963443A
:1004D0001B1AADB2B3FBF7F007FB103345EA034537
:1004E00000FB0EF3AB4208D91CEB050500F1FF3809
:1004F00016D2AB4214D902386544ED1A40EA0141E4
:1005000038E73146304607E78646E5E61846FAE61C
:100510004B45A9D2B9EB020864EB0C0E0138A3E7F6
:100520004046EAE7204694E74146D1E7D0467BE7DC
:10053000023B654432E7084609E76444023842E773
:1005400003685A004CBF43F0004323F000431844B3
:10055000704700BF2DE9F84329B34F1E04461546E6
:100560003E464FF0000808EB060101EBD17149103F
:1005700004EBC1094846FFF7E3FF0346C800083013
:100580008F42204409D0AB4209D8FFF7D9FF013888
:10059000A8420AD201F10108E5E7AB4205D9884536
:1005A00001D04E1EDFE74FF000094846BDE8F88352
:1005B000012807D0022807D0044B00280CBF18469A
:1005C000002070470248704702487047890C0008B5
:1005D0008D0C0008910C000830B5234B83B0044605
:1005E0008D1E3BB301A92846AFF30080E8B1019905
:1005F0002A46FFF7AFFF0146B8B1FFF7A1FF4B68EE
:10060000A064012B2CD0002B01F1040024DBFFF7A8
:1006100097FF0023C4E913030368002B11DBFFF7E6
:100620008FFF2061002003B030BD0023092023612B
:1006300003B030BD0D4B0E49C91AC91018460191BF
:10064000D6E7C3F30360FFF7B3FF0028206114BFB0
:100650000020092003B030BD0123C4E91303DBE708
:10066000002323610520DEE700000000C4A9000884
:100670009CAA00080368DA0710B5044606D49B0755
:1006800000F1480009D500F05BFC2368590709D543
:100690001A070ED5DB0613D510BD00F049FC236800
:1006A0005907F5D404F1D00000F052FC23681A0772
:1006B000F0D404F5A87000F053FC2368DB06EBD4FB
:1006C00004F5E870BDE8104000F08EBC09207047CA
:1006D0000346006800B11844704700BF704700BF70
:1006E00070B504460E46316C2046FFF775FF05468F
:1006F00088B9326C626123693246214601209847ED
:100700000828F0D0072806D12846316CFFF7E6FF0D
:10071000301D00F001FC03F0A7FF00BF2DE9F047FA
:100720000D1DD0F80C80D0F81890074614460FCD58
:10073000ADF5727D0DF10C0CACE80F000FCDACE8FF
:100740000F000FCDACE80F0095E80F0002AE4FF0A0
:10075000000E8CE80F00C6F800E020E0336C7B61EF
:100760004FF4F07231467AA800F056FE3B697AAA3F
:10077000394650469847889B73642146CDE9006905
:1007800005463B463A460120C0470446E0B94FF4CF
:10079000F0727AA9304600F03FFE082D1AD1316C74
:1007A0003846FFF719FF09345FFA84FA0546002836
:1007B000D4D0B36B73643A46CDE900693B464AF046
:1007C00010010120C04700B1092528460DF5727DB2
:1007D000BDE8F087072DF7D12046316CFFF77EFF8B
:1007E00003A800F099FB00BF406C7047F0B5CB6BDD
:1007F0000B6401F1040C0E460546BCE80F00F9B08D
:1008000001AC0FC4BCE80F000FC4BCE80F000FC45C
:100810009CE80F004FF0FF3784E80F00009706E0D8
:100820002B696A46294698470828044608D110993A
:100830002846FFF7D1FE0028F2D0092079B0F0BD9C
:100840006846FFF717FF062CF7D131462846FFF719
:1008500047FF00BFC160D96B82611964002219464D
:100860005CE700BF70B5C66843690B64AEB9036945
:100870000A4604460D46014602209847072805D03F
:1008800008280FD129462046FFF72AFF3046296C59
:10089000FFF724FF281D00F03FFB0122FFF73EFF7A
:1008A00003F0E2FE03F0E0FEC2681AB1CA6B0A640C
:1008B000002233E79AE700BF704700BF8368014614
:1008C0000BB1012018477047012912D009D873B91C
:1008D0000F2A0CD800EB820218465368009A136066
:1008E00070470339012994BF01200220704702207C
:1008F00070470846704700BF00B585B00A46002320
:1009000003A900911946FFF7DFFF039805B05DF8D2
:1009100004FB00BF012912D009D873B90F2A0CD8E3
:1009200000EB8200009A1268426018467047033953
:10093000012994BF01200220704702207047084619
:10094000704700BF10B584B0002303AC039200943D
:100950000A461946FFF7DEFF04B010BD70B5D36B31
:10096000136402F1040C05460C46BCE80F00ADF51B
:100970000E7D0DF15C0EAEE80F00BCE80F00AEE896
:100980000F00BCE80F00AEE80F009CE80F004FF02E
:10099000FF368EE80F00169610E0FFF7D3FF2146D2
:1009A00016A8A847034616AA6946082083B9049BDF
:1009B0009847052806460CD0092809D0269968468C
:1009C000FFF70AFE03466A460C2116A8002BE4D066
:1009D000092616A8FFF74EFE30460DF50E7D70BDB8
:1009E0002DE9F04FCC6C89B01E4654F8043B0694B8
:1009F0000D46174600F00308002E79D01A0C1B0490
:100A000005938DF81D200223D2B204EB82048DF8E9
:100A10001C302B6DB8F1020F08BFAC6B13F0010353
:100A20000CD005A9384600F079FB18B9082009B0A8
:100A3000BDE8F08F092009B0BDE8F08FD4F800A020
:100A4000BAF1000FEDD0019300F008030293022EDB
:100A50004AD0B4F800A0B4F802900434AB6C29F08A
:100A6000010B0F2138469B44FFF746FF834539D8D9
:100A70002AF001039B44834594BF002001204FEAE4
:100A8000490303F002030AF0010A43EA0A03012BB7
:100A900049D0022B32D0002BCCD1B8F1000F02D0BC
:100AA000002840F0CD800434D4F800A0BAF1000F43
:100AB000CDD105A9384600F031FB0028BAD1019B01
:100AC000002BB3D00F213846FFF716FF0E21024648
:100AD0003846FFF737FF38466A4A0F21FFF732FFE3
:100AE0000720A8E70020CAE7D4F804900834B5E747
:100AF0001B0205930323ADF81C308AE7236823F01B
:100B0000004BB8F1000F45D128B1029A002A5CD001
:100B1000BBF1000F74D0002B00DA04340BF1010B91
:100B200004EB8B04C0E7B8F1000F19D1B0B16368D2
:100B30002268991C4FEAD2723FF47CAF05F158014C
:100B40000133049100F09080201DFFF7C1FD04AB3C
:100B500001462846AFF3008000285BD10834A3E7A4
:100B60000D213846D5F82090FFF7C6FE8145F5D116
:100B7000AB6A9C42F2D12046FFF7E2FC0F2102460D
:100B80003846FFF7DFFE38462A460021FFF7DAFE37
:100B9000072050E70D213846D5F82090FFF7ACFE2E
:100BA000814501D02368B6E7AB6A9C42FAD10423A1
:100BB0000022C5E90B23E318C5F828B06B6323684E
:100BC000002B59DB01230193A8E705F15803CDF869
:100BD0000C8004F1040AB04691461E460EE05046D1
:100BE0000496FFF775FD0022014604AB284609F183
:100BF00001090AF1040AAFF30080E0B9D945EED14A
:100C00000D213846FFF778FE049BAC62C5E9080366
:100C1000062010E781460D213846FFF76DFEB9F139
:100C2000020F286225D12B46049A43F82C2F6B62C1
:100C3000AC620620FFE646462368DDF80C806AE7D2
:100C40002046FFF77DFC04340246AC632846144678
:100C5000AFF3008000283FF4EDAE384622460F2166
:100C6000FFF770FE0720E6E60D213846FFF744FE49
:100C70002862049B6B62DBE70BF1010004EB800050
:100C80007AE700BF000000000023A9E60123A7E6E1
:100C90000223A5E62DE9F0430646C3B015461C46DF
:100CA000042900F2BF80DFE801F09E57BD2D03004C
:100CB000002C40F0B780102A00F2B4800368D806F8
:100CC00000F1F98020AF384600F098F9B46B39464E
:100CD00000234FF0010C0CFA03F22A42204603F1E4
:100CE000010303D050F8042B0A600446042B01F1E1
:100CF0000401F0D13846B46300F076F9002043B027
:100D0000BDE8F083032C40F08D8094B204EB1243D5
:100D1000102B4FEA124500F2858003681F0700F18F
:100D2000D28020AF384600F03DF9B26B07EBC50129
:100D300054B10B46D01A01EBC401E4001D5843F82E
:100D4000045B8B42FAD122443846B26300F008F9C2
:100D5000002043B0BDE8F083012C4FEA124895B261
:100D60005CD0052C5ED108EB0509B9F1200F59D8EC
:100D7000B8F10F0F79D9A946002D40F08A80B36BE6
:100D80006DB320AF4FF0000907EBC807043F03EB3A
:100D9000C50553F8041B47F8041FAB42F9D1B9F15C
:100DA000000F0FD06F464146102938BF102107EBC6
:100DB000C101843903EBC90553F8040B41F8040F52
:100DC000AB42F9D1012C00F08680B8F10F0FB5636A
:100DD00047D9B9F1000F02D0684600F0B9F80020F9
:100DE00043B0BDE8F083ECB9806B23461FFA82FC68
:100DF0000124371D04FA03F212EA0C0F014604D055
:100E000051F8042B47F8232008460133102BF1D169
:100E100015F40055E3D1B063284604E008EB050360
:100E2000102B03D9022043B0BDE8F083B8F10F0FB7
:100E3000F8D83368DA0706D5304623F0030340F8C4
:100E4000483B00F079F820AF384600F075F8B36BF6
:100E5000002D97D11D460435B563384600F068F87B
:100E6000BDE720A800F06CF8B3E7B9F1100F40D946
:100E7000A9F110093368D90708D523F001033046DA
:100E800043F0020340F8483B00F05EF8B9F1000F70
:100E900032D033685A0720D4B8F10F0F25D96F46E6
:100EA0003846C8F1100500F057F8002DB36B7FF7F6
:100EB0007AAF20AF68E723F01003336006F5E870DF
:100EC00000F09CF8FEE623F00803036000F5A8702C
:100ED00000F068F825E720AFBDE7304623F00403B3
:100EE00040F8D03B00F038F8D6E720A800F02CF806
:100EF000D5E74FF00009BDE7B8F10F0F3FF63FAF60
:100F000020AF384600F020F8B36B002D7FF43AAFE5
:100F1000384600F015F862E700F1340191E8380036
:100F20009C46A6464CF8045D90E8FF0FE54600BDE0
:100F300090EC210B704700BF80EC210B704700BF85
:100F400090EC200B704700BF80EC200B704700BF77
:100F5000D0EC200B704700BFC0EC200B704700BFE7
:100F6000F0EC0201F0EC0211F0EC0221F0EC0231A5
:100F7000F0EC0241F0EC0251F0EC0261F0EC027195
:100F8000F0EC0281F0EC0291F0EC02A1F0EC02B185
:100F9000F0EC02C1F0EC02D1F0EC02E1F0EC02F175
:100FA000704700BFE0EC0201E0EC0211E0EC02212E
:100FB000E0EC0231E0EC0241E0EC0251E0EC0261D5
:100FC000E0EC0271E0EC0281E0EC0291E0EC02A1C5
:100FD000E0EC02B1E0EC02C1E0EC02D1E0EC02E1B5
:100FE000E0EC02F1704700BFB0FC0181B0FC019160
:100FF000B0FC01A1B0FC01B1704700BFA0FC0181B1
:10100000A0FC0191A0FC01A1A0FC01B1704700BFB0
:10101000EC4600B52DE900502DE9FF1F4FF000030D
:101020002DE90C0001A9FFF7E1FBDDF840E012B06B
:10103000704700BFEC4600B52DE900502DE9FF1FB9
:101040004FF000032DE90C0001A9FFF70BFCDDF8C0
:1010500040E012B0704700BFEC4600B52DE90050EB
:101060002DE9FF1F4FF000032DE90C0001A9FFF748
:101070001BFCDDF840E012B0704700BFEC4600B545
:101080002DE900502DE9FF1F4FF000032DE90C0062
:1010900001ABFFF7DFFBDDF840E012B0704700BFA7
:1010A000EC4600B52DE900502DE9FF1F4FF000037D
:1010B0002DE90C0001AAFFF751FCDDF840E012B069
:1010C000704700BF027A03467AB9427AA2B14168FA
:1010D000013A10B44272086803220C1D1A7202020F
:1010E0005C60000E10BC1A6070470068013A1A720A
:1010F00002021A60000E7047B020704700B585B03C
:10110000002303AA009219460C22FFF7DDFB039887
:1011100005B05DF804FB00BFF0E700BF2DE9F04328
:10112000054685B00E464FF000083046FFF7CAFF6F
:10113000B028044600F0BA80070620D500F0F0037E
:10114000802B4DD0902B36D0A02B60D0B02B74D0FC
:10115000C02B00F08B8000F0F803D02B0BD100F0F7
:1011600007020132052342F4002201212846FFF73D
:1011700091FD0028D9D0092005B0BDE8F083830097
:10118000DBB21F1D0DF10C0900231946CDF80090AC
:101190000D222846FFF798FB039BCDF800906006D0
:1011A0004CBFDF1BFF1800230D221946284603976A
:1011B000FFF7B0FBB9E700F00D030D2BDBD003AF59
:1011C000002300F00F02194600972846FFF77CFB2A
:1011D000002300970D2219462846FFF79BFBA4E742
:1011E0003046FFF76FFF24022043B0F5004FC2D016
:1011F00004010023A2B219462846FFF74BFD002840
:10120000B9D114F4004F18BF4FF001088DE7C24365
:1012100002F007034FF47F621A41010702F47F6274
:101220004FF0000348BF42F4804219462846FFF7BA
:1012300031FD00283FF479AF9DE7B1283BD0B228BB
:1012400000F09380B32841D000F0FC03B42B92D07F
:1012500000F007020132012342F400221946284619
:10126000FFF718FD00283FF460AF84E7C6284AD096
:10127000C72854D000F0F803C02B63D0C82868D02A
:10128000C9287FF478AF3046FFF71CFF020300F057
:101290000F0002F470220130024301210523284689
:1012A000FFF7F8FC00283FF440AF64E7B8F1000F07
:1012B00018D0002060E73046FFF704FF0246002800
:1012C0003FF459AF10F0F003C8D054E73046FFF7B1
:1012D000F9FE020300F00F03013302F470221A43F7
:1012E0000123BBE703AC43460E2241460094284647
:1012F000FFF7EAFA009443460F2241462846FFF7DB
:1013000009FB404638E73046FFF7DCFE020300F0F9
:101310000F03013302F470221A4303239EE7304681
:10132000FFF7D0FE024600283FF425AF10F0F0038F
:101330007FF421AF04212846FFF7ACFC00283FF4DE
:10134000F4AE18E700F00F020132032342F420222A
:1013500084E73046FFF7B6FE00F0F00200F00F031E
:101360001032013343EA023297E700230DF10C09F2
:101370000D221946CDF800902846FFF7A5FA304611
:10138000FFF7A0FE02064FF002040CD5039B00F00D
:101390007F00A040184403903046FFF793FE0306F9
:1013A00004F10704F2D4039BCDF8009000F07F0213
:1013B000A24003F501731A440023039219460D223B
:1013C0002846FFF7A7FAB0E610B5C26C536884B0A0
:1013D0004FF0030C08321C0208461B0E01A90194B1
:1013E00002928DF80CC08DF80D30FFF797FE04B017
:1013F00010BD00BF08B5FFF78FFE806C08BD00BFB1
:1014000008B5FFF789FEC06CC379023300EB830097
:1014100008BD00BF704700BF844641EA000313F0D7
:1014200003036DD1403A41D351F8043B40F8043BEB
:1014300051F8043B40F8043B51F8043B40F8043BAE
:1014400051F8043B40F8043B51F8043B40F8043B9E
:1014500051F8043B40F8043B51F8043B40F8043B8E
:1014600051F8043B40F8043B51F8043B40F8043B7E
:1014700051F8043B40F8043B51F8043B40F8043B6E
:1014800051F8043B40F8043B51F8043B40F8043B5E
:1014900051F8043B40F8043B51F8043B40F8043B4E
:1014A00051F8043B40F8043B403ABDD2303211D3EE
:1014B00051F8043B40F8043B51F8043B40F8043B2E
:1014C00051F8043B40F8043B51F8043B40F8043B1E
:1014D000103AEDD20C3205D351F8043B40F8043BEE
:1014E000043AF9D2043208D0D2071CBF11F8013BEC
:1014F00000F8013B01D30B8803806046704700BFB2
:10150000082A13D38B078DD010F003038AD0C3F1C0
:101510000403D21ADB071CBF11F8013B00F8013BA2
:1015200080D331F8023B20F8023B7BE7043AD9D361
:10153000013A11F8013B00F8013BF9D20B78037036
:101540004B7843708B7883706046704700000000D2
:10155000000000000000000000000000000000008B
:10156000000000000000000000000000000000007B
:10157000000000000000000000000000000000006B
:1015800090F800F06DE9024520F007016FF0000CC3
:1015900010F0070491F820F040F049804FF000046B
:1015A0006FF00700D1E9002391F840F000F1080046
:1015B00082FA4CF2A4FA8CF283FA4CF3A2FA8CF37E
:1015C0004BBBD1E9022382FA4CF200F10800A4FAE5
:1015D0008CF283FA4CF3A2FA8CF3E3B9D1E9042339
:1015E00082FA4CF200F10800A4FA8CF283FA4CF370
:1015F000A2FA8CF37BB9D1E9062301F1200182FA2A
:101600004CF200F10800A4FA8CF283FA4CF3A2FA2F
:101610008CF3002BC6D0002A04BF04301A4612BA3D
:10162000B2FA82F2FDE8024500EBD2007047D1E940
:10163000002304F00305C4F100004FEAC50514F0CF
:10164000040F91F840F00CFA05F562EA05021CBFA0
:1016500063EA050362464FF00004A9E700000000BA
:1016600001F0FF01102A2BDB10F0070F08D010F853
:10167000013B013A8B422DD010F0070F42B3F6D157
:10168000F0B441EA012141EA014122F007047FF070
:1016900000070023F0E80256083C85EA010586EAC7
:1016A000010685FA47F5A3FA87F586FA47F6A5FA03
:1016B00087F68EB9EED1F0BC01F0FF0102F007020F
:1016C00032B110F8013B013A83EA010313B1F8D1BA
:1016D0000020704701387047002D06BF354603389B
:1016E000073815F0010F07D1013015F4807F02BFD4
:1016F000013015F4C03F0130F0BC0138704700BF25
:1017000081F0004102E000BF83F0004330B54FEAB2
:1017100041044FEA430594EA050F08BF90EA020F1F
:101720001FBF54EA000C55EA020C7FEA645C7FEAB2
:10173000655C00F0E2804FEA5454D4EB5555B8BFD5
:101740006D420CDD2C4480EA020281EA030382EA46
:10175000000083EA010180EA020281EA0303362DD8
:1017600088BF30BD11F0004F4FEA01314FF4801CAB
:101770004CEA113102D0404261EB410113F0004FBD
:101780004FEA03334CEA133302D0524263EB430374
:1017900094EA050F00F0A780A4F10104D5F1200E12
:1017A0000DDB02FA0EFC22FA05F2801841F100016D
:1017B00003FA0EF2801843FA05F359410EE0A5F141
:1017C00020050EF1200E012A03FA0EFC28BF4CF072
:1017D000020C43FA05F3C01851EBE37101F0004528
:1017E00007D54FF0000EDCF1000C7EEB00006EEB35
:1017F0000101B1F5801F1BD3B1F5001F0CD34908BF
:101800005FEA30004FEA3C0C04F101044FEA445215
:1018100012F5800F80F09A80BCF1004F08BF5FEA9C
:10182000500C50F1000041EB045141EA050130BD7C
:101830005FEA4C0C404141EB0101013C28BFB1F58E
:10184000801FE9D291F0000F04BF01460020B1FAD9
:1018500081F308BF2033A3F10B03B3F120020CDAAC
:101860000C3208DD02F1140CC2F10C0201FA0CF08A
:1018700021FA02F10CE002F11402D8BFC2F1200CEF
:1018800001FA02F120FA0CFCDCBF41EA0C019040A5
:10189000E41AA2BF01EB0451294330BD6FEA0404EE
:1018A0001F3C1CDA0C340EDC04F11404C4F12002D9
:1018B00020FA04F001FA02F340EA030021FA04F3EB
:1018C00045EA030130BDC4F10C04C4F1200220FA42
:1018D00002F001FA04F340EA0300294630BD21FA80
:1018E00004F0294630BD94F0000F83F4801306BF46
:1018F00081F480110134013D4EE77FEA645C18BF3A
:101900007FEA655C29D094EA050F08BF90EA020FD0
:1019100005D054EA000C04BF1946104630BD91EAC8
:10192000030F1EBF0021002030BD5FEA545C05D1CB
:101930004000494128BF41F0004130BD14F580040A
:101940003CBF01F5801130BD01F0004545F0FE417E
:1019500041F470014FF0000030BD7FEA645C1ABFB3
:10196000194610467FEA655C1CBF0B46024650EAEA
:10197000013406BF52EA033591EA030F41F4002116
:1019800030BD00BF90F0000F04BF0021704730B59C
:101990004FF4806404F132044FF000054FF0000171
:1019A00050E700BF90F0000F04BF0021704730B532
:1019B0004FF4806404F1320410F0004548BF404207
:1019C0004FF000013EE700BF42004FEAE2014FEA5C
:1019D00031014FEA02701FBF12F07F4393F07F4F37
:1019E00081F06051704732F07F4208BF704793F03A
:1019F0007F4F04BF41F40021704730B54FF460744D
:101A000001F0004521F000411CE700BF50EA01024F
:101A100008BF704730B54FF000050AE050EA0102F8
:101A200008BF704730B511F0004502D5404261EB68
:101A300041014FF4806404F132045FEA915C3FF4A9
:101A4000D8AE4FF003025FEADC0C18BF03325FEA46
:101A5000DC0C18BF033202EBDC02C2F1200300FAF7
:101A600003FC20FA02F001FA03FE40EA0E0021FA1C
:101A700002F11444BDE600BF70B54FF0FF0C4CF40A
:101A8000E06C1CEA11541DBF1CEA135594EA0C0FBC
:101A900095EA0C0F00F0DEF82C4481EA030621EAF7
:101AA0004C5123EA4C5350EA013518BF52EA033532
:101AB00041F4801143F4801338D0A0FB02CE4FF0E4
:101AC0000005E1FB02E506F00042E0FB03E54FF014
:101AD0000006E1FB03569CF0000F18BF4EF0010E0C
:101AE000A4F1FF04B6F5007F64F5407404D25FEA08
:101AF0004E0E6D4146EB060642EAC62141EA5551BB
:101B00004FEAC52040EA5E504FEACE2EB4F1FD0CFC
:101B100088BFBCF5E06F1ED8BEF1004F08BF5FEA7A
:101B2000500E50F1000041EB045170BD06F000462C
:101B300046EA010140EA020081EA0301B4EB5C04D9
:101B4000C2BFD4EB0C0541EA045170BD41F48011D1
:101B50004FF0000E013C00F3AB8014F1360FDEBFF6
:101B6000002001F0004170BDC4F10004203C35DAD2
:101B70000C341BDC04F11404C4F1200500FA05F355
:101B800020FA04F001FA05F240EA020001F00042F6
:101B900021F0004110EBD37021FA04F642EB06016C
:101BA0005EEA430E08BF20EAD37070BDC4F10C0496
:101BB000C4F1200500FA04F320FA05F001FA04F25A
:101BC00040EA020001F0004110EBD37041F1000146
:101BD0005EEA430E08BF20EAD37070BDC4F1200551
:101BE00000FA05F24EEA020E20FA04F301FA05F2B9
:101BF00043EA020321FA04F001F0004121FA04F261
:101C000020EA020000EBD3705EEA430E08BF20EA30
:101C1000D37070BD94F0000F0FD101F0004640006A
:101C200041EB010111F4801F08BF013CF7D041EAEC
:101C3000060195F0000F18BF704703F000465200F0
:101C400043EB030313F4801F08BF013DF7D043EAC1
:101C50000603704794EA0C0F0CEA135518BF95EA77
:101C60000C0F0CD050EA410618BF52EA4306D1D1FE
:101C700081EA030101F000414FF0000070BD50EA1D
:101C8000410606BF1046194652EA430619D094EAA7
:101C90000C0F02D150EA013613D195EA0C0F05D191
:101CA00052EA03361CBF104619460AD181EA0301E5
:101CB00001F0004141F0FE4141F470014FF000009D
:101CC00070BD41F0FE4141F4780170BD70B54FF038
:101CD000FF0C4CF4E06C1CEA11541DBF1CEA1355B8
:101CE00094EA0C0F95EA0C0F00F0A7F8A4EB05049A
:101CF00081EA030E52EA03354FEA013100F0888091
:101D00004FEA03334FF0805545EA131343EA126359
:101D10004FEA022245EA111545EA10654FEA00260E
:101D20000EF000419D4208BF964244F1FD0404F5C7
:101D3000407402D25B084FEA3202B61A65EB030523
:101D40005B084FEA32024FF480104FF4002CB6EBE0
:101D5000020E75EB030E22BFB61A754640EA0C0060
:101D60005B084FEA3202B6EB020E75EB030E22BFA0
:101D7000B61A754640EA5C005B084FEA3202B6EBE1
:101D8000020E75EB030E22BFB61A754640EA9C00A0
:101D90005B084FEA3202B6EB020E75EB030E22BF70
:101DA000B61A754640EADC0055EA060E18D04FEA2E
:101DB000051545EA16754FEA06164FEAC30343EACE
:101DC00052734FEAC2025FEA1C1CC0D111F4801F9B
:101DD0000BD141EA00014FF000004FF0004CB6E794
:101DE00011F4801F04BF01430020B4F1FD0C88BF33
:101DF000BCF5E06F3FF6AFAEB5EB030C04BFB6EB3E
:101E0000020C5FEA500C50F1000041EB045170BD30
:101E10000EF0004E4EEA113114EB5C04C2BFD4EB5D
:101E20000C0541EA045170BD41F480114FF0000EE1
:101E3000013C90E645EA060E8DE60CEA135594EA5D
:101E40000C0F08BF95EA0C0F3FF43BAF94EA0C0F60
:101E50000AD150EA01347FF434AF95EA0C0F7FF4D5
:101E600025AF104619462CE795EA0C0F06D152EA29
:101E700003353FF4FDAE1046194622E750EA41060D
:101E800018BF52EA43067FF4C5AE50EA41047FF41E
:101E90000DAF52EA43057FF4EBAE12E74FF0FF3C83
:101EA00006E000BF4FF0010C02E000BF4FF0010C54
:101EB0004DF804CD4FEA410C7FEA6C5C4FEA430CCD
:101EC00018BF7FEA6C5C1BD001B050EA410C0CBF1C
:101ED00052EA430C91EA030F02BF90EA020F00207E
:101EE000704710F1000F91EA030F58BF994208BFE5
:101EF00090422CBFD8176FEAE37040F001007047A2
:101F00004FEA410C7FEA6C5C02D150EA013C07D1F8
:101F10004FEA430C7FEA6C5CD6D152EA033CD3D043
:101F20005DF8040B704700BF8446104662468C463D
:101F30001946634600E000BF01B5FFF7B7FF002870
:101F400048BF10F1000F01BD4DF808EDFFF7F4FF99
:101F50000CBF012000205DF808FB00BF4DF808ED24
:101F6000FFF7EAFF34BF012000205DF808FB00BF47
:101F70004DF808EDFFF7E0FF94BF012000205DF869
:101F800008FB00BF4DF808EDFFF7CEFF94BF01201E
:101F900000205DF808FB00BF4DF808EDFFF7C4FF17
:101FA00034BF012000205DF808FB00BF4FEA410C60
:101FB0007FEA6C5C02D150EA013C0AD14FEA430C43
:101FC0007FEA6C5C02D152EA033C02D14FF0000080
:101FD00070474FF0010070474FEA410212F50012BE
:101FE00015D211D56FF47873B3EB625212D94FEA60
:101FF000C12343F0004343EA505311F0004F23FA4A
:1020000002F018BF404270474FF00000704750EA9E
:10201000013005D111F0004008BF6FF0004070475B
:102020004FF00000704700BF0FB400B5C3B044AA22
:1020300052F8041B419201A802F0E0FB084801F0AD
:102040006DFF2128FAD001A8FFF79AFA82B201A900
:10205000034801F0F9FC43B05DF804EB04B07047AD
:102060009C0A002000B583B00E4B9A6C42F004022B
:102070009A649A6C02F004020092009A9A6C42F000
:1020800001029A649B6C03F001030193019B0022FF
:1020900011460B2000F0D4FA0B2000F009FB03B02E
:1020A0005DF804FB00100240F0B58BB000240594ED
:1020B0000694079408940994244BDA6C42F00402C5
:1020C000DA64DA6C02F004020192019ADA6C42F0EE
:1020D0002002DA64DA6C02F020020292029ADA6CD0
:1020E00042F00102DA64DA6C02F001020392039A10
:1020F000DA6C42F00202DA64DB6C03F00203049350
:10210000049B134F01224FF44041384600F0CEFDAE
:10211000104D01224FF40071284600F0C7FD4FF426
:1021200040430593012606960794089405A938466E
:1021300000F0CEFC4FF400730593069607940894C4
:1021400005A9284600F0C4FC0BB0F0BD0010024009
:10215000000800480004004872B6FEE700B595B0DC
:102160003822002106A802F0B1FA00200190029066
:1021700003900490059000F0A7FD012306934FF40F
:102180008033079302230D9303220E9206220F92AF
:102190005522109211931293139306A800F04EFE4D
:1021A00080B90F2301930323029300230393049325
:1021B000059304210DEB010001F0F6F820B915B0EC
:1021C0005DF804FBFFF7C8FFFFF7C6FF08B500F096
:1021D000EFF9FFF7C3FFFFF767FFFFF743FF00F0DB
:1021E000F9F800F005F802F02FFA02F035FAFCE7F2
:1021F00008B51148114B03604FF4827343604FF4EC
:10220000806383604FF47063C36000230361012225
:1022100042614FF4007282611822C261036243621C
:1022200083620722C2620363436301F055FB00B976
:1022300008BDFFF791FFFBE7D40900200030014003
:1022400000B589B000230393049305930693079385
:102250000268124B9A4202D009B05DF804FB03F504
:1022600060431A6E42F480521A661A6E02F480526B
:102270000192019ADA6C42F00202DA64DB6C03F03C
:1022800002030293029B1823039302230493052362
:10229000079303A9024800F01BFCDDE70030014072
:1022A0000004004800B583B00B4B1A6E42F00102E7
:1022B0001A661A6E02F001020092009A9A6D42F0BC
:1022C00080529A659B6D03F080530193019B00F04F
:1022D00081FD03B05DF804FB00100240FEE7FEE75D
:1022E000FEE7FEE7FEE770477047704708B500F06D
:1022F0006FF908BD08B5024800F087FB08BD00BFB4
:102300003C0A002008B5024801F064FC08BD00BF8B
:102310009C0A00200120704708B502F0ADF9162391
:1023200003604FF0FF3008BD08B54FF0FF31FFF7F5
:10233000F3FFFEE770B50C461646002506E0AFF346
:102340000080214601F8010B01350C46B542F6DB51
:10235000304670BD70B50C461646002504E014F8F2
:10236000010BAFF300800135B542F8DB304670BD9C
:102370004FF0FF3070474FF400534B600020704720
:10238000012070470020704710B503460C4A0D49E4
:102390000D48006840B10C4800680344521A93424B
:1023A00006D8094A136010BD0748084C0460F2E7DC
:1023B00002F062F90C2303604FF0FF30F3E700BF37
:1023C0000080002000040000380A0020800B00205C
:1023D0007047000008B51748174B03604FF461239E
:1023E000436000238360C36003610C224261836108
:1023F000C36103624362836202F053F870B9002143
:102400000C4802F0C9F860B900210A4802F0E9F866
:1024100050B9084802F0A1F848B908BDFFF79CFE82
:10242000EDE7FFF799FEEFE7FFF796FEF1E7FFF71D
:1024300093FEF2E79C0A00200038014030B599B0C5
:10244000044600211391149115911691179144227D
:1024500002A802F03BF92268274B9A4201D019B03A
:1024600030BD0123029302A801F0C4F800283CD13A
:10247000224B1A6E42F480421A661A6E02F48042AF
:102480000092009ADA6C42F00202DA64DB6C03F02C
:1024900002030193019BC02313930223149300258D
:1024A000159516950723179313A9154800F010FBEF
:1024B0001448154B03601923436010238360C560E3
:1024C0008023036145618561C561056200F072F991
:1024D00070B90C4BE3679C6200221146252000F086
:1024E000AFF8252000F0E4F8B9E7FFF735FEBFE7C5
:1024F000FFF732FEEDE700BF003801400010024058
:10250000000400483C0A0020080002400D488546AF
:10251000FFF75EFF0C480D490D4A002302E0D45836
:10252000C4500433C4188C42F9D30A4A0A4C00231D
:1025300001E013600432A242FBD302F0A3F8FFF7DC
:1025400045FEFEE70080002000000020B8090020C2
:10255000A8AA0008B8090020800B0020FEE70000B0
:10256000104B1B680BB90120704710B504464FF49F
:102570007A70B0FBF3F30C4A1068B0FBF3F000F094
:10258000A5F868B90F2C01D901200AE000222146E4
:102590004FF0FF3000F054F8044B1C60002000E0C6
:1025A000012010BD040000200000002008000020D1
:1025B00010B5032000F032F80F20FFF7D1FF10B163
:1025C0000124204610BD0446FFF76CFEF9E7000029
:1025D000034A1368034909680B441360704700BF3E
:1025E000300B002004000020014B1868704700BF2A
:1025F000300B002038B50446FFF7F6FF0546B4F16E
:10260000FF3F02D0044B1B681C44FFF7EDFF401B4B
:10261000A042FAD338BD00BF04000020074AD368A7
:1026200023F4E0631B041B0C000200F4E06003438E
:1026300043F0BF6343F40033D360704700ED00E024
:1026400000B5194BDB68C3F30223C3F1070CBCF1DF
:10265000040F28BF4FF0040C03F1040EBEF1060F67
:1026600018D9033B4FF0FF3E0EFA0CFC21EA0C0197
:1026700099400EFA03F322EA0303194300280BDB07
:102680000901C9B200F1604000F5614080F8001313
:102690005DF804FB0023E5E700F00F000901C9B273
:1026A000024B1954F4E700BF00ED00E014ED00E028
:1026B000002807DB00F01F02400901239340024A73
:1026C00042F82030704700BF00E100E00138B0F16F
:1026D000807F0BD24FF0E0235861054AF02182F849
:1026E00023100020986107221A617047012070476B
:1026F00000ED00E010B4C46CD0F850C0C4F804C0C1
:10270000446D24B1846DD0F85CC0C4F804C0446C3E
:1027100004F01F0C012404FA0CF4D0F840C0CCF8EB
:102720000440046863608368102B05D003689960D7
:102730000368DA6010BC704703689A600368D96068
:10274000F8E7000003680C4A934213D80B49DBB248
:10275000083B0B4AA2FB0323426C22F003020A440B
:102760008264084AC264C3F30413012202FA03F329
:10277000036570470449EAE7070402400008024085
:10278000CDCCCCCC80080240200802400379074A17
:102790001A4492004265064A8265013B03F01F031A
:1027A000012202FA03F3C365704700BF3F820010A5
:1027B0004009024000285BD010B5044601682D4B4B
:1027C00099423DD82C4B0B442C4AA2FB03231B09F6
:1027D0009B0043642A4B0364022384F825300A6873
:1027E00022F4FF4222F07002A368E06803432069EC
:1027F000034360690343A0690343E0690343206A1C
:10280000034313430B602046FFF79CFFA368B3F517
:10281000804F20D0A36C22791A60E36C226D5A603D
:102820006368013B032B19D900236365A365E36546
:102830000020E063012384F8253084F8240010BDD3
:10284000104B0B440D4AA2FB03231B099B0043645E
:102850000D4B0364C0E700236360DBE72046FFF70E
:1028600095FF636D00221A60A36DE26D5A60DFE789
:102870000120704707040240F8FFFDBFCDCCCCCC4F
:1028800000000240F8FBFDBF0004024038B50446DA
:1028900090F82400012841D0012084F8240094F805
:1028A0002500C0B2012804D0002384F8243002207F
:1028B00038BD022084F825000020E06325682868E0
:1028C00020F0010028602046FFF714FF236BD3B1EE
:1028D0002268136843F00E031360A36C1A6812F4A5
:1028E000803F03D01A6842F480721A60636D1BB196
:1028F0001A6842F480721A602268136843F0010378
:1029000013600020D4E72268136823F004031360E7
:102910002268136843F00A031360DEE70220C7E76A
:10292000034690F82520D2B2022A09D00422C263BD
:102930000120012283F82520002283F824207047FB
:1029400001680A6822F00E020A60816C0A6822F4AB
:1029500080720A6001680A6822F001020A60426C13
:1029600002F01F01006C01228A404260DA6C196D8E
:1029700051605A6D42B1116821F4807111609A6DF5
:10298000D96D51600020D4E70020D2E708B590F857
:102990002530DBB2022B09D00423C363012380F866
:1029A0002530002280F82420184608BD02681368EC
:1029B00023F00E0313600268136823F00103136011
:1029C000826C136823F480731360436C03F01F025E
:1029D000016C012393404B60C36C026D5A60436DE0
:1029E00033B11A6822F480721A60836DC26D5A6026
:1029F000012380F82530002380F82430836B13B145
:102A000098470020D1E70020CFE738B5036C19685C
:102A100004682568436C03F01F0304229A400A42AD
:102A200015D015F0040F12D0236813F0200F03D136
:102A3000236823F004032360436C03F01F02016C3E
:102A4000042393404B60036B03B1984738BD0222C7
:102A50009A400A421CD015F0020F19D0236813F0D7
:102A6000200F06D1236823F00A032360012380F896
:102A70002530436C03F01F02016C022393404B602E
:102A8000002380F82430C36A002BDFD09847DDE7AD
:102A9000082202FA03F30B42D8D015F0080FD5D064
:102AA000236823F00E032360436C03F01F03016CC3
:102AB000012202FA03F34B60C26380F82520002351
:102AC00080F82430436B002BC0D09847BEE700004D
:102AD00070B582B0002365E085685E000324B440D1
:102AE00025EA0405CC68B4402C438460446824EA99
:102AF0000C0C4C68C4F300149C4044EA0C04446081
:102B000061E0DD08083550F8256003F007044FEA5E
:102B1000840C0F2404FA0CF426EA040E0C6904FA5F
:102B20000CF444EA0E0440F8254063E0052400E07C
:102B3000002404FA0EF42C430CF1020C574D45F816
:102B40002C40574CA568D44325EA0206D1F804C0AE
:102B50001CF4801F01D042EA0506514DAE60ED68BD
:102B600004EA0506D1F804C01CF4001F01D042EAB3
:102B700005064B4DEE606D6804EA0506D1F804C009
:102B80001CF4003F01D042EA0506454D6E602D68F9
:102B90002C404E6816F4803F01D042EA0504404ABA
:102BA000146001330A6832FA03F474D04FF0010C58
:102BB0000CFA03FC1CEA0202F3D04C6804F0030494
:102BC000013C012C88D94C6804F00304032C0CD080
:102BD000C4685D004FF0030C0CFA05FC24EA0C0CF1
:102BE0008C68AC4044EA0C04C4604C6804F00304F4
:102BF000022C86D004684FEA430E4FF0030C0CFA07
:102C00000EFC24EA0C0C4C6804F0030404FA0EF4E5
:102C100044EA0C0404604C6814F4403FC1D0214CD9
:102C2000256E45F001052566246E04F0010401942B
:102C3000019C4FEA930C0CF10205184C54F82550F6
:102C400003F003044FEA840E0F2404FA0EF425EA7D
:102C50000405B0F1904F3FF46BAF134CA04212D07B
:102C600004F58064A04210D004F58064A0420ED028
:102C700004F58064A0420CD004F58064A0423FF4C7
:102C800055AF062455E7012453E7022451E70324F6
:102C90004FE704244DE702B070BD00BF00000140C3
:102CA0000004014000100240000400480AB18161A4
:102CB000704781627047436901EA030221EA030118
:102CC00041EA024181617047002836D13E4B1B68C2
:102CD00003F4C063B3F5806F08D03B4AD2F880306C
:102CE00023F48073C2F8803000207047364AD2F84F
:102CF000803023F48073C2F88030136823F4C063FB
:102D000043F400731360314B1B68322202FB03F360
:102D10002F4AA2FB03239B0C013300E0013B2A4A0C
:102D2000526912F4806F01D0002BF7D1264B5B69FA
:102D300013F4806F44D100207047B0F5007F08D0B5
:102D4000214A136823F4C06343F4806313600020B6
:102D500070471D4B1B6803F4C063B3F5806F08D048
:102D6000194AD2F8803043F48073C2F880300020D2
:102D70007047154AD2F8803043F48073C2F880302F
:102D8000136823F4C06343F4007313600F4B1B6894
:102D9000322202FB03F30E4AA2FB03239B0C0133F6
:102DA00000E0013B084A526912F4806F01D0002B09
:102DB000F7D1054B5B6913F4806F03D10020704796
:102DC000032070470320704700700040000000207F
:102DD00083DE1B43024A936843F480439360704749
:102DE00000700040124BDA6802F00302D868C0F3AA
:102DF0000310431C032A11D00E48B0FBF3F00C4B18
:102E0000DB68C3F3062303FB00F0094BDB68C3F365
:102E1000416301335B00B0FBF3F070470648B0FB41
:102E2000F3F0034BDB68C3F3062303FB00F0ECE78E
:102E3000001002400024F40000366E01002800F06B
:102E40004F8270B582B00446036813F0010F37D08B
:102E5000A44A936803F00C03D26802F003020C2B1F
:102E600023D0082B23D06368B3F5803F4ED0B3F551
:102E7000A02F51D09B4B1A6822F480321A601A6836
:102E800022F480221A606368002B52D0FFF7ACFB5B
:102E90000546944B1B6813F4003F11D1FFF7A4FBC8
:102EA000401B6428F5D9032023E2032AD9D18D4B96
:102EB0001B6813F4003F03D06368002B00F01282FC
:102EC000236813F0020F5DD0864A936803F00C0369
:102ED000D26802F003020C2B3AD0042B3AD0E368FC
:102EE000002B75D07F4A136843F480731360FFF79B
:102EF0007BFB05467B4B1B6813F4806F5FD1FFF7AC
:102F000073FB401B0228F5D90320F2E1754A1368D0
:102F100043F480331360B6E703F18043A3F53C33F9
:102F20001A6842F480221A601A6842F480321A60E9
:102F3000A9E7FFF759FB05466A4B1B6813F4003FEE
:102F4000BED0FFF751FB401B6428F5D90320D0E128
:102F5000022AC2D1634B1B6813F4806F03D0E3686D
:102F6000002B00F0C1815F4A536823F0FE432169C2
:102F700043EA016353605C4B1868FFF7F1FA0028DD
:102F800040F0B481236813F0080F4CD063699BB301
:102F9000544AD2F8943043F00103C2F89430FFF75A
:102FA00023FB05464F4BD3F8943013F0020F3AD170
:102FB000FFF71AFB401B0228F4D9032099E1494A84
:102FC000536823F0FE43216943EA01635360D9E764
:102FD000444A136823F480731360FFF705FB05462A
:102FE000404B1B6813F4806FCCD0FFF7FDFA401BF9
:102FF0000228F5D903207CE13A4AD2F8943023F034
:103000000103C2F89430FFF7EFFA0546354BD3F8C9
:10301000943013F0020F06D0FFF7E6FA401B0228A7
:10302000F4D9032065E1236813F0040F00F08180D8
:103030002C4B9B6D13F0805F36D12A4B9A6D42F07A
:1030400080529A659B6D03F080530193019B01258B
:10305000264B1B6813F4807F28D0A368012B39D03E
:10306000052B45D01F4BD3F8902022F00102C3F866
:103070009020D3F8902022F00402C3F89020A36897
:10308000002B43D0FFF7B0FA0646164BD3F890302A
:1030900013F0020F4CD1FFF7A7FA801B41F28833DF
:1030A0009842F2D9032024E10025D1E70F4A1368A2
:1030B00043F480731360FFF797FA06460B4B1B68C7
:1030C00013F4807FC9D1FFF78FFA801B0228F5D94E
:1030D00003200EE1034AD2F8903043F00103C2F816
:1030E0009030CCE700100240080000200070004043
:1030F000884BD3F8902042F00402C3F89020D3F814
:10310000902042F00102C3F89020B8E7FFF76CFA74
:103110000646804BD3F8903013F0020F08D0FFF72B
:1031200063FA801B41F288339842F2D90320E0E031
:10313000E5B9236813F0200F35D0A369E3B1754AD0
:10314000D2F8983043F00103C2F89830FFF74CFAF8
:103150000546704BD3F8983013F0020F23D1FFF7D8
:1031600043FA401B0228F4D90320C2E0694A936D58
:1031700023F080539365DCE7664AD2F8983023F059
:103180000103C2F89830FFF72FFA0546614BD3F8D8
:10319000983013F0020F06D0FFF726FA401B0228E2
:1031A000F4D90320A5E0E369002B00F0A180594A7F
:1031B000926802F00C020C2A64D0022B13D0554AFC
:1031C000136823F080731360FFF70EFA0446514B27
:1031D0001B6813F0007F4ED0FFF706FA001B022891
:1031E000F5D9032085E04B4A136823F08073136000
:1031F000FFF7FAF90546474B1B6813F0007F06D02E
:10320000FFF7F2F9401B0228F5D9032071E0414A8B
:10321000D36841491940236A606A013843EA0013C0
:10322000A06A43EA0023206B4008013843EA405378
:10323000606B4008013843EA4063E06A43EAC063D8
:103240000B43D360136843F080731360D36843F07B
:103250008073D360FFF7C8F904462E4B1B6813F048
:10326000007F06D1FFF7C0F9001B0228F5D9032023
:103270003FE000203DE0274AD168284B0B40D36057
:10328000002036E0012B36D0224BDB6803F003012F
:10329000226A914231D103F0F002616A0139B2EB46
:1032A000011F2CD103F4FE42A16AB2EB012F28D1F9
:1032B00003F07842E16AB2EBC16F24D103F4C0019C
:1032C000226B5208013AB1EB425F1ED103F0C0639A
:1032D000626B5208013AB3EB426F18D1002008E04C
:1032E00001207047012004E0012002E0012000E0FD
:1032F000002002B070BD0120FBE70120F9E70120AA
:10330000F7E70120F5E70120F3E70120F1E70120CD
:10331000EFE700BF001002400C809F01FCFFEEFEB3
:103320001E4B9B6803F00C03042B33D01B4B9B6894
:1033300003F00C03082B2FD0184B9B6803F00C03F1
:103340000C2B01D000207047144BDA6802F0030206
:10335000D868C0F30310431C032A11D01048B0FBF7
:10336000F3F00E4BDB68C3F3062303FB00F00B4BBB
:10337000DB68C3F3416301335B00B0FBF3F07047DC
:103380000848B0FBF3F0054BDB68C3F3062303FBEF
:1033900000F0ECE702487047024870470010024016
:1033A0000024F40000366E01002800F0E680F8B535
:1033B0000C460546744B1B6803F00F038B420BD27F
:1033C000714A136823F00F030B431360136803F073
:1033D0000F038B4240F0D3802E6816F001065FD0B9
:1033E0006B68032B2FD0022B4DD0684B1B6813F456
:1033F000806F00F0C680FFF793FF654B98424DD970
:10340000624A936823F0F00343F0800393608026C0
:103410005E4A936823F0030369680B439360FFF7E8
:10342000E3F80746594B9B6803F00C036A68B3EB5B
:10343000820F35D0FFF7D8F8C01B41F2883398428D
:10344000F0D9032078E0514B1B6813F0007F01D1C5
:10345000012071E0FFF7C6FC4D4B98421AD94B4B47
:103460009B6813F0F00F05D02E6816F00206CFD03F
:10347000AB688BB9454A936823F0F00343F08003AF
:1034800093608026C4E7414B1B6813F4003FB2D120
:10349000012051E00026BBE70026B9E70026B7E788
:1034A0002B6813F0020F48D013F0040F04D0374AF2
:1034B000936843F4E06393602B6813F0080F06D021
:1034C000324A936823F47C5343F4E06393602F4AB9
:1034D000936823F0F003A9680B4393602A4B1B68A1
:1034E00003F00F03A34230D82B6813F0040F06D06B
:1034F000264A936823F4E063E9680B4393602B68E2
:1035000013F0080F07D0214A936823F46053296908
:1035100043EAC1039360FFF703FF1C4B9B68C3F3AF
:1035200003131C4AD35C03F01F03D8401A4B1860E6
:103530001A4B1868FFF714F8F8BD802ECED1134A45
:10354000936823F0F0039360C8E70F4A136823F0F1
:103550000F0323431360FFF747F806460A4B1B6827
:1035600003F00F03A342BFD0FFF73EF8801B41F2E8
:1035700088339842F2D90320DEE70120704701200A
:10358000DAE70120D8E700BF002002400010024027
:1035900000B4C40440A5000800000020080000207A
:1035A000014B1868704700BF0000002008B5FFF706
:1035B000F7FF054B9B68C3F30223044AD35C03F077
:1035C0001F03D84008BD00BF0010024050A50008EE
:1035D00008B5FFF7E5FF054B9B68C3F3C223044A18
:1035E000D35C03F01F03D84008BD00BF00100240A9
:1035F00050A50008F0B583B00446036813F4002F0B
:1036000069D0AE4B9B6D13F0805F1ED1AB4B9A6DB2
:1036100042F080529A659B6D03F080530193019BA9
:103620000126A74A136843F480731360FEF7DCFF9A
:103630000546A34B1B6813F4807F08D1FEF7D4FF27
:10364000401B0228F5D9032502E00026E9E7002502
:1036500045BB9A4BD3F8903013F4407315D0226CCD
:103660009A4212D0954AD2F8903023F44073D2F89F
:10367000901041F48031C2F89010D2F8901021F4EB
:103680008031C2F89010C2F8903013F0010F10D1C1
:1036900045B98A4AD2F8903023F44073216C0B4329
:1036A000C2F89030C6B1854A936D23F0805393657C
:1036B00012E0FEF799FF0746804BD3F8903013F0E5
:1036C000020FE5D1FEF790FFC01B41F2883398420C
:1036D000F2D90325DCE70025236813F0010F08D099
:1036E000764AD2F8883023F0030361680B43C2F8AE
:1036F0008830236813F0020F08D0704AD2F888305F
:1037000023F00C03A1680B43C2F88830236813F040
:10371000040F08D0694AD2F8883023F03003E168FA
:103720000B43C2F88830236813F0080F08D0634AAF
:10373000D2F8883023F0C00321690B43C2F88830E7
:10374000236813F0200F08D05C4AD2F8883023F4A5
:10375000406361690B43C2F88830236813F0400F5F
:1037600008D0564AD2F8883023F44053A1690B435D
:10377000C2F88830236813F0800F08D04F4AD2F87F
:10378000883023F44043E1690B43C2F88830236852
:1037900013F4807F08D0494AD2F8883023F44033AC
:1037A000216A0B43C2F88830236813F4007F08D0E5
:1037B000424AD2F8883023F44023616A0B43C2F8AE
:1037C0008830236813F4806F0CD03C4AD2F88830DC
:1037D00023F44013A16A0B43C2F88830A36AB3F5FF
:1037E000801F57D0236813F4006F0CD0334AD2F8EF
:1037F000883023F44003E16A0B43C2F88830E36A5F
:10380000B3F5800F4BD0236813F4805F0CD02B4AA4
:10381000D2F8883023F04073216B0B43C2F8883014
:10382000236BB3F1807F3FD0236813F4005F0CD08B
:10383000224AD2F8883023F04063616B0B43C2F810
:103840008830636BB3F1006F33D0236813F4804F7B
:103850000CD01A4AD2F8883023F04063A16B0B4396
:10386000C2F88830A36BB3F1006F2BD0236813F438
:10387000004F0CD0114AD2F8883023F04053E16B4E
:103880000B43C2F88830E36BB3F1805F1FD028464A
:1038900003B0F0BDD36843F48013D360A2E7D368CC
:1038A00043F48013D360AEE7D36843F48013D3604E
:1038B000BAE7D36843F48013D360C6E70010024030
:1038C00000700040D36843F48013D360CEE7D36820
:1038D00043F48033D360DAE700286FD010B5044694
:1038E000436A33B94368B3F5827F05D00023C361CF
:1038F00002E00023036143610023A36294F85D307A
:10390000002B52D0022384F85D302268136823F024
:1039100040031360E368B3F5E06F4CD90022B3F5C0
:10392000706F04D0B3F5E06F01D00023A362636829
:1039300003F48273A16801F404410B43216901F08F
:1039400002010B43616901F001010B43A16901F41C
:1039500000710B43E16901F038010B43216A01F06A
:1039600080010B43A16A01F4005120680B430360FE
:10397000638B03F00403616A01F010010B43616B78
:1039800001F008010B43E16801F470610B43216809
:1039900013434B602268D36923F40063D361002092
:1039A0002066012384F85D3010BD84F85C30204629
:1039B000FEF746FCA6E74FF48052B0E701207047BF
:1039C000026852E8003F23F0C00342E800310029BA
:1039D000F6D1026802F1080353E8003F23F4000324
:1039E000083242E800310029F3D12023C0F88830A2
:1039F0007047026852E8003F23F4907342E80031B8
:103A00000029F6D1026802F1080353E8003F23F0D1
:103A1000805323F00103083242E800310029F1D13C
:103A2000C36E012B06D02023C0F88C300023C36660
:103A300043677047026852E8003F23F0100342E8F2
:103A400000310029F6D1EEE71346D0F88820202A6D
:103A50003DD110B5044600293BD0002B3BD0016579
:103A6000A0F85430A0F856300022C0F8902021224F
:103A7000C0F88820C26FCAB11849D162C26F184914
:103A80001163C26F17495163C26F002191630268CD
:103A90002832016DC06FFEF7F9FE38B11023C4F86B
:103AA00090302023C4F8883001200FE023684022A2
:103AB0001A62226802F1080353E8003F43F08003D2
:103AC000083242E800310029F3D1002010BD022065
:103AD00070470120FAE70120F8E700BFEB3A000841
:103AE000593B0008653B0008704708B50346806AEB
:103AF0001B681B6813F0200F18D10023A0F8563064
:103B0000026802F1080353E8003F23F08003083203
:103B100042E800310029F3D1026852E8003F43F047
:103B2000400342E800310029F6D108BDFFF7DCFF71
:103B3000FBE708B5026852E8003F23F0400342E883
:103B400000310029F6D12023C0F888300023836794
:103B5000FFF7CAFF08BD704708B5806AFFF7FBFF93
:103B600008BD704738B5846AD4F88820D4F88C50E2
:103B700023689B6813F0800F01D0212A10D023689E
:103B80009B6813F0400F01D0222D10D0D4F8903054
:103B900043F01003C4F890302046FFF7E2FF38BD31
:103BA0000023A4F856302046FFF70AFFE7E700237A
:103BB000A4F85E302046FFF71CFFE7E708B5806AEF
:103BC0000023A0F85E30A0F85630FFF7CAFF08BD0A
:103BD0007047000070B504460168CB6908688D68BD
:103BE00040F60F021A4008D113F0200F05D010F054
:103BF000200F34D115F0805F31D12AB1994A2A4083
:103C000033D1994E304230D1E26E012A00F0C680A5
:103C100013F4801F03D015F4800F40F0658113F07A
:103C2000800F07D010F0800F40F0658115F4000F71
:103C300040F0618113F0400F03D010F0400F40F0CE
:103C4000618113F4000F03D010F0804F40F05E81CB
:103C500013F0807F02D00028C0F25C8170BD636FDA
:103C6000002BFBD020469847F8E713F0010F09D04E
:103C700010F4807F06D001260E62D4F890103143F4
:103C8000C4F8901013F0020F0BD015F0010F08D0FC
:103C9000216802260E62D4F8901041F00401C4F8A5
:103CA000901013F0040F0BD015F0010F08D021680D
:103CB00004260E62D4F8901041F00201C4F890106E
:103CC00013F0080F0BD010F0200F00D13AB122688A
:103CD00008211162D4F890200A43C4F8902013F40C
:103CE000006F0CD010F0806F09D022684FF4006193
:103CF0001162D4F8902042F02002C4F89020D4F849
:103D00009020002AAAD013F0200F09D010F0200F25
:103D100002D115F0805F03D0636F0BB12046984746
:103D2000D4F8902023689B6813F0400F02D112F062
:103D3000280F2CD02046FFF75CFE23689B6813F009
:103D4000400F20D0226802F1080353E8003F23F01F
:103D50004003083242E800310029F3D1D4F8803022
:103D60006BB1424A9A63D4F88000FEF70FFE002838
:103D70003FF474AFD4F88000836B98476EE7204619
:103D8000FFF7EFFE6AE72046FFF7EBFE66E7204607
:103D9000FFF7E7FE0023C4F890305FE713F0100F41
:103DA0003FF436AF10F0100F3FF432AF10230B6228
:103DB00023689B6813F0400F5AD0D4F88020136812
:103DC0005B689BB2002B3FF449AFB4F85C1099429A
:103DD0007FF644AFA4F85E3013681B6813F0200F21
:103DE00032D1226852E8003F23F4807342E8003168
:103DF0000029F6D1226802F1080353E8003F23F0BE
:103E00000103083242E800310029F3D1226802F1AF
:103E1000080353E8003F23F04003083242E8003132
:103E20000029F3D12023C4F88C300023E3662268F4
:103E300052E8003F23F0100342E800310029F6D198
:103E4000D4F88000FEF76CFD02232367B4F85C1001
:103E5000B4F85E309BB2C91A89B22046FFF7B8FEAB
:103E6000FCE600BF0100001020010004BD3B00087B
:103E7000B4F85C10B4F85E309BB2C91A89B2B4F8D9
:103E80005E309BB2002B3FF4E9AE00293FF4E6AE72
:103E9000226852E8003F23F4907342E80030002883
:103EA000F6D1226802F1080353E8003F23F0805363
:103EB00023F00103083242E800300028F1D120232A
:103EC000C4F88C300023E3666367226852E8003F41
:103ED00023F0100342E800300028F6D102232367C4
:103EE0002046FFF775FEB9E64FF480130B622046BB
:103EF00000F030FBB2E6A36F002B3FF4AFAE2046DC
:103F00009847ABE62046FFF714FEA7E6204600F0F0
:103F100023FBA3E6204600F01EFB9FE6D0F8882096
:103F2000D0F88C001043704770B504460168836870
:103F30000269134342691343C269134308688B4AF9
:103F4000024013430B602268536823F44053E16836
:103F50000B435360A1692268854B9A4201D0236AC2
:103F60001943936823F06E4323F430630B4393604B
:103F70002268D36A23F00F03616A0B43D36223687C
:103F80007C4A934223D07C4A934234D07B4A93426A
:103F90004AD07B4A934259D0754A934268D0102246
:103FA00073498B4200F09580E069B0F5004F00F056
:103FB000D280082A00F24F81DFE812F012013401AA
:103FC00010014D0137014D014D014D013A0102F53E
:103FD0005842D2F8882002F00302032A09D8DFE809
:103FE00002F002045C060122DAE70422D8E7082284
:103FF000D6E71022D4E702F5E632D2F8882002F0A4
:104000000C020C2A0ED8DFE802F0070D0D0D090D89
:104010000D0D4A0D0D0D0B000022C1E70422BFE774
:104020000822BDE71022BBE702F5E432D2F888206F
:1040300002F03002202A34D004D8A2B3102A34D19E
:104040000422ADE7302A32D10822A9E702F5E23294
:10405000D2F8882002F0C002802A2AD004D852B3B5
:10406000402A2AD104229BE7C02A28D1082297E7B8
:1040700002F5C832D2F8882002F44062B2F5006F2F
:104080001FD005D8FAB1B2F5806F1ED1042287E7A0
:10409000B2F5406F1BD1082282E7022280E702229C
:1040A0007EE702227CE700227AE7102278E71022DE
:1040B00076E7022274E7002272E7102270E71022EE
:1040C0006EE702226CE700226AE7102268E71022FE
:1040D00066E7082A00F2AF80DFE802F008AD3BADEA
:1040E00038ADADAD05004FF4004004E0FFF75EFAD7
:1040F000002800F0A280626A224B33F81220B0FB45
:10410000F2F3656805EB4501994200F29880B3EB44
:10411000053F00F29680002633463146FCF790F8C2
:10412000090241EA106100026B08C0182A463346B2
:1041300041F10001FCF784F8A0F54072124B9A425D
:1041400000F281802368D860304662E0FFF7E8F82B
:10415000CEE70E48CFE7082A77D8DFE802F0193912
:1041600005763C7676761D00084815E0F369FFCFAA
:1041700000800040003801400044004000480040FA
:10418000004C004058A50008FFFC0F000024F4007C
:10419000FFF70CFA00285AD0626A324B33F812301B
:1041A000B0FBF3F06268530803EB4000B0FBF2F0A1
:1041B000A0F110024FF6EF739A424AD883B223F06F
:1041C0000F03C0F3420018432368D860002020E0AA
:1041D000FFF7FEF9DEE7FFF7A3F8DBE7224803E08D
:1041E000FFF7E4F9002838D0626A1E4B33F812302A
:1041F000B0FBF3F0636800EB5300B0FBF3F0A0F109
:1042000010024FF6EF739A4229D8236880B2D86023
:1042100000200123A4F86A30A4F868300023636703
:10422000A36770BDFFF7D4F9DCE7FFF779F8D9E7AA
:104230004FF40040D8E70120EBE70020E9E7012038
:10424000E7E70120E5E70120E3E70120E1E70020BF
:10425000DFE70120DDE70120DBE70020D9E70120CF
:10426000D7E700BF58A500080024F400836A13F0C4
:10427000080F06D00268536823F40043816B0B4398
:104280005360836A13F0010F06D00268536823F469
:104290000033C16A0B435360836A13F0020F06D0E8
:1042A0000268536823F48033016B0B435360836AC5
:1042B00013F0040F06D00268536823F48023416B87
:1042C0000B435360836A13F0100F06D002689368A3
:1042D00023F48053C16B0B439360836A13F0200F68
:1042E00006D00268936823F40053016C0B4393607B
:1042F000836A13F0400F0AD00268536823F48013D6
:10430000416C0B435360436CB3F5801F0BD0836A41
:1043100013F0800F06D00268536823F40023C16CA9
:104320000B43536070470268536823F4C003816CE9
:104330000B435360EBE72DE9F84305460E4617465D
:104340009946DDF820802C68E46936EA04030CBF46
:104350004FF0010C4FF0000CBC4536D1B8F1FF3FD7
:10436000F1D0FEF741F9A0EB0900404530D8B8F193
:10437000000F2FD02B681A6812F0040FE3D0802EA4
:10438000E1D0402EDFD0DA6912F0080F11D1DA69DE
:1043900012F4006FD7D04FF400621A622846FFF77C
:1043A00028FB2023C5F89030002385F884300320B3
:1043B0000CE008241C622846FFF71BFBC5F8904060
:1043C000002385F88430012000E00020BDE8F88358
:1043D0000320FBE70320F9E730B583B00446002350
:1043E000C0F89030FEF700F905462268126812F016
:1043F000080F10D123681B6813F0040F28D1202365
:10440000C4F88830C4F88C300020E066206784F857
:10441000840003B030BD6FF07E430093034600225A
:104420004FF400112046FFF786FF0028E2D02268F3
:1044300052E8003F23F0800342E800310029F6D122
:104440002023C4F88830002384F884300320E0E778
:104450006FF07E4300932B4600224FF480012046EC
:10446000FFF769FF0028CAD0226852E8003F23F412
:10447000907342E800310029F6D1226802F1080366
:1044800053E8003F23F00103083242E800310029DD
:10449000F3D12023C4F88C30002384F88430032027
:1044A000B7E778B310B50446D0F888300BB32423AF
:1044B000C4F888302268136823F001031360A36AEC
:1044C000E3B92046FFF730FD012811D02268536878
:1044D00023F4904353602268936823F02A03936087
:1044E0002268136843F0010313602046FFF774FF4E
:1044F00010BD80F88430FDF7A1FFD8E72046FFF714
:10450000B5FEDEE701207047436E2BB90123A0F80A
:104510006A30A0F86830704730B403689A68C2F314
:1045200042629968490F094D6B5CDB00084C615C85
:1045300093FBF1F3A0F86A30AB5CDB00A25C93FB69
:10454000F2F3A0F8683030BC704700BF78A50008CF
:1045500070A5000870477047704790F88430012BB1
:1045600018D0012380F884302423C0F888300368F1
:104570001A68196821F00101196022F00052002325
:10458000436601680A602022C0F8882080F88430E1
:10459000184670470220704738B590F88430012BD8
:1045A0001DD00446012380F884302423C0F88830CD
:1045B00003681D681A6822F001021A600268936895
:1045C00023F0604319439160FFF79EFF23681D604D
:1045D0002023C4F88830002084F8840038BD0220ED
:1045E000FCE738B590F88430012B1DD00446012338
:1045F00080F884302423C0F8883003681D681A6866
:1046000022F001021A600268936823F06063194384
:104610009160FFF779FF23681D602023C4F888307C
:10462000002084F8840038BD0220FCE708B54FF470
:1046300080410448FEF73FFB4FF47A70FDF7DAFF44
:1046400008BD00BF0008004808B50248FDF7ECFCB3
:1046500008BD00BF80A5000808B50248FFF7E6FFC7
:1046600008BD00BF340B002008B5062000F080F81C
:104670000120FDF759FE00BF014B1868704700BFCD
:104680000C00002070B50D4E0D4D761BB61006D0F7
:10469000002455F8043B01349847A642F9D1094E4D
:1046A000094D761B05F040FFB61006D0002455F8E2
:1046B000043B01349847A642F9D170BD9CAA00087A
:1046C0009CAA0008A4AA00089CAA0008830730B589
:1046D00048D0541E002A3FD0CAB2034601E0013C34
:1046E0003AD303F8012B9D07F9D1032C2DD9CDB274
:1046F00045EA05250F2C45EA054536D9A4F11002F7
:1047000022F00F0C03F1200EE6444FEA121C03F1D5
:10471000100242E9045542E9025510327245F8D1BF
:104720000CF1010214F00C0F03EB021204F00F0C59
:1047300013D0ACF1040323F003030433134442F811
:10474000045B9342FBD10CF003042CB1CAB21C44AD
:1047500003F8012B9C42FBD130BD64461346002C6C
:10476000F4D1F9E703461446BFE71A46A446E0E74A
:1047700038B5154B1F281D6820D8D5F8DC22044613
:1047800062B152F820304BB1012B15D0591C0FD01B
:10479000002542F820509847284638BD284600F0AA
:1047A0002BF8224601462846BDE8384000F00EB8F6
:1047B00016232B60012038BD002038BD16232B6046
:1047C0004FF0FF3038BD00BF0C00002070B50C4624
:1047D000084D03460026204611461C462E60FDF774
:1047E0009BFD431C00D070BD2B68002BFBD02360C9
:1047F00070BD00BF7C0B0020FDF78CBD70B50B4E6B
:104800009AB004466FF00045CDE904451346009484
:104810000A463068064C02956946039400F006FB90
:10482000009B00221A701AB070BD00BF0C0000205F
:104830000802FFFF024B13B1024800F005B87047B1
:104840000000000055480008002301461A4618469B
:1048500002F00AB838B5084B084D5B1B9C1007D016
:10486000043B1D44013C55F804399847002CF9D10C
:10487000BDE8384005F05EBEA8AA0008A4AA00085A
:10488000704700BF704700BF704700BF704700BF50
:104890002DE9F04F01F10B06162E83B0044624D803
:1048A000102900F2BA8000F0A3FA10261822022084
:1048B000B54F3A44A2F1080153688B4200F0BA8028
:1048C0005A68D96822F003021A449D68E9608D6035
:1048D000516841F001012046516003F1080500F0E4
:1048E0008DFA284603B0BDE8F08F36F0070600F1D8
:1048F0009480B14200F2918000F07AFAB6F5FC7F24
:10490000C0F09A81730A00F08F80042B00F26F814F
:10491000B30903F1390003F1380CC3009A4F3B444B
:10492000A3F108055B689D4206D10CE0002980F2E6
:104930002781DB689D4206D05A6822F00302911B52
:104940000F29F3DD60463D69DFF840C265457CD044
:104950006A6822F00302931B0F2B00F37B81002B6C
:10496000C7E904CC80F26C81B2F5007F80F01A8137
:10497000D308796801334FEA521E012202FA0EF27F
:104980000A4357F833E0C5F808E007EBC3010839DC
:10499000E9607A6047F83350CEF80C50831001215B
:1049A0009940914257D8114206D120F003004900A6
:1049B000114200F10400FAD007EBC0094D468646CB
:1049C000D5F80C80454508D11DE1002B80F22481EB
:1049D000D8F80C80454500F01681D8F8042022F064
:1049E0000302931B0F2BF0DD2046D8E9025408EB9D
:1049F000060146F00106C8F80460EC60A56043F0CB
:104A00000104C7E90411C1E902CC4C6048F8023046
:104A100000F0F4F908F1080502E00C2323600025FA
:104A2000284603B0BDE8F08F4FF4007340204FF0EC
:104A30003F0C73E7D3689A4208BF02307FF440AF5F
:104A40003D69DFF848C1654582D17A68831001214C
:104A500099409142A7D9BD686B6823F003094E4580
:104A600003D8A9EB06030F2B7ADCDFF824B1494BFE
:104A7000DBF800201B680132334405EB090A00F023
:104A8000338103F580530F3323F47F6828F00F0838
:104A90004146204600F0B8F9411C024600F0F38080
:104AA000824500F2EE803C4B19684144196008468B
:104AB00000F04E81DBF80010019301311BBFA2EB27
:104AC0000A0A5044CBF80020186012F0070B00F0DF
:104AD0001781CBF108010A44CBF58051904408318D
:104AE000A1EB0801C1F30B0A51462046009200F0E9
:104AF0008BF9421CDDE9002300F04F81801A00EBA6
:104B00000A081968BA6048F001005144BD4250607B
:104B1000196000F02981B9F10F0F40F22781686810
:104B2000A9F10C0C2CF0070C00F0010040EA0C007D
:104B300068604FF0050E05EB0C00BCF10F0FC0E9EB
:104B400001EE00F2328150681546144B1A688A4211
:104B500038BF1960124B1A688A4238BF196094E056
:104B6000AA1943F0010346F001066E602046BA60C0
:104B7000536000F043F90835284603B0BDE8F08FD4
:104B8000D9681A44A1E600BF3C0400204404002078
:104B900044080020780B0020480B0020700B0020F8
:104BA000740B0020B2F5206F4FEA522363D3142B0D
:104BB00000F2B78003F15C01C9005B3307EB010E23
:104BC0007958AEF1080E8E4500F091804B6823F0C5
:104BD0000303934202D989688E45F7D1D1F80CE0DE
:104BE0007A68C5E9021ECEF80850CD60D6E6142BCF
:104BF00059D9542B00F29D80330B03F16F0003F160
:104C00006E0CC3008AE60EF1010E1EF0030F05F1D3
:104C100008057FF4D5AE51E0424445465368D8F8C4
:104C20000C1043F00103536055F8083F2046D9604B
:104C30008B6000F0E3F8F3E6F00806F1080237E6CF
:104C40002A442046536843F001035360083500F0BE
:104C5000D5F8E5E6A919204646F0010643F001041F
:104C60006E60C7E90411C1E902CC4C60AB5000F0A2
:104C7000C5F80835D4E6930903F13901C900383382
:104C80009CE7BD425FD0BD68686820F003084645D8
:104C9000A8EB060302D80F2B3FF762AF204600F0C7
:104CA000ADF80025BCE603F15C0003F15B0CC3002A
:104CB00034E659F808394B4540F0968010F0030F60
:104CC00000F1FF30F5D17B6823EA01037B604900E6
:104CD00099423FF6C0AE19B9BDE649000EF1040E87
:104CE0001942FAD0704667E603F11008D0E69A1030
:104CF0004FF001087B6808FA02F21A437A6070E705
:104D000002EB08014942C1F30B0A514620460092CA
:104D100000F07AF8431CDDE900237FF4EFAEDA46B9
:104D2000EFE6542B25D8130B03F16F01C9006E3346
:104D300044E7B3F5AA7F25D8F30B03F1780003F11C
:104D4000770CC300EAE5294B186840441860B1E6C7
:104D5000CAF30B0CBCF1000F7FF4ACAEBD68C844C5
:104D600048F001006860F0E61546EEE60123536066
:104D700094E7B3F5AA7F23D8D30B03F17801C900D8
:104D800077331BE740F25452934223D8B30C03F11C
:104D90007D0003F17C0CC300C0E5ABF1080BD844E7
:104DA000A8EB02084FF0000AABE605F10801204627
:104DB000009302F0E3FDBD68009B68681968C4E6D3
:104DC00040F254518B420BD8930C03F17D01C90082
:104DD0007C33F3E64FF47E737F204FF07E0C9DE52D
:104DE0004FF47E717E23E9E67B6870E7480B002074
:104DF0000148FFF749BD00BF3C0B00200148FFF709
:104E000045BD00BF3C0B002038B5074D00220446CD
:104E100008462A60FDF7B8FA431C00D038BD2B685D
:104E2000002BFBD0236038BD7C0B00202DE9F04F18
:104E3000D5B00C460C9191460E930A9002F0A4FE58
:104E4000036817931846FCF79BFBA3891690190675
:104E500003D52369002B00F08B8700242BAB4D4634
:104E6000CDE92944CDE91944CDE91B441294289396
:104E700098461894002308940024CDE914342B7824
:104E8000002B00F0DD81AA4604E01AF8013F002B58
:104E900000F01681252BF8D1BAEB050640F01481FD
:104EA0009AF80030002B00F0CB8100234FF0FF3246
:104EB0009AF801608DF8833009930AF1010A07928C
:104EC0001F462B244FF020090AF1010AA6F1200306
:104ED0005A2B00F22D81DFE813F0BA022B012B01CF
:104EE000B5022B012B012B016A002B012B014F0274
:104EF000E3022B015A02C9022B01C4025B005B00D2
:104F00005B005B005B005B005B005B005B002B01F8
:104F10002B012B012B012B012B012B01BF012B019D
:104F20001A028600BF01BF01BF012B012B012B011B
:104F30002B01B0022B012B01C3002B012B012B01F4
:104F400024022B015F022B012B013C072B012B01BB
:104F50002B012B012B012B012B012B01BF012B015D
:104F60001A028800BF01BF01BF01A30288008100AF
:104F70002B0196022B018202C500700281002B01D9
:104F800024027E0039072B012B0119072B017E001B
:104F9000A6F1300300221AF8016B02EB820203EB48
:104FA0004202A6F13003092BF5D909928EE7DDF80C
:104FB00028B0584602F0E8FD43681B931846FCF7FA
:104FC000DFFA1C900646584602F0DEFD836819930E
:104FD000002E40F07A869AF8006075E79AF8006033
:104FE00047F0200770E747F01007BA060E9B40F124
:104FF0008081073323F007031A465B6852F8084B99
:105000000E929946002BC0F25F85079B013301F099
:105010001F8054EA090327F0800B00F0E3840A2C78
:1050200079F1000380F08187303401238DF84F41FE
:105030005F460B930DF24F1507990B989DF883204F
:1050400081424FF00003B8BF01460D9306910F93C4
:1050500013931093002A7CD0069B0133069378E0CB
:1050600047F0100717F0200900F034810E9B07333A
:1050700023F00703D3F8049053F8084B0E9327F45A
:10508000806B002300228DF88320079A511C00F0CA
:105090000D8254EA09012BF0800740F00682002AB5
:1050A00041F01080002B40F0A2841BF001030B9311
:1050B00000F0378530238DF84F310DF24F15BBE7E7
:1050C000BAEB050600F0BC802A9B33442A93299B47
:1050D0000133072BC8E90056299305DC08F10808BD
:1050E000089B33440893DBE60C990A9828AA03F03E
:1050F00063F980B90DF1AC08F2E70C990A9828AA77
:1051000003F05AF9002800F08C800D9B1BB10D991B
:105110000A9802F033FC0C9B9B8913F0400F089B0C
:1051200018BF4FF0FF330893089855B0BDE8F08FD3
:10513000002E00F0858000228DF8EC608DF8832031
:10514000012306930D920B9307920F9213921092E4
:105150003BAD17F0020302D006990231069117F019
:10516000840B07D109990698A1EB0009B9F1000F4A
:1051700000F315832A9C8AB1299A0DF1830101322B
:105180000134C8F80010072A4FF001012A9429922F
:10519000C8F8041000F3468308F1080883B1299B7E
:1051A00021AA01330234C8F80020072B4FF0020275
:1051B0002A942993C8F8042000F3488308F10808CA
:1051C000BBF1800F00F00E82079B0B9AA3EB020B42
:1051D000BBF1000F00F34F82FB0500F1A5810B9B93
:1051E000C8F804301C44299BC8F800500133072B31
:1051F0002A94299300F3C78208F108087B0705D594
:10520000099B069A9D1A002D00F32C83DDE90832D4
:1052100006998A42ACBF9B185B180893002C7FF458
:105220006CAF002329930D9B1BB10D990A9802F0D6
:10523000A5FB0DF1AC0855462B78002B7FF423AE6F
:105240002A9B002B3FF467AF0C9C0A9828AA2146A2
:1052500003F0B2F8A38960E70E9B073323F007023F
:10526000F2E80234CDE91434DDE9143424F00044CA
:105270000E92994618462146A74B4FF0FF32FCF795
:1052800095FE002840F06284A34B484621464FF02B
:10529000FF32FCF76DFE002840F05884DDE9140170
:1052A00000220023FCF75AFE002840F0AD879DF84D
:1052B00083209A4D9A4B27F080070321472EC8BFC1
:1052C0001D4600230D9306910B9107930F931393A3
:1052D0001093BFE617F0100340F02E8417F0400241
:1052E00000F054870E9A52F8044B0E929946A4B2DD
:1052F000C5E653F8044B0E93FB0600F118847D06B7
:1053000040F1128444F3C0394B4624B27AE60E9B36
:10531000002253F8041B8DF883208DF8EC100E93B7
:105320000EE70E9C079B54F8045B4FF000098DF8C4
:105330008390002D00F0D5865A1C00F052851A4645
:1053400049462846FCF78CF90D90002801F057805B
:105350000D9BCDF81C905B1B0B930E9423EAE3731B
:105360009DF883200693CDF83490CDF83C90CDF88D
:105370004C90CDF840906DE60E9B53F8042B0992AB
:10538000002A80F2C983099A0E93524209929AF830
:10539000006047F0040797E547F0100B1BF0200969
:1053A00000F081830E9B073323F00703D3F80490AA
:1053B00053F8084B0E93012364E60E9B53F8044BFD
:1053C0000E93302378268DF88430564B189347F08F
:1053D000020B8DF885604FF00009022352E6BD06EE
:1053E00000F18284FC0600F17386780600F13C87A8
:1053F000B90540F16D860E9B089953F8042B0E9366
:105400001170554618E79AF800606C2E03BF9AF8A1
:10541000016047F020070AF1010A47F0100753E541
:105420009AF80060682E03BF9AF8016047F400778D
:105430000AF1010A47F0400746E59AF8006047F094
:10544000080741E59AF8006047F001073CE59DF840
:105450008330002B7FF4BFAD9AF800608DF8839005
:1054600032E59AF8006047F080072DE5524612F8C1
:10547000016B2A2E01F0CD81A6F13003092B924653
:1054800098BF002201F288801AF8016B02EB8202B9
:1054900003EB4202A6F13003092BF5D9079215E57B
:1054A0009AF800608DF883400EE5BB46012B3FF46F
:1054B000B6AD022B54AD12D1189A04F00F03240993
:1054C000D35C05F8013D44EA09744FEA191954EA1E
:1054D0000903F2D154AB5B1B5F460B93ACE504F0C0
:1054E0000703E40844EA49744FEAD909303354EA1F
:1054F00009012A4605F8013DF1D11BF0010FE9D061
:10550000302BE7D03023023A05F8013C54AB9B1A0C
:105510005F460B9315468FE5FFFFEF7F90A50008D0
:1055200094A50008A0A50008652E40F3E680DDE9FB
:10553000140100220023FCF707FD002800F0CD81B4
:10554000299BBF4AC8F80020013301340122072BF0
:105550002A942993C8F8042000F37D8508F10808EF
:10556000229B129A934280F2D382169B179A1C4474
:10557000C8E90023299B2A940133072B299300F3C0
:10558000EB8308F10808129B5D1E002D7FF736AEF5
:10559000102D299BDFF8AC9240F36E8549462246D8
:1055A000B946DDF828B00C9C10260F4605E008F13E
:1055B0000808103D102D40F35B8501331032072B96
:1055C000C8E90076CDE92932F1DD28AA21465846FE
:1055D00002F0F2FE00287FF498ADDDE929320DF1EA
:1055E000AC08E6E7099B069AA3EB020BBBF1000FA0
:1055F0007FF7EAADBBF1100F299ADFF848922CDD56
:105600001D9621464E460C9CDDF82890102306E09E
:10561000ABF1100BBBF1100F08F108081ADD0132D5
:105620001031072AC8E90063CDE92921F0DD28AA55
:10563000214648460DF1AC0802F0BEFE00287FF47A
:1056400064ADABF1100BBBF1100FDDE929214FF078
:105650001003E4DCB1461D9E0C4601325C44072A6F
:10566000CDE92924C8F80090C8F804B000F31D85DE
:1056700008F10808A8E5BBF1100F299ADFF8C491DA
:105680002DDD41462046A8464C460C9DDDF828906D
:10569000102306E0ABF1100BBBF1100F01F1080174
:1056A00019DD01321030072AC1E90043CDE9292074
:1056B000F0DD28AA2946484602F07EFE00287FF445
:1056C00024ADABF1100BBBF1100FDDE929202BA9A4
:1056D0004FF01003E5DC4546A146884604460132FA
:1056E0005C44072ACDE92924C8F80090C8F804B022
:1056F00000F3CC8108F108086EE5129B012B40F302
:105700007C81299EC8F80050013601340123072E00
:105710002A942996C8F8043000F3E08108F10808BB
:10572000169B179A01361C44072EC8E90023CDE9C1
:10573000296400F3E08108F10808DDE91401002282
:105740000023FCF701FC002840F07481129B013615
:10575000013B01351C44072EC8F800502996C8F8B3
:1057600004302A9400F3598108F108081A9BC8F8FC
:10577000043001361C44072E24ABCDE92964C8F857
:1057800000307FF739AD0C990A9828AA02F014FE70
:1057900000287FF4BAAC2A9C0DF1AC082EE5B9F1D3
:1057A000100FDDE929212BDDCDE91D3B1F96DDF82A
:1057B00028B04E461024A9460C9D04E0103E102E41
:1057C00008F1080817DD01321F4B1031072AC8E91C
:1057D0000034CDE92921F1DD28AA294658460DF1EA
:1057E000AC0802F0E9FD00287FF48FAC103E102ECB
:1057F000DDE92921E7DCDDE91D3B4D46B1461F9E71
:10580000C8F80490013209EB0104072A0E49C8F8D0
:105810000010CDE9292400F3FF839DF8832008F1CF
:105820000808A8E40C990A981D9328AA02F0C4FD60
:1058300000287FF46AAC2A9C1D9B0DF1AC08ADE4F6
:10584000D0A50008E4A50008D4A500080C990A9882
:1058500028AA02F0B1FD00287FF457AC2A9C0DF174
:10586000AC08ADE4102D299B21DD0A9FDDF83090B6
:10587000102604E0103D102D08F1080817DD013353
:10588000B04A1034072BC8E90026CDE92934F1DDF0
:1058900028AA494638460DF1AC0802F08DFD0028D3
:1058A0007FF433AC103D102DDDE92934E7DC013302
:1058B000A44AC8F804502C44072BCDE92934C8F871
:1058C00000207FF7A3AC0C990A9828AA02F074FD77
:1058D00000287FF41AAC2A9C98E42299002940F30E
:1058E0006683DDF84090129B9945A8BF9946B9F1AF
:1058F000000F0BDD299B01334C44072BC8E90059ED
:105900002A94299300F32F8508F10808109EB9F115
:10591000000FA8BFA6EB0906002E00F33882DDF8C1
:1059200040B07805AB4400F16682229B129A934204
:1059300002DBF90740F18E84169A17991444C8E9DE
:105940000012299A2A940132072A299200F3188515
:1059500008F10808129AAE18A6EB0B06D51AAE424B
:10596000A8BF2E46002E0DDD299BC8F800B00133DC
:105970003444072BC8F804602A94299300F31A864C
:1059800008F10808002EA8BFAD1B002D7FF736AC2C
:10599000102D299BDFF8B09140F36E8349462246D3
:1059A000B946DDF828B00C9C10260F4605E008F13A
:1059B0000808103D102D40F35B8301331032072B94
:1059C000C8E90076CDE92932F1DD28AA21465846FA
:1059D00002F0F2FC00287FF498ABDDE929320DF1EA
:1059E000AC08E6E7079B002B7FF41EAB5F46002365
:1059F00007930B9354ADFFF71FBBFA073FF581AE3A
:105A0000299EC8F80050013601340123072E2A943C
:105A10002996C8F804307FF7A7AE0C990A9828AAEF
:105A200002F0CAFC00287FF470ABDDE929640DF1B7
:105A3000AC089BE6129B5D1E002D7FF797AE102DE4
:105A4000DFF8049140F39683224607970A9C0C9F47
:105A50004FF0100B05E008F10808103D102D40F341
:105A6000878301361032072EC8E9009BCDE92962F1
:105A7000F1DD28AA3946204602F09EFC00287FF47A
:105A800044ABDDE929620DF1AC08E6E70C990A9810
:105A900028AA02F091FC00287FF437AB2A9C0DF174
:105AA000AC08FFF799BB1BF0100340F028811BF0F6
:105AB000400200F079830E9A52F8044B0E929946F8
:105AC000A4B20123FFF7DEBA2D2364428DF88330A0
:105AD00069EB4909BB460123FFF7D7BA0C990A982D
:105AE00028AA02F069FC00287FF40FABDDE92964E5
:105AF0000DF1AC0814E60C990A9828AA02F05CFC97
