:020000040800F2
:100000000080002031280008312400083324000833
:1000100035240008372400083924000800000000B7
:10002000000000000000000000000000215A00084D
:100030003B24000800000000C15A0008255B0008AE
:1000400081280008812800088128000881280008EC
:1000500081280008812800088128000881280008DC
:100060008128000881280008812800083D24000814
:1000700081280008812800088128000881280008BC
:10008000812800080000000081280008812800085D
:10009000812800088128000881280008812800089C
:1000A000812800088128000881280008812800088C
:1000B000812800084D2400088128000881280008B4
:1000C000812800088128000881280008812800086C
:1000D000812800085D240008812800088128000884
:1000E0006D24000881280008812800088128000864
:1000F00081280008812800088128000800000000ED
:10010000000000008128000800000000812800088D
:1001100081280008000000008128000881280008CC
:10012000812800088128000881280008812800080B
:10013000812800080000000000000000812800085D
:10014000812800088128000800000000000000004D
:10015000000000000000000000000000000000009F
:1001600000000000000000000000000081280008DE
:1001700081280008000000000000000000000000CE
:1001800000000000812800080000000000000000BE
:10019000000000000000000000000000000000005F
:1001A00000000000000000008128000881280008ED
:1001B000812800088128000881280008000000002C
:1001C000000000008128000800000000000000007E
:0801D0008128000881280008C5
:1002000010B5054C237833B9044B13B10448AFF350
:1002100000800123237010BDC009002000000000F1
:1002200084CD000808B5034B1BB103490348AFF365
:10023000008008BD00000000C409002084CD000833
:1002400081F0004102E000BF83F0004330B54FEA87
:1002500041044FEA430594EA050F08BF90EA020FF4
:100260001FBF54EA000C55EA020C7FEA645C7FEA87
:10027000655C00F0E2804FEA5454D4EB5555B8BFAA
:100280006D420CDD2C4480EA020281EA030382EA1B
:10029000000083EA010180EA020281EA0303362DAD
:1002A00088BF30BD11F0004F4FEA01314FF4801C80
:1002B0004CEA113102D0404261EB410113F0004F92
:1002C0004FEA03334CEA133302D0524263EB430349
:1002D00094EA050F00F0A780A4F10104D5F1200EE7
:1002E0000DDB02FA0EFC22FA05F2801841F1000142
:1002F00003FA0EF2801843FA05F359410EE0A5F116
:1003000020050EF1200E012A03FA0EFC28BF4CF046
:10031000020C43FA05F3C01851EBE37101F00045FC
:1003200007D54FF0000EDCF1000C7EEB00006EEB09
:100330000101B1F5801F1BD3B1F5001F0CD3490893
:100340005FEA30004FEA3C0C04F101044FEA4452EA
:1003500012F5800F80F09A80BCF1004F08BF5FEA71
:10036000500C50F1000041EB045141EA050130BD51
:100370005FEA4C0C404141EB0101013C28BFB1F563
:10038000801FE9D291F0000F04BF01460020B1FAAE
:1003900081F308BF2033A3F10B03B3F120020CDA81
:1003A0000C3208DD02F1140CC2F10C0201FA0CF05F
:1003B00021FA02F10CE002F11402D8BFC2F1200CC4
:1003C00001FA02F120FA0CFCDCBF41EA0C0190407A
:1003D000E41AA2BF01EB0451294330BD6FEA0404C3
:1003E0001F3C1CDA0C340EDC04F11404C4F12002AE
:1003F00020FA04F001FA02F340EA030021FA04F3C0
:1004000045EA030130BDC4F10C04C4F1200220FA16
:1004100002F001FA04F340EA0300294630BD21FA54
:1004200004F0294630BD94F0000F83F4801306BF1A
:1004300081F480110134013D4EE77FEA645C18BF0E
:100440007FEA655C29D094EA050F08BF90EA020FA5
:1004500005D054EA000C04BF1946104630BD91EA9D
:10046000030F1EBF0021002030BD5FEA545C05D1A0
:100470004000494128BF41F0004130BD14F58004DF
:100480003CBF01F5801130BD01F0004545F0FE4153
:1004900041F470014FF0000030BD7FEA645C1ABF88
:1004A000194610467FEA655C1CBF0B46024650EABF
:1004B000013406BF52EA033591EA030F41F40021EB
:1004C00030BD00BF90F0000F04BF0021704730B571
:1004D0004FF4806404F132044FF000054FF0000146
:1004E00050E700BF90F0000F04BF0021704730B507
:1004F0004FF4806404F1320410F0004548BF4042DC
:100500004FF000013EE700BF42004FEAE2014FEA30
:1005100031014FEA02701FBF12F07F4393F07F4F0B
:1005200081F06051704732F07F4208BF704793F00E
:100530007F4F04BF41F40021704730B54FF4607421
:1005400001F0004521F000411CE700BF50EA010224
:1005500008BF704730B54FF000050AE050EA0102CD
:1005600008BF704730B511F0004502D5404261EB3D
:1005700041014FF4806404F132045FEA915C3FF47E
:10058000D8AE4FF003025FEADC0C18BF03325FEA1B
:10059000DC0C18BF033202EBDC02C2F1200300FACC
:1005A00003FC20FA02F001FA03FE40EA0E0021FAF1
:1005B00002F11444BDE600BF70B54FF0FF0C4CF4DF
:1005C000E06C1CEA11541DBF1CEA135594EA0C0F91
:1005D00095EA0C0F00F0DEF82C4481EA030621EACC
:1005E0004C5123EA4C5350EA013518BF52EA033507
:1005F00041F4801143F4801338D0A0FB02CE4FF0B9
:100600000005E1FB02E506F00042E0FB03E54FF0E8
:100610000006E1FB03569CF0000F18BF4EF0010EE0
:10062000A4F1FF04B6F5007F64F5407404D25FEADC
:100630004E0E6D4146EB060642EAC62141EA55518F
:100640004FEAC52040EA5E504FEACE2EB4F1FD0CD1
:1006500088BFBCF5E06F1ED8BEF1004F08BF5FEA4F
:10066000500E50F1000041EB045170BD06F0004601
:1006700046EA010140EA020081EA0301B4EB5C04AE
:10068000C2BFD4EB0C0541EA045170BD41F48011A6
:100690004FF0000E013C00F3AB8014F1360FDEBFCB
:1006A000002001F0004170BDC4F10004203C35DAA7
:1006B0000C341BDC04F11404C4F1200500FA05F32A
:1006C00020FA04F001FA05F240EA020001F00042CB
:1006D00021F0004110EBD37021FA04F642EB060141
:1006E0005EEA430E08BF20EAD37070BDC4F10C046B
:1006F000C4F1200500FA04F320FA05F001FA04F22F
:1007000040EA020001F0004110EBD37041F100011A
:100710005EEA430E08BF20EAD37070BDC4F1200525
:1007200000FA05F24EEA020E20FA04F301FA05F28D
:1007300043EA020321FA04F001F0004121FA04F235
:1007400020EA020000EBD3705EEA430E08BF20EA05
:10075000D37070BD94F0000F0FD101F0004640003F
:1007600041EB010111F4801F08BF013CF7D041EAC1
:10077000060195F0000F18BF704703F000465200C5
:1007800043EB030313F4801F08BF013DF7D043EA96
:100790000603704794EA0C0F0CEA135518BF95EA4C
:1007A0000C0F0CD050EA410618BF52EA4306D1D1D3
:1007B00081EA030101F000414FF0000070BD50EAF2
:1007C000410606BF1046194652EA430619D094EA7C
:1007D0000C0F02D150EA013613D195EA0C0F05D166
:1007E00052EA03361CBF104619460AD181EA0301BA
:1007F00001F0004141F0FE4141F470014FF0000072
:1008000070BD41F0FE4141F4780170BD70B54FF00C
:10081000FF0C4CF4E06C1CEA11541DBF1CEA13558C
:1008200094EA0C0F95EA0C0F00F0A7F8A4EB05046E
:1008300081EA030E52EA03354FEA013100F0888065
:100840004FEA03334FF0805545EA131343EA12632E
:100850004FEA022245EA111545EA10654FEA0026E3
:100860000EF000419D4208BF964244F1FD0404F59C
:10087000407402D25B084FEA3202B61A65EB0305F8
:100880005B084FEA32024FF480104FF4002CB6EBB5
:10089000020E75EB030E22BFB61A754640EA0C0035
:1008A0005B084FEA3202B6EB020E75EB030E22BF75
:1008B000B61A754640EA5C005B084FEA3202B6EBB6
:1008C000020E75EB030E22BFB61A754640EA9C0075
:1008D0005B084FEA3202B6EB020E75EB030E22BF45
:1008E000B61A754640EADC0055EA060E18D04FEA03
:1008F000051545EA16754FEA06164FEAC30343EAA3
:1009000052734FEAC2025FEA1C1CC0D111F4801F6F
:100910000BD141EA00014FF000004FF0004CB6E768
:1009200011F4801F04BF01430020B4F1FD0C88BF07
:10093000BCF5E06F3FF6AFAEB5EB030C04BFB6EB12
:10094000020C5FEA500C50F1000041EB045170BD05
:100950000EF0004E4EEA113114EB5C04C2BFD4EB32
:100960000C0541EA045170BD41F480114FF0000EB6
:10097000013C90E645EA060E8DE60CEA135594EA32
:100980000C0F08BF95EA0C0F3FF43BAF94EA0C0F35
:100990000AD150EA01347FF434AF95EA0C0F7FF4AA
:1009A00025AF104619462CE795EA0C0F06D152EAFE
:1009B00003353FF4FDAE1046194622E750EA4106E2
:1009C00018BF52EA43067FF4C5AE50EA41047FF4F3
:1009D0000DAF52EA43057FF4EBAE12E74FF0FF3C58
:1009E00006E000BF4FF0010C02E000BF4FF0010C29
:1009F0004DF804CD4FEA410C7FEA6C5C4FEA430CA2
:100A000018BF7FEA6C5C1BD001B050EA410C0CBFF0
:100A100052EA430C91EA030F02BF90EA020F002052
:100A2000704710F1000F91EA030F58BF994208BFB9
:100A300090422CBFD8176FEAE37040F00100704776
:100A40004FEA410C7FEA6C5C02D150EA013C07D1CD
:100A50004FEA430C7FEA6C5CD6D152EA033CD3D018
:100A60005DF8040B704700BF8446104662468C4612
:100A70001946634600E000BF01B5FFF7B7FF002845
:100A800048BF10F1000F01BD4DF808EDFFF7F4FF6E
:100A90000CBF012000205DF808FB00BF4DF808EDF9
:100AA000FFF7EAFF34BF012000205DF808FB00BF1C
:100AB0004DF808EDFFF7E0FF94BF012000205DF83E
:100AC00008FB00BF4DF808EDFFF7CEFF94BF0120F3
:100AD00000205DF808FB00BF4DF808EDFFF7C4FFEC
:100AE00034BF012000205DF808FB00BF4FEA410C35
:100AF0007FEA6C5C02D150EA013C0AD14FEA430C18
:100B00007FEA6C5C02D152EA033C02D14FF0000054
:100B100070474FF0010070474FEA4102B2F1E043E5
:100B200024BFB3F5001CDCF1FE5C0DD901F0004CD4
:100B30004FEAC0024CEA5070B2F1004F40EB830024
:100B400008BF20F00100704711F0804F21D113F150
:100B50003872BCBF01F00040704741F480114FEA89
:100B60005252C2F11802C2F1200C10FA0CF320FA12
:100B700002F018BF40F001004FEAC1234FEAD3232F
:100B800003FA0CFC40EA0C0023FA02F34FEA430399
:100B9000CCE77FEA625307D150EA01331EBF4FF022
:100BA000FE4040F44000704701F0004040F0FE403D
:100BB00040F40000704700BF53B94AB9002908BF8C
:100BC00000281CBF4FF0FF314FF0FF3001F0DEB8BE
:100BD000ADF1080C6DE904CE00F006F8DDF804E094
:100BE000DDE9022304B070472DE9F047089D044673
:100BF0008E46002B4DD18A42944669D9B2FA82F2D0
:100C000052B101FA02F3C2F1200120FA01F10CFA0B
:100C100002FC41EA030E94404FEA1C48210CBEFB43
:100C2000F8F61FFA8CF708FB16E341EA034306FBCC
:100C300007F199420AD91CEB030306F1FF3080F05B
:100C40001F81994240F21C81023E63445B1AA4B2A8
:100C5000B3FBF8F008FB103344EA034400FB07F74A
:100C6000A7420AD91CEB040400F1FF3380F00A818B
:100C7000A74240F207816444023840EA0640E41B80
:100C800000261DB1D4400023C5E900433146BDE82C
:100C9000F0878B4209D9002D00F0EF800026C5E9CE
:100CA000000130463146BDE8F087B3FA83F6002EE6
:100CB0004AD18B4202D3824200F2F980841A61EB5E
:100CC000030301209E46002DE0D0C5E9004EDDE77C
:100CD00002B9FFDEB2FA82F2002A40F09280A1EB64
:100CE0000C014FEA1C471FFA8CFE0126200CB1FBB9
:100CF000F7F307FB131140EA01410EFB03F08842B2
:100D000008D91CEB010103F1FF3802D2884200F23E
:100D1000CB804346091AA4B2B1FBF7F007FB1011D0
:100D200044EA01440EFB00FEA64508D91CEB04046E
:100D300000F1FF3102D2A64500F2BB800846A4EBC9
:100D40000E0440EA03409CE7C6F12007B34022FAB4
:100D500007FC4CEA030C20FA07F401FA06F31C43E3
:100D6000F9404FEA1C4900FA06F3B1FBF9F8200CF0
:100D70001FFA8CFE09FB181140EA014108FB0EF036
:100D8000884202FA06F20BD91CEB010108F1FF3A86
:100D900080F08880884240F28580A8F10208614492
:100DA000091AA4B2B1FBF9F009FB101144EA0141A0
:100DB00000FB0EFE8E4508D91CEB010100F1FF344B
:100DC0006CD28E456AD90238614440EA0840A0FBE3
:100DD0000294A1EB0E01A142C846A64656D353D0B9
:100DE0005DB1B3EB080261EB0E0101FA07F722FADD
:100DF00006F3F1401F43C5E9007100263146BDE806
:100E0000F087C2F12003D8400CFA02FC21FA03F368
:100E1000914001434FEA1C471FFA8CFEB3FBF7F0E9
:100E200007FB10360B0C43EA064300FB0EF69E420E
:100E300004FA02F408D91CEB030300F1FF382FD2A7
:100E40009E422DD9023863449B1B89B2B3FBF7F64F
:100E500007FB163341EA034106FB0EF38B4208D928
:100E60001CEB010106F1FF3816D28B4214D9023E69
:100E70006144C91A46EA004638E72E46284605E787
:100E80000646E3E61846F8E64B45A9D2B9EB020858
:100E900064EB0C0E0138A3E74646EAE7204694E7E8
:100EA0004046D1E7D0467BE7023B614432E730461B
:100EB00009E76444023842E703685A004CBF43F034
:100EC000004323F000431844704700BF2DE9F84366
:100ED00029B34F1E044615463E464FF0000808EB66
:100EE000060101EBD171491004EBC1094846FFF737
:100EF000E3FF0346C80008308F42204409D0AB42CC
:100F000009D8FFF7D9FF0138A8420AD201F1010838
:100F1000E5E7AB4205D9884501D04E1EDFE74FF02B
:100F200000094846BDE8F883012807D0022807D009
:100F3000044B00280CBF1846002070470248704739
:100F40000248704701160008051600080916000837
:100F500030B5234B83B004468D1E3BB301A9284610
:100F6000AFF30080E8B101992A46FFF7AFFF0146D1
:100F7000B8B1FFF7A1FF4B68A064012B2CD0002B68
:100F800001F1040024DBFFF797FF0023C4E91303FA
:100F90000368002B11DBFFF78FFF2061002003B0F7
:100FA00030BD00230920236103B030BD0D4B0E4935
:100FB000C91AC91018460191D6E7C3F30360FFF7B9
:100FC000B3FF0028206114BF0020092003B030BD0A
:100FD0000123C4E91303DBE7002323610520DEE7D7
:100FE0000000000034DB000854DC00080368DA0766
:100FF00010B5044606D49B0700F1480009D500F05F
:101000005BFC2368590709D51A070ED5DB0613D5F3
:1010100010BD00F049FC23685907F5D404F1D00055
:1010200000F052FC23681A07F0D404F5A87000F011
:1010300053FC2368DB06EBD404F5E870BDE81040F0
:1010400000F08EBC092070470346006800B11844C8
:10105000704700BF704700BF70B504460E46316C44
:101060002046FFF775FF054688B9326C6261236937
:1010700032462146012098470828F0D0072806D19B
:101080002846316CFFF7E6FF301D00F001FC05F04B
:101090004DFE00BF2DE9F0470D1DD0F80C80D0F8B3
:1010A0001890074614460FCDADF5727D0DF10C0C6E
:1010B000ACE80F000FCDACE80F000FCDACE80F008F
:1010C00095E80F0002AE4FF0000E8CE80F00C6F856
:1010D00000E020E0336C7B614FF4F07231467AA877
:1010E00000F056FE3B697AAA394650469847889BDD
:1010F00073642146CDE9006905463B463A46012026
:10110000C0470446E0B94FF4F0727AA9304600F0C7
:101110003FFE082D1AD1316C3846FFF719FF09340C
:101120005FFA84FA05460028D4D0B36B73643A465C
:10113000CDE900693B464AF010010120C04700B1EB
:10114000092528460DF5727DBDE8F087072DF7D1FA
:101150002046316CFFF77EFF03A800F099FB00BF2B
:10116000406C7047F0B5CB6B0B6401F1040C0E467C
:101170000546BCE80F00F9B001AC0FC4BCE80F0095
:101180000FC4BCE80F000FC49CE80F004FF0FF37FE
:1011900084E80F00009706E02B696A4629469847C5
:1011A0000828044608D110992846FFF7D1FE0028E8
:1011B000F2D0092079B0F0BD6846FFF717FF062C82
:1011C000F7D131462846FFF747FF00BFC160D96B12
:1011D00082611964002219465CE700BF70B5C668D9
:1011E00043690B64AEB903690A4604460D460146DD
:1011F00002209847072805D008280FD12946204605
:10120000FFF72AFF3046296CFFF724FF281D00F066
:101210003FFB0122FFF73EFF05F088FD05F086FD4C
:10122000C2681AB1CA6B0A64002233E79AE700BFAA
:10123000704700BF836801460BB101201847704713
:10124000012912D009D873B90F2A0CD800EB8202F9
:1012500018465368009A136070470339012994BFF8
:10126000012002207047022070470846704700BFE7
:1012700000B585B00A46002303A900911946FFF77F
:10128000DFFF039805B05DF804FB00BF012912D011
:1012900009D873B90F2A0CD800EB8200009A1268A3
:1012A0004260184670470339012994BF012002208B
:1012B0007047022070470846704700BF10B584B0E1
:1012C000002303AC039200940A461946FFF7DEFFA1
:1012D00004B010BD70B5D36B136402F1040C054665
:1012E0000C46BCE80F00ADF50E7D0DF15C0EAEE8CE
:1012F0000F00BCE80F00AEE80F00BCE80F00AEE83E
:101300000F009CE80F004FF0FF368EE80F00169696
:1013100010E0FFF7D3FF214616A8A847034616AAF8
:101320006946082083B9049B9847052806460CD0D7
:10133000092809D026996846FFF70AFE03466A463F
:101340000C2116A8002BE4D0092616A8FFF74EFEA4
:1013500030460DF50E7D70BD2DE9F04FCC6C89B097
:101360001E4654F8043B06940D46174600F0030849
:10137000002E79D01A0C1B0405938DF81D20022332
:10138000D2B204EB82048DF81C302B6DB8F1020F41
:1013900008BFAC6B13F001030CD005A9384600F070
:1013A00079FB18B9082009B0BDE8F08F092009B011
:1013B000BDE8F08FD4F800A0BAF1000FEDD0019392
:1013C00000F008030293022E4AD0B4F800A0B4F84B
:1013D00002900434AB6C29F0010B0F2138469B447A
:1013E000FFF746FF834539D82AF001039B44834524
:1013F00094BF002001204FEA490303F002030AF0E2
:10140000010A43EA0A03012B49D0022B32D0002BF8
:10141000CCD1B8F1000F02D0002840F0CD800434C8
:10142000D4F800A0BAF1000FCDD105A9384600F0DC
:1014300031FB0028BAD1019B002BB3D00F213846D5
:10144000FFF716FF0E2102463846FFF737FF3846F2
:101450006A4A0F21FFF732FF0720A8E70020CAE7FA
:10146000D4F804900834B5E71B0205930323ADF8C4
:101470001C308AE7236823F0004BB8F1000F45D1F8
:1014800028B1029A002A5CD0BBF1000F74D0002B67
:1014900000DA04340BF1010B04EB8B04C0E7B8F164
:1014A000000F19D1B0B163682268991C4FEAD2725B
:1014B0003FF47CAF05F158010133049100F09080B6
:1014C000201DFFF7C1FD04AB01462846AFF30080A5
:1014D00000285BD10834A3E70D213846D5F82090C9
:1014E000FFF7C6FE8145F5D1AB6A9C42F2D120469A
:1014F000FFF7E2FC0F2102463846FFF7DFFE3846D1
:101500002A460021FFF7DAFE072050E70D21384672
:10151000D5F82090FFF7ACFE814501D02368B6E7EF
:10152000AB6A9C42FAD104230022C5E90B23E318DD
:10153000C5F828B06B632368002B59DB01230193A6
:10154000A8E705F15803CDF80C8004F1040AB04671
:1015500091461E460EE050460496FFF775FD0022A8
:10156000014604AB284609F101090AF1040AAFF368
:101570000080E0B9D945EED10D213846FFF778FE5D
:10158000049BAC62C5E90803062010E781460D21E3
:101590003846FFF76DFEB9F1020F286225D12B46C0
:1015A000049A43F82C2F6B62AC620620FFE6464695
:1015B0002368DDF80C806AE72046FFF77DFC0434E1
:1015C0000246AC6328461446AFF3008000283FF47F
:1015D000EDAE384622460F21FFF770FE0720E6E603
:1015E0000D213846FFF744FE2862049B6B62DBE75F
:1015F0000BF1010004EB80007AE700BF000000005F
:101600000023A9E60123A7E60223A5E62DE9F0437E
:101610000646C3B015461C46042900F2BF80DFE829
:1016200001F09E57BD2D0300002C40F0B780102A1A
:1016300000F2B4800368D80600F1F98020AF384684
:1016400000F098F9B46B394600234FF0010C0CFA06
:1016500003F22A42204603F1010303D050F8042B81
:101660000A600446042B01F10401F0D13846B4634A
:1016700000F076F9002043B0BDE8F083032C40F081
:101680008D8094B204EB1243102B4FEA124500F206
:10169000858003681F0700F1D28020AF384600F034
:1016A0003DF9B26B07EBC50154B10B46D01A01EB03
:1016B000C401E4001D5843F8045B8B42FAD1224474
:1016C0003846B26300F008F9002043B0BDE8F0836B
:1016D000012C4FEA124895B25CD0052C5ED108EB84
:1016E0000509B9F1200F59D8B8F10F0F79D9A946DA
:1016F000002D40F08A80B36B6DB320AF4FF000092E
:1017000007EBC807043F03EBC50553F8041B47F874
:10171000041FAB42F9D1B9F1000F0FD06F4641461B
:10172000102938BF102107EBC101843903EBC9052B
:1017300053F8040B41F8040FAB42F9D1012C00F02F
:101740008680B8F10F0FB56347D9B9F1000F02D009
:10175000684600F0B9F8002043B0BDE8F083ECB96A
:10176000806B23461FFA82FC0124371D04FA03F222
:1017700012EA0C0F014604D051F8042B47F823203D
:1017800008460133102BF1D115F40055E3D1B063B5
:10179000284604E008EB0503102B03D9022043B0D0
:1017A000BDE8F083B8F10F0FF8D83368DA0706D533
:1017B000304623F0030340F8483B00F079F820AFAF
:1017C000384600F075F8B36B002D97D11D460435EF
:1017D000B563384600F068F8BDE720A800F06CF863
:1017E000B3E7B9F1100F40D9A9F110093368D9074F
:1017F00008D523F00103304643F0020340F8483B8C
:1018000000F05EF8B9F1000F32D033685A0720D4E7
:10181000B8F10F0F25D96F463846C8F1100500F012
:1018200057F8002DB36B7FF77AAF20AF68E723F04E
:101830001003336006F5E87000F09CF8FEE623F034
:101840000803036000F5A87000F068F825E720AFF2
:10185000BDE7304623F0040340F8D03B00F038F8F1
:10186000D6E720A800F02CF8D5E74FF00009BDE737
:10187000B8F10F0F3FF63FAF20AF384600F020F829
:10188000B36B002D7FF43AAF384600F015F862E7ED
:1018900000F1340191E838009C46A6464CF8045DFE
:1018A00090E8FF0FE54600BD90EC210B704700BFAC
:1018B00080EC210B704700BF90EC200B704700BFFD
:1018C00080EC200B704700BFD0EC200B704700BFAE
:1018D000C0EC200B704700BFF0EC0201F0EC0211ED
:1018E000F0EC0221F0EC0231F0EC0241F0EC02519C
:1018F000F0EC0261F0EC0271F0EC0281F0EC02918C
:10190000F0EC02A1F0EC02B1F0EC02C1F0EC02D17B
:10191000F0EC02E1F0EC02F1704700BFE0EC0201F4
:10192000E0EC0211E0EC0221E0EC0231E0EC0241DB
:10193000E0EC0251E0EC0261E0EC0271E0EC0281CB
:10194000E0EC0291E0EC02A1E0EC02B1E0EC02C1BB
:10195000E0EC02D1E0EC02E1E0EC02F1704700BF04
:10196000B0FC0181B0FC0191B0FC01A1B0FC01B15F
:10197000704700BFA0FC0181A0FC0191A0FC01A167
:10198000A0FC01B1704700BFEC4600B52DE9005046
:101990002DE9FF1F4FF000032DE90C0001A9FFF70F
:1019A000E1FBDDF840E012B0704700BFEC4600B547
:1019B0002DE900502DE9FF1F4FF000032DE90C0029
:1019C00001A9FFF70BFCDDF840E012B0704700BF43
:1019D000EC4600B52DE900502DE9FF1F4FF0000344
:1019E0002DE90C0001A9FFF71BFCDDF840E012B067
:1019F000704700BFEC4600B52DE900502DE9FF1FF0
:101A00004FF000032DE90C0001ABFFF7DFFBDDF821
:101A100040E012B0704700BFEC4600B52DE9005021
:101A20002DE9FF1F4FF000032DE90C0001AAFFF77D
:101A300051FCDDF840E012B0704700BF027A034667
:101A40007AB9427AA2B14168013A10B44272086888
:101A500003220C1D1A7202025C60000E10BC1A6098
:101A600070470068013A1A7202021A60000E70474D
:101A7000B020704700B585B0002303AA0092194634
:101A80000C22FFF7DDFB039805B05DF804FB00BFF7
:101A9000F0E700BF2DE9F043054685B00E464FF054
:101AA00000083046FFF7CAFFB028044600F0BA80AD
:101AB000070620D500F0F003802B4DD0902B36D0B8
:101AC000A02B60D0B02B74D0C02B00F08B8000F026
:101AD000F803D02B0BD100F007020132052342F4AA
:101AE000002201212846FFF791FD0028D9D00920C6
:101AF00005B0BDE8F0838300DBB21F1D0DF10C09BA
:101B000000231946CDF800900D222846FFF798FBD8
:101B1000039BCDF8009060064CBFDF1BFF1800232D
:101B20000D22194628460397FFF7B0FBB9E700F0EE
:101B30000D030D2BDBD003AF002300F00F0219467D
:101B400000972846FFF77CFB002300970D221946DB
:101B50002846FFF79BFBA4E73046FFF76FFF240200
:101B60002043B0F5004FC2D004010023A2B21946B1
:101B70002846FFF74BFD0028B9D114F4004F18BFD9
:101B80004FF001088DE7C24302F007034FF47F6274
:101B90001A41010702F47F624FF0000348BF42F48C
:101BA000804219462846FFF731FD00283FF479AFFF
:101BB0009DE7B1283BD0B22800F09380B32841D0F4
:101BC00000F0FC03B42B92D000F007020132012395
:101BD00042F4002219462846FFF718FD00283FF47A
:101BE00060AF84E7C6284AD0C72854D000F0F80375
:101BF000C02B63D0C82868D0C9287FF478AF30469E
:101C0000FFF71CFF020300F00F0002F47022013006
:101C10000243012105232846FFF7F8FC00283FF482
:101C200040AF64E7B8F1000F18D0002060E73046FD
:101C3000FFF704FF024600283FF459AF10F0F0030D
:101C4000C8D054E73046FFF7F9FE020300F00F0357
:101C5000013302F470221A430123BBE703AC43466D
:101C60000E22414600942846FFF7EAFA00944346C4
:101C70000F2241462846FFF709FB404638E7304629
:101C8000FFF7DCFE020300F00F03013302F47022C1
:101C90001A4303239EE73046FFF7D0FE0246002892
:101CA0003FF425AF10F0F0037FF421AF0421284664
:101CB000FFF7ACFC00283FF4F4AE18E700F00F0289
:101CC0000132032342F4202284E73046FFF7B6FEB8
:101CD00000F0F00200F00F031032013343EA023249
:101CE00097E700230DF10C090D221946CDF800905D
:101CF0002846FFF7A5FA3046FFF7A0FE02064FF090
:101D000002040CD5039B00F07F00A0401844039010
:101D10003046FFF793FE030604F10704F2D4039B59
:101D2000CDF8009000F07F02A24003F501731A4441
:101D30000023039219460D222846FFF7A7FAB0E6C2
:101D400010B5C26C536884B04FF0030C08321C020B
:101D500008461B0E01A9019402928DF80CC08DF863
:101D60000D30FFF797FE04B010BD00BF08B5FFF7B8
:101D70008FFE806C08BD00BF08B5FFF789FEC06C00
:101D8000C379023300EB830008BD00BF704700BF7A
:101D9000844641EA000313F003036DD1403A41D376
:101DA00051F8043B40F8043B51F8043B40F8043B35
:101DB00051F8043B40F8043B51F8043B40F8043B25
:101DC00051F8043B40F8043B51F8043B40F8043B15
:101DD00051F8043B40F8043B51F8043B40F8043B05
:101DE00051F8043B40F8043B51F8043B40F8043BF5
:101DF00051F8043B40F8043B51F8043B40F8043BE5
:101E000051F8043B40F8043B51F8043B40F8043BD4
:101E100051F8043B40F8043B51F8043B40F8043BC4
:101E2000403ABDD2303211D351F8043B40F8043B64
:101E300051F8043B40F8043B51F8043B40F8043BA4
:101E400051F8043B40F8043B103AEDD20C3205D374
:101E500051F8043B40F8043B043AF9D2043208D06C
:101E6000D2071CBF11F8013B00F8013B01D30B88DE
:101E700003806046704700BF082A13D38B078DD0BC
:101E800010F003038AD0C3F10403D21ADB071CBF8E
:101E900011F8013B00F8013B80D331F8023B20F8F8
:101EA000023B7BE7043AD9D3013A11F8013B00F831
:101EB000013BF9D20B7803704B7843708B788370B9
:101EC00060467047000000000000000000000000B5
:101ED0000000000000000000000000000000000002
:101EE00000000000000000000000000000000000F2
:101EF00000000000000000000000000000000000E2
:101F000090F800F06DE9024520F007016FF0000C39
:101F100010F0070491F820F040F049804FF00004E1
:101F20006FF00700D1E9002391F840F000F10800BC
:101F300082FA4CF2A4FA8CF283FA4CF3A2FA8CF3F4
:101F40004BBBD1E9022382FA4CF200F10800A4FA5B
:101F50008CF283FA4CF3A2FA8CF3E3B9D1E90423AF
:101F600082FA4CF200F10800A4FA8CF283FA4CF3E6
:101F7000A2FA8CF37BB9D1E9062301F1200182FAA0
:101F80004CF200F10800A4FA8CF283FA4CF3A2FAA6
:101F90008CF3002BC6D0002A04BF04301A4612BAB4
:101FA000B2FA82F2FDE8024500EBD2007047D1E9B7
:101FB000002304F00305C4F100004FEAC50514F046
:101FC000040F91F840F00CFA05F562EA05021CBF17
:101FD00063EA050362464FF00004A9E70000000031
:101FE00001F0FF01102A2BDB10F0070F08D010F8CA
:101FF000013B013A8B422DD010F0070F42B3F6D1CE
:10200000F0B441EA012141EA014122F007047FF0E6
:1020100000070023F0E80256083C85EA010586EA3D
:10202000010685FA47F5A3FA87F586FA47F6A5FA79
:1020300087F68EB9EED1F0BC01F0FF0102F0070285
:1020400032B110F8013B013A83EA010313B1F8D130
:102050000020704701387047002D06BF3546033811
:10206000073815F0010F07D1013015F4807F02BF4A
:10207000013015F4C03F0130F0BC0138704700BF9B
:102080004FEA410212F5001215D211D56FF47873A0
:10209000B3EB625212D94FEAC12343F0004343EA43
:1020A000505311F0004F23FA02F018BF404270471E
:1020B0004FF00000704750EA013005D111F00040A8
:1020C00008BF6FF0004070474FF00000704700BF3E
:1020D00008B5012003F003FCFBE708B504F074FB2E
:1020E000012003F0FCFBF9E708B504F091FB0120A7
:1020F00003F0F5FBF9E708B504F0B2FB012003F0AB
:10210000EEFBF9E710B594B004F04CFB244C0DF154
:102110003C0CA646BEE80F00ACE80F00DEF800302D
:10212000CCF8003000210FA803F0BFFB1D4B186056
:102130000DF1280C04F1140EBEE80F00ACE80F00FE
:10214000DEF80030CCF8003000210AA803F0ADFB27
:10215000154B18600DF1140C04F1280EBEE80F00A9
:10216000ACE80F00DEF80030CCF80030002105A804
:1021700003F09BFB0D4B1860EE4604F13C0CBCE8F1
:102180000F00AEE80F00DCF80030CEF80030002180
:10219000684603F08AFB064B186014B010BD00BF00
:1021A000A0CD0008DC090020E0090020E40900209F
:1021B000E809002000B583B00E4B9A6C42F004028F
:1021C0009A649A6C02F004020092009A9A6C42F0AF
:1021D00001029A649B6C03F001030193019B0022AE
:1021E00005210B2000F0F8FC0B2000F02DFD03B0C2
:1021F0005DF804FB0010024030B58BB0002405945C
:102200000694079408940994254BDA6C42F0040272
:10221000DA64DA6C02F004020192019ADA6C42F09C
:102220002002DA64DA6C02F020020292029ADA6C7E
:1022300042F00102DA64DA6C02F001020392039ABE
:10224000DA6C42F00202DA64DB6C03F002030493FE
:10225000049B144D01224FF44041284600F0EDFF4D
:102260004FF440430593012306930794089405A96E
:10227000284600F0F1FE4FF4406305934FF4041339
:102280000693079405A9284600F0E6FE224605219C
:10229000282000F0A1FC282000F0D6FC0BB030BDB7
:1022A000001002400008004808B50268034B9A423B
:1022B00000D008BD00F058FCFBE700BF0004004060
:1022C00072B6FEE700B595B03822002106A804F0EA
:1022D0005FFD00200190029003900490059000F0B3
:1022E000BFFF012306934FF48033079302230D931E
:1022F00003220E9206220F925522109211931293EE
:10230000139306A801F066F880B90F230193032305
:102310000293002303930493059304210DEB010022
:1023200001F00EFB20B915B05DF804FBFFF7C8FF04
:10233000FFF7C6FF08B500F007FCFFF7C3FFFFF784
:102340005BFFFFF737FF00F0D7F900F041F9FFF727
:10235000D9FE03F0A5FAFEE700B583B00E4B1A6E66
:1023600042F001021A661A6E02F001020092009A0F
:102370009A6D42F080529A659B6D03F080530193F1
:10238000019B00220F216FF0010000F025FC00F0FE
:10239000EDFF03B05DF804FB0010024030B589B0DA
:1023A00004461E4B9A6D42F002029A659B6D03F043
:1023B00002030193019B02A903A801F0E7FB01F0CE
:1023C000C1FB03461648A0FB03239B0C013B1548A9
:1023D000154A026040F2E732C260436000230361A5
:1023E000836002F07BF8054610B1284609B030BD85
:1023F0000C4801F0D3FE05460028F6D11D2000F060
:1024000023FC0F2C01D90125EFE7002221461D20D6
:1024100000F0E2FB054B1C60E7E700BF0010024044
:1024200083DE1B43EC09002000040040080000206C
:10243000FEE7FEE7FEE7FEE7FEE7704708B5024865
:1024400000F0A7FD08BD00BF880A002008B50248BB
:1024500001F0EBFE08BD00BFEC09002008B5024802
:1024600002F0ECFC08BD00BFE80A002008B54FF4FC
:10247000806000F0E7FE4FF4006000F0E3FE08BD6E
:102480000120704708B504F059FC162303604FF093
:10249000FF3008BD08B54FF0FF31FFF7F3FFFEE74F
:1024A00070B50C461646002506E0AFF300802146C5
:1024B00001F8010B01350C46B542F6DB304670BD24
:1024C00070B50C461646002504E014F8010BAFF376
:1024D00000800135B542F8DB304670BD4FF0FF306B
:1024E00070474FF400534B60002070470120704745
:1024F0000020704710B503460C4A0D490D4800688E
:1025000040B10C4800680344521A934206D8094A65
:10251000136010BD0748084C0460F2E704F00EFC9D
:102520000C2303604FF0FF30F3E700BF0080002072
:1025300000040000380A0020B8200020034AD2F826
:10254000883043F47003C2F88830704700ED00E033
:102550000268094B9A4200D0704782B003F5644389
:102560001A6E42F400621A661B6E03F40063019354
:10257000019B02B0704700BF002C014000B587B03E
:1025800000230193029303930493059302680F4B76
:102590009A4202D007B05DF804FB03F56443DA6C9D
:1025A00042F00102DA64DB6C03F001030093009B4C
:1025B0004FF4E0630193022302930623059301A9DC
:1025C0004FF0904000F048FDE4E700BF002C0140D0
:1025D00010B59CB00024189419941A941B94159467
:1025E000169417940E940F941094119412941394BB
:1025F00014943422214601A804F0CAFB3C483D4B08
:10260000036044602023836042F23413C36004619A
:1026100001234361846101F061FF00284FD14FF431
:102620008053189318A9324802F0A8F8002849D11D
:102630002F4801F083FF002847D1002315931693FC
:10264000179315A92A4802F04DFA002840D16023BB
:102650000E9300220F9210921192129213921492E2
:102660000EA9234801F0E0FF002834D104220EA96E
:102670001F4801F0D9FF002830D108220EA91C48BC
:1026800001F0D2FF68BB00230193029303930493EC
:1026900005934FF4005206920793089309934FF065
:1026A00000720A920B930C930D9301A9104802F04B
:1026B00063FAC8B90E48FFF761FF1CB010BDFFF701
:1026C000FFFDACE7FFF7FCFDB2E7FFF7F9FDB4E76C
:1026D000FFF7F6FDBBE7FFF7F3FDC7E7FFF7F0FDF8
:1026E000CBE7FFF7EDFDCEE7FFF7EAFDE2E700BF3E
:1026F0003C0A0020002C014008B51748174B036026
:102700004FF46123436000238360C36003610C22A4
:1027100042618361C36103624362836202F0F5FF39
:1027200070B900210C4803F06BF860B900210A4829
:1027300003F08BF850B9084803F043F848B908BDD6
:10274000FFF7BEFDEDE7FFF7BBFDEFE7FFF7B8FDD5
:10275000F1E7FFF7B5FDF2E7E80A00200038014095
:1027600030B599B00446002113911491159116913A
:102770001791442202A804F00BFB2268274B9A42CF
:1027800001D019B030BD0123029302A801F01CFA58
:1027900000283CD1224B1A6E42F480421A661A6E0F
:1027A00002F480420092009ADA6C42F00202DA648B
:1027B000DB6C03F002030193019BC02313930223FC
:1027C00014930025159516950723179313A91548FB
:1027D00000F042FC1448154B03601923436010239A
:1027E0008360C5608023036145618561C5610562C1
:1027F00000F0A4FA70B90C4BE3679C62002205213B
:10280000252000F0E9F9252000F01EFAB9E7FFF7CE
:1028100057FDBFE7FFF754FDEDE700BF003801406B
:102820000010024000040048880A0020080002400E
:102830000D488546FFF782FE0C480D490D4A0023DE
:1028400002E0D458C4500433C4188C42F9D30A4A65
:102850000A4C002301E013600432A242FBD304F0CF
:1028600073FAFFF767FDFEE70080002000000020FC
:10287000C009002060DC0008C0090020B82000204A
:10288000FEE7000010B5044601F056F9054BA3FB26
:1028900000235B0D04FB03F003460138002BFBD142
:1028A00010BD00BF819F5E1670B504460D4600F056
:1028B000BDFC60B100262946204600F0B7FC002888
:1028C000F9D047F23050FFF7DDFF304670BD0646C5
:1028D00047F23050FFF7D6FF2946204600F0A6FC0D
:1028E0000028E8D10126E6E708B5B0F5806F03D0EF
:1028F000B0F5006F13D008BD282000F0B3F94FF4F5
:1029000080610D48FFF7D0FF28B10C4A1378B3FA65
:1029100083F35B091370282000F096F9EBE7282079
:1029200000F0A0F94FF400610348FFF7BDFF282035
:1029300000F08AF9DFE700BF000800487C0B0020A8
:1029400010B5074C0021204601F0C4FF04212046A9
:1029500001F0C0FF0821204601F0BCFF10BD00BF00
:102960003C0A002010B5074C0021204602F05EF81A
:102970000421204602F05AF80821204602F056F8B9
:1029800010BD00BF3C0A002070B52DED048B84B053
:10299000B0EE408AF0EE609AB0EE410A03F068FFB4
:1029A000F0EE408AF9EE087AB4EEE78AF1EE10FA1A
:1029B00009D4F1EE087AB4EEE78AF1EE10FA04DDFC
:1029C000B0EE678A01E0B9EE088AF9EE087AF4EE13
:1029D000E79AF1EE10FA09D4F1EE087AF4EEE79AEC
:1029E000F1EE10FA04DDF0EE679A01E0F9EE089AD4
:1029F000B1EE489AB0EE680A03F094FF29EE009A0F
:102A0000B0EE680A03F0D4FF29EE800A39EE009A8E
:102A1000B0EE680A03F0CCFF28EE008AB0EE680A38
:102A200003F080FF29EE800A38EE008ADFED326A7B
:102A3000C9EE267A88EE267ACDED037AFEEE008A7C
:102A400067EEA87ADFED2D6A27EE267A77EE876AA1
:102A5000CDED026A77EEC77ACDED017A01AA02A91F
:102A600003A803F027FFB0EE408A01AA02A903A839
:102A700003F035FF38EE000A20EE280ADDED037A78
:102A800070EE277A1E4EC6ED007ADDED027A70EE0A
:102A9000277A1C4DC5ED007ADDED017A30EE270A6C
:102AA000194C84ED000A304603F02EFF284603F04F
:102AB0002BFF204603F028FF96ED007ADFED136A26
:102AC00027EE267ABCEEC77A114B83ED0D7A95ED91
:102AD000007A27EE267ABCEEC77A83ED0E7AD4ED23
:102AE000007A67EEA67AFCEEE77AC3ED0F7A04B0BF
:102AF000BDEC048B70BD00BFCFF74141D7B35D3F44
:102B0000800B0020840B0020880B002000D004469E
:102B1000002C014008B59FED091A20EE011A084B60
:102B200093ED000A31EE001A83ED001ADFED050A7D
:102B3000B0EE000AFFF728FF08BD00BFCDCCCC3BAC
:102B40008C0B00200000000010B5032000F032F8CC
:102B50000F20FFF723FC10B10124204610BD0446CE
:102B6000FFF7FAFBF9E70000034A13680349096815
:102B70000B441360704700BF900B0020040000203E
:102B8000014B1868704700BF900B002038B5044611
:102B9000FFF7F6FF0546B4F1FF3F02D0044B1B6878
:102BA0001C44FFF7EDFF401BA042FAD338BD00BF25
:102BB00004000020074AD36823F4E0631B041B0CC5
:102BC000000200F4E060034343F0BF6343F40033CA
:102BD000D360704700ED00E000B5194BDB68C3F32C
:102BE0000223C3F1070CBCF1040F28BF4FF0040C03
:102BF00003F1040EBEF1060F18D9033B4FF0FF3E60
:102C00000EFA0CFC21EA0C0199400EFA03F322EAB9
:102C10000303194300280BDB0901C9B200F160402E
:102C200000F5614080F800135DF804FB0023E5E740
:102C300000F00F000901C9B2024B1954F4E700BFBC
:102C400000ED00E014ED00E0002807DB00F01F02BB
:102C5000400901239340024A42F82030704700BFE8
:102C600000E100E000280CDB00F01F024009012316
:102C700093402030034A42F82030BFF34F8FBFF318
:102C80006F8F704700E100E030B4C46C056D656083
:102C9000446D14B1846DC56D6560446C04F01F0C07
:102CA000012404FA0CF4056C6C60046863608368AA
:102CB000102B05D0036899600368DA6030BC704758
:102CC00003689A600368D960F8E7000003680C4A5B
:102CD000934213D80B49DBB2083B0B4AA2FB0323F8
:102CE000426C22F003020A448264084AC264C3F3BD
:102CF0000413012202FA03F3036570470449EAE76B
:102D00000704024000080240CDCCCCCC8008024031
:102D1000200802400379074A1A4492004265064A95
:102D20008265013B03F01F03012202FA03F3C3652E
:102D3000704700BF3F8200104009024000285BD06E
:102D400010B5044601682D4B99423DD82C4B0B44DD
:102D50002C4AA2FB03231B099B0043642A4B0364F8
:102D6000022384F825300A6822F4FF4222F0700220
:102D7000A368E06803432069034360690343A069D3
:102D80000343E0690343206A034313430B60204677
:102D9000FFF79CFFA368B3F5804F20D0A36C227986
:102DA0001A60E36C226D5A606368013B032B19D9EA
:102DB00000236365A365E3650020E063012384F8D5
:102DC000253084F8240010BD104B0B440D4AA2FBA3
:102DD00003231B099B0043640D4B0364C0E70023DE
:102DE0006360DBE72046FFF795FF636D00221A6002
:102DF000A36DE26D5A60DFE70120704707040240CF
:102E0000F8FFFDBFCDCCCCCC00000240F8FBFDBFED
:102E10000004024038B5044690F82400012841D04F
:102E2000012084F8240094F82500C0B2012804D0C1
:102E3000002384F82430022038BD022084F82500C5
:102E40000020E0632568286820F001002860204603
:102E5000FFF71AFF236BD3B12268136843F00E0308
:102E60001360A36C1A6812F4803F03D01A6842F40E
:102E700080721A60636D1BB11A6842F480721A6026
:102E80002268136843F0010313600020D4E722682E
:102E9000136823F0040313602268136843F00A03E5
:102EA0001360DEE70220C7E7034690F82520D2B280
:102EB000022A09D00422C2630120012283F82520BE
:102EC000002283F82420704701680A6822F00E026D
:102ED0000A60816C0A6822F480720A6001680A68DC
:102EE00022F001020A60426C02F01F01006C012214
:102EF0008A404260DA6C196D51605A6D42B11168B6
:102F000021F4807111609A6DD96D51600020D4E771
:102F10000020D2E708B590F82530DBB2022B09D0AB
:102F20000423C363012380F82530002280F8242085
:102F3000184608BD0268136823F00E031360026888
:102F4000136823F001031360826C136823F4807309
:102F50001360436C03F01F02016C012393404B602C
:102F6000C36C026D5A60436D33B11A6822F48072EB
:102F70001A60836DC26D5A60012380F825300023EA
:102F800080F82430836B13B198470020D1E70020EC
:102F9000CFE738B5036C196804682568436C03F003
:102FA0001F0304229A400A4215D015F0040F12D0D4
:102FB000236813F0200F03D1236823F00403236058
:102FC000436C03F01F02016C042393404B60036BBE
:102FD00003B1984738BD02229A400A421CD015F02E
:102FE000020F19D0236813F0200F06D1236823F0B5
:102FF0000A032360012380F82530436C03F01F028D
:10300000016C022393404B60002380F82430C36A94
:10301000002BDFD09847DDE7082202FA03F30B42CA
:10302000D8D015F0080FD5D0236823F00E03236005
:10303000436C03F01F03016C012202FA03F34B609F
:10304000C26380F82520002380F82430436B002BD6
:10305000C0D09847BEE70000F0B583B0002362E01F
:1030600085685E000324B44025EA0405CC68B440BA
:103070002C438460446824EA0C0C4C68C4F30014AC
:103080009C4044EA0C0444605EE0DD08083550F8DA
:10309000256003F007044FEA840C0F2404FA0CF4B3
:1030A00026EA040E0C6904FA0CF444EA0E0440F813
:1030B000254060E0052400E0002404FA0EF42C43CF
:1030C0000CF1020C554D45F82C40554CA568D443E5
:1030D00025EA02064F6817F4801F01D042EA050670
:1030E0004F4DAE60ED6804EA05064F6817F4001F07
:1030F00001D042EA05064A4DEE606D6804EA050615
:103100004F6817F4003F01D042EA0506444D6E6057
:103110002D682C404E6816F4803F01D042EA050429
:103120003F4A146001330A6832FA03F474D04FF056
:10313000010C0CFA03FC1CEA0202F3D04C6804F008
:103140000304013C012C8BD94C6804F00304032CCC
:103150000CD0C4685D004FF0030C0CFA05FC24EAA7
:103160000C0C8C68AC4044EA0C04C4604C6804F05D
:103170000304022C89D004684FEA430E4FF0030C7D
:103180000CFA0EFC24EA0C0C4C6804F0030404FA5C
:103190000EF444EA0C0404604C6814F4403FC1D0BF
:1031A000204C256E45F001052566246E04F00104CF
:1031B0000194019C4FEA930C0CF10205174C54F852
:1031C000255003F003044FEA840E0F2404FA0EF492
:1031D00025EA0405B0F1904F3FF46EAF124CA042C7
:1031E00012D004F58064A04210D004F58064A0429F
:1031F0000ED004F58064A0420CD004F58064A04297
:103200003FF458AF062458E7012456E7022454E758
:10321000032452E7042450E703B0F0BD000001404E
:1032200000040140001002400004004803691942F4
:1032300001D001207047002070470AB181617047BA
:103240008162704708B5054B5B69034200D108BD38
:10325000024B5861FFF748FBF9E700BF000401404B
:10326000002836D13E4B1B6803F4C063B3F5806F72
:1032700008D03B4AD2F8803023F48073C2F8803003
:1032800000207047364AD2F8803023F48073C2F8A9
:103290008030136823F4C06343F400731360314B30
:1032A0001B68322202FB03F32F4AA2FB03239B0C71
:1032B000013300E0013B2A4A526912F4806F01D0C9
:1032C000002BF7D1264B5B6913F4806F44D10020AB
:1032D0007047B0F5007F08D0214A136823F4C0631B
:1032E00043F480631360002070471D4B1B6803F498
:1032F000C063B3F5806F08D0194AD2F8803043F428
:103300008073C2F8803000207047154AD2F88030B0
:1033100043F48073C2F88030136823F4C06343F42D
:10332000007313600F4B1B68322202FB03F30E4A3B
:10333000A2FB03239B0C013300E0013B084A5269C6
:1033400012F4806F01D0002BF7D1054B5B6913F4A9
:10335000806F03D10020704703207047032070471F
:10336000007000400000002083DE1B43024A936887
:1033700043F480439360704700700040124BDA685A
:1033800002F00302D868C0F30310431C032A11D0D3
:103390000E48B0FBF3F00C4BDB68C3F3062303FBD2
:1033A00000F0094BDB68C3F3416301335B00B0FB02
:1033B000F3F070470648B0FBF3F0034BDB68C3F350
:1033C000062303FB00F0ECE7001002400024F400A9
:1033D00000366E01002800F04F8270B582B00446BE
:1033E000036813F0010F37D0A44A936803F00C036D
:1033F000D26802F003020C2B23D0082B23D0636881
:10340000B3F5803F4ED0B3F5A02F51D09B4B1A6837
:1034100022F480321A601A6822F480221A606368EB
:10342000002B52D0FFF7ACFB0546944B1B6813F4FE
:10343000003F11D1FFF7A4FB401B6428F5D90320FE
:1034400023E2032AD9D18D4B1B6813F4003F03D02C
:103450006368002B00F01282236813F0020F5DD026
:10346000864A936803F00C03D26802F003020C2B27
:103470003AD0042B3AD0E368002B75D07F4A13680A
:1034800043F480731360FFF77BFB05467B4B1B689F
:1034900013F4806F5FD1FFF773FB401B0228F5D94F
:1034A0000320F2E1754A136843F480331360B6E7F2
:1034B00003F18043A3F53C331A6842F480221A607A
:1034C0001A6842F480321A60A9E7FFF759FB0546F3
:1034D0006A4B1B6813F4003FBED0FFF751FB401B43
:1034E0006428F5D90320D0E1022AC2D1634B1B68BE
:1034F00013F4806F03D0E368002B00F0C1815F4AB2
:10350000536823F0FE43216943EA016353605C4B37
:103510001868FEF743FF002840F0B481236813F0D9
:10352000080F4CD063699BB3544AD2F8943043F0EF
:103530000103C2F89430FFF723FB05464F4BD3F845
:10354000943013F0020F3AD1FFF71AFB401B022808
:10355000F4D9032099E1494A536823F0FE432169D5
:1035600043EA01635360D9E7444A136823F4807344
:103570001360FFF705FB0546404B1B6813F4806F93
:10358000CCD0FFF7FDFA401B0228F5D903207CE1DF
:103590003A4AD2F8943023F00103C2F89430FFF78E
:1035A000EFFA0546354BD3F8943013F0020F06D0EE
:1035B000FFF7E6FA401B0228F4D9032065E12368EF
:1035C00013F0040F00F081802C4B9B6D13F0805F93
:1035D00036D12A4B9A6D42F080529A659B6D03F06A
:1035E00080530193019B0125264B1B6813F4807FB8
:1035F00028D0A368012B39D0052B45D01F4BD3F819
:10360000902022F00102C3F89020D3F8902022F0FD
:103610000402C3F89020A368002B43D0FFF7B0FA50
:103620000646164BD3F8903013F0020F4CD1FFF73B
:10363000A7FA801B41F288339842F2D9032024E193
:103640000025D1E70F4A136843F480731360FFF736
:1036500097FA06460B4B1B6813F4807FC9D1FFF71E
:103660008FFA801B0228F5D903200EE1034AD2F815
:10367000903043F00103C2F89030CCE700100240D4
:103680000800002000700040884BD3F8902042F0E2
:103690000402C3F89020D3F8902042F00102C3F84E
:1036A0009020B8E7FFF76CFA0646804BD3F89030CD
:1036B00013F0020F08D0FFF763FA801B41F2883342
:1036C0009842F2D90320E0E0E5B9236813F0200F17
:1036D00035D0A369E3B1754AD2F8983043F00103BD
:1036E000C2F89830FFF74CFA0546704BD3F8983083
:1036F00013F0020F23D1FFF743FA401B0228F4D93D
:103700000320C2E0694A936D23F080539365DCE7A0
:10371000664AD2F8983023F00103C2F89830FFF7D8
:103720002FFA0546614BD3F8983013F0020F06D0FC
:10373000FFF726FA401B0228F4D90320A5E0E3692D
:10374000002B00F0A180594A926802F00C020C2A6A
:1037500064D0022B13D0554A136823F08073136092
:10376000FFF70EFA0446514B1B6813F0007F4ED052
:10377000FFF706FA001B0228F5D9032085E04B4A23
:10378000136823F080731360FFF7FAF90546474B7F
:103790001B6813F0007F06D0FFF7F2F9401B0228E8
:1037A000F5D9032071E0414AD36841491940236AA1
:1037B000606A013843EA0013A06A43EA0023206BE1
:1037C0004008013843EA4053606B4008013843EA3F
:1037D0004063E06A43EAC0630B43D360136843F07D
:1037E00080731360D36843F08073D360FFF7C8F928
:1037F00004462E4B1B6813F0007F06D1FFF7C0F97B
:10380000001B0228F5D903203FE000203DE0274AB5
:10381000D168284B0B40D360002036E0012B36D016
:10382000224BDB6803F00301226A914231D103F09D
:10383000F002616A0139B2EB011F2CD103F4FE42A0
:10384000A16AB2EB012F28D103F07842E16AB2EB12
:10385000C16F24D103F4C001226B5208013AB1EBCD
:10386000425F1ED103F0C063626B5208013AB3EBB2
:10387000426F18D1002008E001207047012004E0C9
:10388000012002E0012000E0002002B070BD012014
:10389000FBE70120F9E70120F7E70120F5E7012028
:1038A000F3E70120F1E70120EFE700BF001002403D
:1038B0000C809F01FCFFEEFE1E4B9B6803F00C0387
:1038C000042B33D01B4B9B6803F00C03082B2FD029
:1038D000184B9B6803F00C030C2B01D000207047A1
:1038E000144BDA6802F00302D868C0F30310431CDB
:1038F000032A11D01048B0FBF3F00E4BDB68C3F382
:10390000062303FB00F00B4BDB68C3F34163013379
:103910005B00B0FBF3F070470848B0FBF3F0054BD9
:10392000DB68C3F3062303FB00F0ECE702487047B3
:1039300002487047001002400024F40000366E0177
:10394000002800F0E680F8B50C460546744B1B686D
:1039500003F00F038B420BD2714A136823F00F035D
:103960000B431360136803F00F038B4240F0D380C6
:103970002E6816F001065FD06B68032B2FD0022B48
:103980004DD0684B1B6813F4806F00F0C680FFF7C2
:1039900093FF654B98424DD9624A936823F0F00338
:1039A00043F08003936080265E4A936823F003030C
:1039B00069680B439360FFF7E3F80746594B9B6830
:1039C00003F00C036A68B3EB820F35D0FFF7D8F829
:1039D000C01B41F288339842F0D9032078E0514B64
:1039E0001B6813F0007F01D1012071E0FFF7C6FCD6
:1039F0004D4B98421AD94B4B9B6813F0F00F05D0F2
:103A00002E6816F00206CFD0AB688BB9454A936892
:103A100023F0F00343F0800393608026C4E7414B1A
:103A20001B6813F4003FB2D1012051E00026BBE730
:103A30000026B9E70026B7E72B6813F0020F48D03D
:103A400013F0040F04D0374A936843F4E0639360A3
:103A50002B6813F0080F06D0324A936823F47C5386
:103A600043F4E06393602F4A936823F0F003A9685E
:103A70000B4393602A4B1B6803F00F03A34230D81B
:103A80002B6813F0040F06D0264A936823F4E063F2
:103A9000E9680B4393602B6813F0080F07D0214AA5
:103AA000936823F46053296943EAC1039360FFF7E5
:103AB00003FF1C4B9B68C3F303131C4AD35C03F046
:103AC0001F03D8401A4B18601A4B1868FEF766FCA3
:103AD000F8BD802ECED1134A936823F0F003936093
:103AE000C8E70F4A136823F00F0323431360FFF75F
:103AF00047F806460A4B1B6803F00F03A342BFD0EA
:103B0000FFF73EF8801B41F288339842F2D9032038
:103B1000DEE7012070470120DAE70120D8E700BF87
:103B2000002002400010024000B4C4042CCE000863
:103B30000000002008000020014B1868704700BFFB
:103B40000000002008B5FFF7F7FF054B9B68C3F3A3
:103B50000223044AD35C03F01F03D84008BD00BF12
:103B6000001002403CCE000808B5FFF7E5FF054B0A
:103B70009B68C3F3C223044AD35C03F01F03D840FD
:103B800008BD00BF001002403CCE00080F230360B8
:103B90000B4B9A6802F0030242609A6802F0F0024E
:103BA00082609A6802F4E062C2609B68DB0803F4FA
:103BB000E0630361034B1B6803F00F030B60704766
:103BC0000010024000200240F0B583B004460368B4
:103BD00013F4002F69D0AE4B9B6D13F0805F1ED1A4
:103BE000AB4B9A6D42F080529A659B6D03F0805307
:103BF0000193019B0126A74A136843F48073136065
:103C0000FEF7BEFF0546A34B1B6813F4807F08D167
:103C1000FEF7B6FF401B0228F5D9032502E0002677
:103C2000E9E7002545BB9A4BD3F8903013F4407375
:103C300015D0226C9A4212D0954AD2F8903023F4D3
:103C40004073D2F8901041F48031C2F89010D2F84D
:103C5000901021F48031C2F89010C2F8903013F027
:103C6000010F10D145B98A4AD2F8903023F440733D
:103C7000216C0B43C2F89030C6B1854A936D23F096
:103C80008053936512E0FEF77BFF0746804BD3F825
:103C9000903013F0020FE5D1FEF772FFC01B41F226
:103CA00088339842F2D90325DCE70025236813F016
:103CB000010F08D0764AD2F8883023F003036168F8
:103CC0000B43C2F88830236813F0020F08D0704A03
:103CD000D2F8883023F00C03A1680B43C2F8883077
:103CE000236813F0040F08D0694AD2F8883023F013
:103CF0003003E1680B43C2F88830236813F0080FE3
:103D000008D0634AD2F8883023F0C00321690B43FE
:103D1000C2F88830236813F0200F08D05C4AD2F82C
:103D2000883023F4406361690B43C2F8883023680C
:103D300013F0400F08D0564AD2F8883023F440538D
:103D4000A1690B43C2F88830236813F0800F08D0B4
:103D50004F4AD2F8883023F44043E1690B43C2F85C
:103D60008830236813F4807F08D0494AD2F888301D
:103D700023F44033216A0B43C2F88830236813F4DC
:103D8000007F08D0424AD2F8883023F44023616A89
:103D90000B43C2F88830236813F4806F0CD03C4A80
:103DA000D2F8883023F44013A16A0B43C2F888305C
:103DB000A36AB3F5801F57D0236813F4006F0CD0AB
:103DC000334AD2F8883023F44003E16A0B43C2F847
:103DD0008830E36AB3F5800F4BD0236813F4805F1B
:103DE0000CD02B4AD2F8883023F04073216B0B4360
:103DF000C2F88830236BB3F1807F3FD0236813F47F
:103E0000005F0CD0224AD2F8883023F04063616B07
:103E10000B43C2F88830636BB3F1006F33D0236873
:103E200013F4804F0CD01A4AD2F8883023F0406344
:103E3000A16B0B43C2F88830A36BB3F1006F2BD09A
:103E4000236813F4004F0CD0114AD2F8883023F0C5
:103E50004053E16B0B43C2F88830E36BB3F1805FF2
:103E60001FD0284603B0F0BDD36843F48013D3605D
:103E7000A2E7D36843F48013D360AEE7D36843F47A
:103E80008013D360BAE7D36843F48013D360C6E7E6
:103E90000010024000700040D36843F48013D360E8
:103EA000CEE7D36843F48033D360DAE730B4036AF3
:103EB000026A22F0010202624568826922F48032BD
:103EC00022F073020C68224323F002038C68234320
:103ED0001D4CA0420FD004F50064A0420BD004F5A5
:103EE0004064A04207D004F58064A04203D004F5EA
:103EF0008064A04205D123F00803CC68234323F05B
:103F00000403114CA0420FD004F50064A0420BD072
:103F100004F54064A04207D004F58064A04203D0B9
:103F200004F58064A04207D125F4407C4C6944EA42
:103F30000C0C8D6945EA0C05456082614A68426354
:103F4000036230BC704700BF002C014030B4036AEC
:103F5000026A22F4807202624468C26922F48032EA
:103F600022F073020D682A4323F400738D6843EA3C
:103F70000523184DA84203D005F50065A84206D1D7
:103F800023F40063CD6843EA052323F48063114DD5
:103F9000A8420FD005F50065A8420BD005F5406595
:103FA000A84207D005F58065A84203D005F58065D5
:103FB000A84207D124F4405C4C694CEA041C8C698B
:103FC0004CEA04144460C2614A68C263036230BCB4
:103FD000704700BF002C014030B4036A026A22F42B
:103FE000805202624468C26922F0807222F4E64282
:103FF0000D6842EA052223F400538D6843EA053335
:10400000174DA84203D005F50065A84206D123F458
:104010000043CD6843EA053323F48043104DA842A2
:104020000FD005F50065A8420BD005F54065A84204
:1040300007D005F58065A84203D005F58065A84244
:1040400007D124F4404C4C694CEA841C8C694CEA3E
:1040500084144460C2614A680264036230BC7047E1
:10406000002C014030B4036A026A22F480320262FA
:104070004468026D22F4803222F070020D682A43F7
:1040800023F400338D6843EA05430F4DA8420FD057
:1040900005F50065A8420BD005F54065A84207D09C
:1040A00005F58065A84203D005F58065A84204D1D6
:1040B00024F480344D6944EA0524446002654A686A
:1040C0008264036230BC7047002C014030B4036A44
:1040D000026A22F4801202624468026D22F0807249
:1040E00022F4E0420D6842EA052223F400138D68B1
:1040F00043EA05530F4DA8420FD005F50065A842CD
:104100000BD005F54065A84207D005F58065A842AB
:1041100003D005F58065A84204D124F480244D69BC
:1041200044EA8524446002654A68C264036230BC84
:10413000704700BF002C014010B4036A046A24F0E9
:1041400001040462846924F0F00C4CEA021223F0AA
:104150000A030B43826103625DF8044B704710B49D
:10416000036A046A24F010040462846924F4704C25
:104170004CEA023223F0A00343EA01138261036296
:104180005DF8044B7047836823F4401323F07003F9
:104190000B4343F0070383607047000090F83D3005
:1041A000DBB2012B32D1022380F83D300268D368A4
:1041B00043F00103D3600368174A934218D0B3F168
:1041C000804F15D0A2F59432934211D002F580624F
:1041D00093420DD002F59632934209D002F5406227
:1041E000934205D01A6842F001021A60002070471D
:1041F00099680A4A0A40062A0AD0B2F5803F09D0D7
:104200001A6842F001021A600020704701207047CE
:104210000020704700207047002C0140070001007B
:104220007047704770477047704770B50546036820
:10423000DE681C6914F0020F10D016F0020F0DD0CA
:104240006FF002021A610123037703689B6913F080
:10425000030F7CD0FFF7E6FF00232B7714F0040F49
:1042600012D016F0040F0FD02B686FF004021A6101
:1042700002232B772B689B6913F4407F6DD028466F
:10428000FFF7D0FF00232B7714F0080F12D016F0A1
:10429000080F0FD02B686FF008021A6104232B77E8
:1042A0002B68DB6913F0030F5ED02846FFF7BAFFD7
:1042B00000232B7714F0100F12D016F0100F0FD030
:1042C0002B686FF010021A6108232B772B68DB69CB
:1042D00013F4407F4FD02846FFF7A4FF00232B772D
:1042E00014F0010F02D016F0010F4BD114F4025F4D
:1042F00002D016F0800F4DD114F4807F02D016F05A
:10430000800F4FD114F0400F02D016F0400F51D162
:1043100014F0200F02D016F0200F53D114F4801F98
:1043200002D016F4801F55D114F4001F02D016F4E9
:10433000001F57D114F4800F02D016F4800F59D10A
:1043400014F4000F02D016F4000F5BD170BDFFF71C
:1043500068FF2846FFF767FF7EE72846FFF761FF03
:104360002846FFF760FF8DE72846FFF75AFF2846EB
:10437000FFF759FF9CE72846FFF753FF2846FFF752
:1043800052FFABE72B686FF001021A612846FDF778
:104390008BFFABE72B686FF402521A61284600F0DE
:1043A0003CFCA9E72B686FF480721A61284600F084
:1043B00035FCA7E72B686FF040021A612846FFF72B
:1043C00033FFA5E72B686FF020021A61284600F042
:1043D00023FCA3E72B686FF480121A61284600F0D3
:1043E0001EFCA1E72B686FF400121A61284600F04A
:1043F00017FC9FE72B686FF480021A61284600F0D3
:1044000010FC9DE72B686FF400021A61284600F04B
:1044100009FC9BE70368304A90420ED0B0F1804F10
:104420000BD0A2F59432904207D002F58062904200
:1044300003D002F59632904203D123F070034A680C
:104440001343254A90421AD0B0F1804F17D0A2F5FD
:104450009432904213D002F5806290420FD002F560
:10446000963290420BD002F54062904207D002F59E
:104470008062904203D002F58062904203D123F41F
:104480004073CA68134323F080034A6913430360EF
:104490008B68C3620B6883620F4B98420FD003F5A1
:1044A000006398420BD003F54063984207D003F5B0
:1044B0008063984203D003F58063984201D10B6971
:1044C000036301234361036913F0010F03D0036900
:1044D00023F0010303617047002C014060B310B565
:1044E000044690F83D3013B3022384F83D30214652
:1044F00051F8040BFFF78EFF012384F8483084F84D
:104500003E3084F83F3084F8403084F8413084F8FD
:10451000423084F8433084F8443084F8453084F8DD
:10452000463084F8473084F83D30002010BD80F8D4
:104530003C30FEF70DF8D7E70120704760B310B5A7
:10454000044690F83D3013B3022384F83D302146F1
:1045500051F8040BFFF75EFF012384F8483084F81C
:104560003E3084F83F3084F8403084F8413084F89D
:10457000423084F8433084F8443084F8453084F87D
:10458000463084F8473084F83D30002010BD80F874
:104590003C30FFF745FED7E70120704730B4036A8F
:1045A000026A22F0100202624468826922F080727C
:1045B00022F4E6420D6842EA052223F020038D68CA
:1045C00043EA0513174DA84203D005F50065A8423C
:1045D00006D123F08003CD6843EA051323F040039E
:1045E000104DA8420FD005F50065A8420BD005F587
:1045F0004065A84207D005F58065A84203D005F5BF
:104600008065A84207D124F4406C4C694CEA840CC4
:104610008C694CEA8404446082614A688263036264
:1046200030BC7047002C014038B590F83C30012B6D
:1046300000F0958004460D46012380F83C30142A92
:1046400000F28880DFE802F00B8686861F86868669
:1046500034868686488686865D86868671000068F2
:10466000FFF724FC2268936943F0080393612268F2
:10467000936923F0040393612268936929690B43CA
:104680009361002067E00068FFF788FF2268936964
:1046900043F4006393612268936923F48063936118
:1046A00022689369296943EA01239361002052E05B
:1046B0000068FFF74BFC2268D36943F00803D3611D
:1046C0002268D36923F00403D3612268D36929697E
:1046D0000B43D36100203EE00068FFF77DFC2268B9
:1046E000D36943F40063D3612268D36923F4806300
:1046F000D3612268D369296943EA0123D361002089
:1047000029E00068FFF7AEFC2268136D43F0080350
:1047100013652268136D23F0040313652268136D7B
:1047200029690B431365002015E00068FFF7CEFCF4
:104730002268136D43F4006313652268136D23F43C
:10474000806313652268136D296943EA01231365A9
:10475000002000E00120002384F83C3038BD022016
:10476000FCE710B4846824F47F4C42EA03220A4335
:1047700042EA0C0282605DF8044B704790F83C30CE
:10478000012B00F08F8010B50446012380F83C30E7
:10479000022380F83D3002689068434B03409360E9
:1047A0000B68702B55D031D8502B6CD00CD9602BA6
:1047B0002AD1CA6849682068FFF7D1FC60212068C7
:1047C000FFF7E1FC002035E0402B0AD1CA684968B8
:1047D0002068FFF7B1FC40212068FFF7D4FC0020DF
:1047E00028E05BD8202B07D003D9302B04D0012040
:1047F00020E00BB1102B05D119462068FFF7C3FC50
:10480000002017E0012015E0012013E0B3F5005F60
:104810002CD00BD9254A9342EED012D9244A934288
:10482000EAD030329342E7D0012003E0B3F5805F55
:1048300036D10020012384F83D30002384F83C3039
:1048400010BDB3F1101FD7D0103A9342D4D001203D
:10485000F0E7CB684A6889682068FFF782FF226822
:10486000936843F0770393600020E3E7CB684A68DE
:1048700089682068FFF775FF2268936843F48043D6
:1048800093600020D6E7CA6849682068FFF754FCA7
:1048900050212068FFF777FC0020CBE70120C9E713
:1048A0000120C7E7022070478800CEFF30001000CB
:1048B0004000100001F01F01012303FA01FC036A0C
:1048C00023EA0C030362036A02FA01F10B43036259
:1048D0007047000010B504460846002947D194F8F7
:1048E0003E30DBB2013B18BF0123002B40F0948027
:1048F000002867D1022384F83E3001220146206857
:10490000FFF7D8FF2368474A93420FD002F50062B1
:1049100093420BD002F54062934207D002F58062C9
:10492000934203D002F58062934203D15A6C42F461
:1049300000425A6423683B4A93425FD0B3F1804FF0
:104940005CD0A2F59432934258D002F58062934233
:1049500054D002F59632934250D002F54062934211
:104960004CD01A6842F001021A60002055E0042978
:104970000CD0082911D00C2916D010291BD094F87E
:104980004330DBB2013B18BF0123AEE794F83F3060
:10499000DBB2013B18BF0123A7E794F84030DBB23C
:1049A000013B18BF0123A0E794F84130DBB2013B83
:1049B00018BF012399E794F84230DBB2013B18BFDE
:1049C000012392E7042809D008280BD00C280DD029
:1049D00010280FD0022384F843308EE7022384F896
:1049E0003F308AE7022384F8403086E7022384F8C8
:1049F000413082E7022384F842307EE799680A4A10
:104A00000A40062A0AD0B2F5803F09D01A6842F05F
:104A100001021A60002000E0012010BD0020FCE728
:104A20000020FAE7002C01400700010038B50446D9
:104A30000D4600220068FFF73DFF2368284A934295
:104A40000FD002F5006293420BD002F54062934210
:104A500007D002F58062934203D002F58062934250
:104A60000DD1196A41F21112114208D1196A44F2AA
:104A70004442114203D15A6C22F400425A64236822
:104A8000196A41F21112114208D1196A44F24442E2
:104A9000114203D11A6822F001021A6025B90123DC
:104AA00084F83E30002038BD042D09D0082D0BD0ED
:104AB0000C2D0DD0102D0FD0012384F84330F1E7D9
:104AC000012384F83F30EDE7012384F84030E9E723
:104AD000012384F84130E5E7012384F84230E1E71F
:104AE000002C014090F83C30012B40D030B4012321
:104AF00080F83C30022380F83D30026853689468A7
:104B00001C4DAA4203D005F50065AA4203D123F447
:104B100070034D682B4323F0007323F070030D687E
:104B20002B4353600368134A934212D0B3F1804F72
:104B30000FD0A2F5943293420BD002F580629342DB
:104B400007D002F59632934203D002F540629342B9
:104B500004D124F080048A6814439C60012380F807
:104B60003D30002380F83C30184630BC70470220AE
:104B7000704700BF002C014090F83C30012B46D01C
:104B800010B4012380F83C30CB6823F440738A686A
:104B9000134323F480634A68134323F400630A68D1
:104BA000134323F480530A69134323F400534A69DF
:104BB000134323F480430A6B134323F470238A695D
:104BC00043EA024323F08053CA6913430268114C3D
:104BD000A24203D004F50064A24210D123F4700372
:104BE0008C6A43EA045323F080730C6A234323F056
:104BF00000734C6A234323F00053C96A0B43536488
:104C0000002380F83C3018465DF8044B70470220C2
:104C1000704700BF002C01407047704770477047D5
:104C2000704770477047026852E8003F23F0C003A6
:104C300042E800310029F6D1026802F1080353E886
:104C4000003F23F40003083242E800310029F3D189
:104C50002023C0F888307047026852E8003F23F4F0
:104C6000907342E800310029F6D1026802F108038E
:104C700053E8003F23F0805323F00103083242E859
:104C800000310029F1D1C36E012B06D02023C0F8DA
:104C90008C300023C36643677047026852E8003FC8
:104CA00023F0100342E800310029F6D1EEE70000BE
:104CB0001346D0F88820202A3DD110B5044600299B
:104CC0003BD0002B3BD00165A0F85430A0F8563003
:104CD0000022C0F890202122C0F88820C26FCAB1FB
:104CE0001849D162C26F18491163C26F17495163E5
:104CF000C26F0021916302682832016DC06FFEF718
:104D000089F838B11023C4F890302023C4F88830D3
:104D100001200FE0236840221A62226802F1080392
:104D200053E8003F43F08003083242E80031002995
:104D3000F3D1002010BD022070470120FAE70120C6
:104D4000F8E700BF534D0008C14D0008CD4D0008E5
:104D5000704708B50346806A1B681B6813F0200F74
:104D600018D10023A0F85630026802F1080353E876
:104D7000003F23F08003083242E800310029F3D1DC
:104D8000026852E8003F43F0400342E80031002946
:104D9000F6D108BDFFF7DCFFFBE708B5026852E873
:104DA000003F23F0400342E800310029F6D12023E0
:104DB000C0F8883000238367FFF7CAFF08BD70473B
:104DC00008B5806AFFF7FBFF08BD704738B5846AF5
:104DD000D4F88820D4F88C5023689B6813F0800F97
:104DE00001D0212A10D023689B6813F0400F01D016
:104DF000222D10D0D4F8903043F01003C4F8903036
:104E00002046FFF7E2FF38BD0023A4F856302046C5
:104E1000FFF709FFE7E70023A4F85E302046FFF71D
:104E20001BFFE7E708B5806A0023A0F85E30A0F812
:104E30005630FFF7CAFF08BD7047000070B5044642
:104E40000168CB6908688D6840F60F021A4008D1E6
:104E500013F0200F05D010F0200F34D115F0805F33
:104E600031D12AB1994A2A4033D1994E304230D1BA
:104E7000E26E012A00F0C68013F4801F03D015F4FF
:104E8000800F40F0658113F0800F07D010F0800F85
:104E900040F0658115F4000F40F0618113F0400F80
:104EA00003D010F0400F40F0618113F4000F03D0E5
:104EB00010F0804F40F05E8113F0807F02D0002818
:104EC000C0F25C8170BD636F002BFBD02046984719
:104ED000F8E713F0010F09D010F4807F06D0012607
:104EE0000E62D4F890103143C4F8901013F0020F02
:104EF0000BD015F0010F08D0216802260E62D4F8FD
:104F0000901041F00401C4F8901013F0040F0BD07E
:104F100015F0010F08D0216804260E62D4F8901015
:104F200041F00201C4F8901013F0080F0BD010F0FC
:104F3000200F00D13AB1226808211162D4F89020E4
:104F40000A43C4F8902013F4006F0CD010F0806F67
:104F500009D022684FF400611162D4F8902042F029
:104F60002002C4F89020D4F89020002AAAD013F090
:104F7000200F09D010F0200F02D115F0805F03D070
:104F8000636F0BB120469847D4F8902023689B6844
:104F900013F0400F02D112F0280F2CD02046FFF75B
:104FA0005BFE23689B6813F0400F20D0226802F15B
:104FB000080353E8003F23F04003083242E8003181
:104FC0000029F3D1D4F880306BB1424A9A63D4F807
:104FD0008000FDF79FFF00283FF474AFD4F88000F5
:104FE000836B98476EE72046FFF7EFFE6AE720469F
:104FF000FFF7EBFE66E72046FFF7E7FE0023C4F865
:1050000090305FE713F0100F3FF436AF10F0100F41
:105010003FF432AF10230B6223689B6813F0400FFC
:105020005AD0D4F8802013685B689BB2002B3FF401
:1050300049AFB4F85C1099427FF644AFA4F85E30F3
:1050400013681B6813F0200F32D1226852E8003F2A
:1050500023F4807342E800310029F6D1226802F17E
:10506000080353E8003F23F00103083242E800310F
:105070000029F3D1226802F1080353E8003F23F02E
:105080004003083242E800310029F3D12023C4F85C
:105090008C300023E366226852E8003F23F01003BF
:1050A00042E800310029F6D1D4F88000FDF7FCFE7B
:1050B00002232367B4F85C10B4F85E309BB2C91ABF
:1050C00089B22046FFF7B8FEFCE600BF01000010E1
:1050D00020010004254E0008B4F85C10B4F85E30DE
:1050E0009BB2C91A89B2B4F85E309BB2002B3FF470
:1050F000E9AE00293FF4E6AE226852E8003F23F40F
:10510000907342E800300028F6D1226802F10803CB
:1051100053E8003F23F0805323F00103083242E8B4
:1051200000300028F1D12023C4F88C300023E3663E
:105130006367226852E8003F23F0100342E8003022
:105140000028F6D1022323672046FFF775FEB9E653
:105150004FF480130B62204600F030FBB2E6A36FE1
:10516000002B3FF4AFAE20469847ABE62046FFF752
:1051700014FEA7E6204600F023FBA3E6204600F03D
:105180001EFB9FE6D0F88820D0F88C0010437047B3
:1051900070B504460168836802691343426913438A
:1051A000C269134308688B4A024013430B602268AC
:1051B000536823F44053E1680B435360A1692268AC
:1051C000854B9A4201D0236A1943936823F06E43BA
:1051D00023F430630B4393602268D36A23F00F03F8
:1051E000616A0B43D36223687C4A934223D07C4A92
:1051F000934234D07B4A93424AD07B4A934259D05F
:10520000754A934268D0102273498B4200F0958012
:10521000E069B0F5004F00F0D280082A00F24F811B
:10522000DFE812F01201340110014D0137014D0188
:105230004D014D013A0102F55842D2F8882002F0A2
:105240000302032A09D8DFE802F002045C06012207
:10525000DAE70422D8E70822D6E71022D4E702F5DD
:10526000E632D2F8882002F00C020C2A0ED8DFE8D1
:1052700002F0070D0D0D090D0D0D4A0D0D0D0B0062
:105280000022C1E70422BFE70822BDE71022BBE7E6
:1052900002F5E432D2F8882002F03002202A34D01D
:1052A00004D8A2B3102A34D10422ADE7302A32D177
:1052B0000822A9E702F5E232D2F8882002F0C00203
:1052C000802A2AD004D852B3402A2AD104229BE74C
:1052D000C02A28D1082297E702F5C832D2F88820E0
:1052E00002F44062B2F5006F1FD005D8FAB1B2F5F2
:1052F000806F1ED1042287E7B2F5406F1BD10822D0
:1053000082E7022280E702227EE702227CE7002277
:105310007AE7102278E7102276E7022274E700226B
:1053200072E7102270E710226EE702226CE700227B
:105330006AE7102268E7102266E7082A00F2AF80C9
:10534000DFE802F008AD3BAD38ADADAD05004FF480
:10535000004004E0FEF7F6FB002800F0A280626A3D
:10536000224B33F81220B0FBF2F3656805EB4501E0
:10537000994200F29880B3EB053F00F29680002638
:1053800033463146FBF718FC090241EA106100027E
:105390006B08C0182A46334641F10001FBF70CFCAC
:1053A000A0F54072124B9A4200F281802368D860C7
:1053B000304662E0FEF780FACEE70E48CFE7082AD3
:1053C00077D8DFE802F0193905763C7676761D004D
:1053D000084815E0F369FFCF008000400038014025
:1053E0000044004000480040004C004044CE00080B
:1053F000FFFC0F000024F400FEF7A4FB00285AD0A5
:10540000626A324B33F81230B0FBF3F06268530833
:1054100003EB4000B0FBF2F0A0F110024FF6EF7387
:105420009A424AD883B223F00F03C0F342001843D4
:105430002368D860002020E0FEF796FBDEE7FEF749
:105440003BFADBE7224803E0FEF77CFB002838D07C
:10545000626A1E4B33F81230B0FBF3F0636800EB66
:105460005300B0FBF3F0A0F110024FF6EF739A4235
:1054700029D8236880B2D86000200123A4F86A30BC
:10548000A4F8683000236367A36770BDFEF76CFB68
:10549000DCE7FEF711FAD9E74FF40040D8E7012026
:1054A000EBE70020E9E70120E7E70120E5E701203D
:1054B000E3E70120E1E70020DFE70120DDE701204D
:1054C000DBE70020D9E70120D7E700BF44CE000882
:1054D0000024F400836A13F0080F06D002685368B2
:1054E00023F40043816B0B435360836A13F0010F75
:1054F00006D00268536823F40033C16A0B4353603B
:10550000836A13F0020F06D00268536823F48033D5
:10551000016B0B435360836A13F0040F06D00268DB
:10552000536823F48023416B0B435360836A13F069
:10553000100F06D00268936823F48053C16B0B43AD
:105540009360836A13F0200F06D00268936823F4F7
:105550000053016C0B439360836A13F0400F0AD031
:105560000268536823F48013416C0B435360436C0F
:10557000B3F5801F0BD0836A13F0800F06D002684A
:10558000536823F40023C16C0B43536070470268D7
:10559000536823F4C003816C0B435360EBE72DE9A0
:1055A000F84305460E4617469946DDF820802C68DC
:1055B000E46936EA04030CBF4FF0010C4FF0000C15
:1055C000BC4536D1B8F1FF3FF1D0FDF7D9FAA0EBD9
:1055D0000900404530D8B8F1000F2FD02B681A6869
:1055E00012F0040FE3D0802EE1D0402EDFD0DA6934
:1055F00012F0080F11D1DA6912F4006FD7D04FF40E
:1056000000621A622846FFF727FB2023C5F8903076
:10561000002385F8843003200CE008241C6228460F
:10562000FFF71AFBC5F89040002385F8843001206D
:1056300000E00020BDE8F8830320FBE70320F9E742
:1056400030B583B004460023C0F89030FDF798FAD7
:1056500005462268126812F0080F10D123681B68F3
:1056600013F0040F28D12023C4F88830C4F88C30FC
:105670000020E066206784F8840003B030BD6FF03E
:105680007E430093034600224FF400112046FFF7AB
:1056900086FF0028E2D0226852E8003F23F0800312
:1056A00042E800310029F6D12023C4F888300023D5
:1056B00084F884300320E0E76FF07E4300932B46AC
:1056C00000224FF480012046FFF769FF0028CAD06E
:1056D000226852E8003F23F4907342E80031002929
:1056E000F6D1226802F1080353E8003F23F00103DA
:1056F000083242E800310029F3D12023C4F88C306D
:10570000002384F884300320B7E778B310B504464B
:10571000D0F888300BB32423C4F88830226813688B
:1057200023F001031360A36AE3B92046FFF730FDBD
:10573000012811D02268536823F4904353602268F3
:10574000936823F02A0393602268136843F00103EF
:1057500013602046FFF774FF10BD80F88430FCF71B
:10576000FFFFD8E72046FFF7B5FEDEE701207047D0
:10577000436E2BB90123A0F86A30A0F86830704757
:1057800030B403689A68C2F342629968490F094DC0
:105790006B5CDB00084C615C93FBF1F3A0F86A30B2
:1057A000AB5CDB00A25C93FBF2F3A0F8683030BC8A
:1057B000704700BF64CE00085CCE00087047704799
:1057C000704790F88430012B18D0012380F8843082
:1057D0002423C0F8883003681A68196821F0010191
:1057E000196022F000520023436601680A602022FB
:1057F000C0F8882080F8843018467047022070472F
:1058000038B590F88430012B1DD00446012380F870
:1058100084302423C0F8883003681D681A6822F099
:1058200001021A600268936823F060431943916093
:10583000FFF79EFF23681D602023C4F888300020F6
:1058400084F8840038BD0220FCE738B590F8843035
:10585000012B1DD00446012380F884302423C0F896
:10586000883003681D681A6822F001021A60026815
:10587000936823F0606319439160FFF779FF236811
:105880001D602023C4F88830002084F8840038BDCF
:105890000220FCE7842801D00330704700207047C5
:1058A00008B500F02DFD002008BDF0B585B00C4610
:1058B000456806680769B0F90800FFF7EBFF03AB1E
:1058C000019300902346BAB23146284600F0A2FC6C
:1058D000012802D1039805B0F0BD0020FBE708B510
:1058E00000B9012000F05AFE002008BD00F10803B5
:1058F00043604FF0FF328260C360036100230360A6
:10590000704700230361704743684B609A688A6060
:10591000516099600861036801330360704730B4D7
:105920000D68B5F1FF3F11D000F108031C465B681C
:105930001A68AA42FAD963684B6099608C6061600A
:10594000086103680133036030BC70470469F2E703
:105950000369416882688A60416851605A6882427E
:1059600006D0002202611A68013A1A60186870476E
:1059700082685A60F5E7000082B0002301930D4B66
:105980001B68B3F1FF3F08D04FF0500383F3118839
:10599000BFF36F8FBFF34F8FFEE74FF0500383F3DA
:1059A0001188BFF36F8FBFF34F8F019B002BFCD08B
:1059B00002B070470C00002008480068006880F3BF
:1059C00008884FF0000080F3148862B661B6BFF318
:1059D0004F8FBFF36F8F00DF00BF000008ED00E0C6
:1059E000DFF80C00016841F47001016070470000AD
:1059F00088ED00E04FF0807340F8043C21F0010195
:105A000040F8081C054B40F80C3C40F8202C6FF087
:105A1000020340F8243C4438704700BF795900081D
:105A2000074B19680868B0E8F04F80F30988BFF3A6
:105A30006F8F4FF0000080F311887047AFF3008044
:105A4000441F00204FF0500383F31188BFF36F8F82
:105A5000BFF34F8F0B4A136801331360012B00D043
:105A600070474FF0E023D3F8043D13F0FF0FF7D059
:105A70004FF0500383F31188BFF36F8FBFF34F8F45
:105A8000FEE700BF0C000020094B1B6843B94FF034
:105A9000500383F31188BFF36F8FBFF34F8FFEE77F
:105AA000013B034A13600BB983F31188704700BFB1
:105AB0000C000020000000000000000000000000BA
:105AC000EFF30980BFF36F8F154B1A681EF0100FAC
:105AD00008BF20ED108A20E9F04F10602DE9090081
:105AE0004FF0500080F31188BFF34F8FBFF36F8FDB
:105AF00000F07AFD4FF0000080F3118809BC1968AE
