:020000040800F2
:1000000068060020790200088B05000883030008B9
:10001000890500087F03000865060008000000004D
:100020000000000000000000000000008F05000834
:1000300081030008000000008D05000891050008FC
:10004000930200089302000893020008930200083C
:10005000930200089302000893020008930200082C
:10006000930200089302000893020008930200081C
:10007000930200089302000893020008930200080C
:100080009302000800000000930200089302000899
:1000900093020008930200089302000893020008EC
:1000A00093020008930200089302000893020008DC
:1000B00093020008930200089302000893020008CC
:1000C00093020008930200089302000893020008BC
:1000D00093020008930200089302000893020008AC
:1000E000930200089302000893020008930200089C
:1000F0009302000893020008930200080000000029
:1001000000000000930200080000000093020008B5
:100110009302000800000000930200089302000808
:10012000930200089302000893020008930200085B
:100130009302000800000000000000009302000885
:100140009302000893020008000000000000000075
:10015000000000000000000000000000000000009F
:1001600000000000000000000000000093020008F2
:1001700093020008000000000000000000000000E2
:1001800000000000930200080000000000000000D2
:10019000000000000000000000000000000000005F
:1001A0000000000000000000930200089302000815
:1001B0009302000893020008930200080000000068
:1001C0000000000093020008000000000000000092
:1001D000930200089302000800F002F800F03CF8D7
:1001E0000AA090E8000C82448344AAF10107DA4592
:1001F00001D100F031F8AFF2090EBAE80F0013F0A8
:10020000010F18BFFB1A43F0010318472C0500002B
:100210004C050000103A24BF78C878C1FAD85207BC
:1002200024BF30C830C144BF04680C607047000070
:100230000023002400250026103A28BF78C1FBD8EF
:10024000520728BF30C148BF0B6070471FB500F090
:100250006DFA1FBD10B510BD00F058F81146FFF73C
:10026000F5FF00F001FA00F076F803B4FFF7F2FFB3
:1002700003BC00F07DF800000948804709480047AA
:10028000FEE7FEE7FEE7FEE7FEE7FEE7FEE7FEE746
:10029000FEE7FEE704480549054A064B70470000A3
:1002A00055060008D90100086800002068060020F3
:1002B00068020020680200204FF0000200B51346DB
:1002C00094469646203922BFA0E80C50A0E80C5076
:1002D000B1F12001BFF4F7AF090728BFA0E80C5027
:1002E00048BF0CC05DF804EB890028BF40F8042B20
:1002F00008BF704748BF20F8022B11F0804F18BF8D
:1003000000F8012B7047704770477047754600F042
:100310002BF8AE4605006946534620F00700854697
:1003200018B020B5FFF7B6FFBDE820404FF000063B
:100330004FF000074FF000084FF0000B21F00701CD
:10034000AC46ACE8C009ACE8C009ACE8C009ACE810
:10035000C0098D46704710B50446AFF300802046B3
:10036000BDE81040FFF781BF00487047040000203F
:1003700001491820ABBEFEE7260002007047FEE7E9
:100380007047FEE7044908B5CA6C0243CA64C96CE9
:100390000140009108BD000000100240F0B50A685D
:1003A0000F2692FAA2F2B2FA82F303248AE0012520
:1003B0009D402A407ED04D68012D01D0022D20D1D4
:1003C0008D68876892FAA2FCBCFA8CFC4FEA4C0E4E
:1003D00004FA0EFC27EA0C0792FAA2FCBCFA8CFC89
:1003E0004FEA4C0C05FA0CF52F438760CF680D6877
:1003F000D0F804C02CEA050C7D434CEA050CC0F88B
:1004000004C00F69D0F80CC092FAA2F5B5FA85F5D0
:100410004FEA450E04FA0EF52CEA050C92FAA2F505
:10042000B5FA85F56D00AF404CEA070CC0F80CC07A
:100430004D68022D2FD1FF2A15D8D1F814C0056AB6
:1004400092FAA2F7B7FA87F7BF0006FA07F7BD439B
:1004500092FAA2F7B7FA87F7BF000CFA07FC45EA51
:100460000C05056217E0D1F814E0476A150A95FA01
:10047000A5FCBCFA8CFC4FEA8C0C06FA0CFC95FA35
:10048000A5F5B5FA85F5AD0027EA0C070EFA05FECD
:1004900047EA0E0747624D68076892FAA2FCBCFA69
:1004A0008CFC4FEA4C0C04FA0CFE27EA0E0792FA79
:1004B000A2F200E005E0B2FA82F2520095402F432A
:1004C00007605B1C0A6832FA03F57FF470AF002006
:1004D000F0BD4FF47A71B0FBF1F14FF0E020491E0E
:1004E00041610021816105210161704703498A68EA
:1004F00022F0F00202438A607047000000100240C0
:1005000001490860704700000000002008B54FF066
:10051000E0210A690092421C00D0401C0A69D20303
:1005200000D5401E0028F9D108BD0000F0B587B005
:1005300018216846FFF7C0FE0420FFF723FF2020A4
:10054000FFF720FF0120FFF71DFF0E4D4FF4804005
:10055000A8614600AE61009001270024CDE9017436
:100560000394694628460494FFF718FF0096CDE9E6
:1005700001740394694628460494FFF70FFF07B0FF
:10058000F0BD000000080048FEE7FEE77047704736
:100590007047000038B52A48016821F00F0141F08A
:1005A00004010160016801F00F010429FAD1254816
:1005B00050F8801F21F480710160234C206840F4C2
:1005C000803020602068C0F340400028FAD0E16805
:1005D00045F253501D4A11400843E060E06840F086
:1005E0008070E060206840F0807020602068C0F378
:1005F00040600028FAD0A06840F00300A06080208E
:10060000FFF774FFA06800F00C000C28FAD1552009
:100610000090401E0090FCD1FFF768FFA06820F416
:10062000E060A060A06820F46050A060084C204604
:10063000FFF74FFF2046BDE83840FFF761BF0000DD
:100640000020024000700040001002400C80FFF9C2
:1006500080FE210A0248016841F470010160704780
:1006600088ED00E0FEE700002A4808B5016E41F081
:1006700001010166016E01F001010091816D41F0FF
:1006800080518165806D244900F080500090086899
:100690004FF6FF021040214A40F4407010430860BA
:1006A0000868C0F30220C0F10702042A00D904221E
:1006B000011D072901D2002000E0C01E0121914048
:1006C000491E81400801164981F8140D15488168BA
:1006D00041F480418160FFF75DFFFFF727FF4FF492
:1006E0008045114C6E00606925EA000100F48040ED
:1006F00041EA0040A0616420FFF708FF606926EA34
:10070000000100F4004041EA0040A0616420FFF7CE
:10071000FDFEE8E7001002400CED00E00000FA05E5
:100720000FE000E000700040000800484FF040700B
:10073000E1EE100A70470000580700080000002092
:1007400004000000140200085C07000804000020F8
:0C07500064060000300200080024F400E1
:04000005080001D915
:00000001FF
